{
  "contractName": "Account",
  "abi": [
    {
      "constant": true,
      "inputs": [],
      "name": "name",
      "outputs": [
        {
          "name": "",
          "type": "string"
        }
      ],
      "payable": false,
      "stateMutability": "view",
      "type": "function",
      "signature": "0x06fdde03"
    },
    {
      "constant": true,
      "inputs": [],
      "name": "usersCount",
      "outputs": [
        {
          "name": "",
          "type": "uint256"
        }
      ],
      "payable": false,
      "stateMutability": "view",
      "type": "function",
      "signature": "0x6ba13a82"
    },
    {
      "constant": true,
      "inputs": [
        {
          "name": "",
          "type": "address"
        }
      ],
      "name": "Users",
      "outputs": [
        {
          "name": "id",
          "type": "uint256"
        },
        {
          "name": "owner",
          "type": "address"
        },
        {
          "name": "centralDBID",
          "type": "string"
        }
      ],
      "payable": false,
      "stateMutability": "view",
      "type": "function",
      "signature": "0x99b956a0"
    },
    {
      "anonymous": false,
      "inputs": [
        {
          "indexed": false,
          "name": "id",
          "type": "uint256"
        },
        {
          "indexed": false,
          "name": "owner",
          "type": "address"
        },
        {
          "indexed": false,
          "name": "centralDBID",
          "type": "string"
        },
        {
          "indexed": false,
          "name": "transactions",
          "type": "uint256[]"
        },
        {
          "indexed": false,
          "name": "ownedAssets",
          "type": "uint256[]"
        },
        {
          "indexed": false,
          "name": "createdAssets",
          "type": "uint256[]"
        }
      ],
      "name": "UserCreated",
      "type": "event",
      "signature": "0x435c996d89a49cca8df2e2b9049873efc395163c78132316c36b4cc6385159bf"
    },
    {
      "anonymous": false,
      "inputs": [
        {
          "indexed": false,
          "name": "receiver",
          "type": "address"
        },
        {
          "indexed": false,
          "name": "amount",
          "type": "uint256"
        }
      ],
      "name": "PaymentReceived",
      "type": "event",
      "signature": "0x6ef95f06320e7a25a04a175ca677b7052bdd97131872c2192525a629f51be770"
    },
    {
      "anonymous": false,
      "inputs": [
        {
          "indexed": false,
          "name": "owner",
          "type": "address"
        },
        {
          "indexed": false,
          "name": "transactionId",
          "type": "uint256"
        },
        {
          "indexed": false,
          "name": "transactions",
          "type": "uint256[]"
        }
      ],
      "name": "TransactionsUpdated",
      "type": "event",
      "signature": "0x6b2ad7f150794bfc99e3013370f5564e4e0485b5b65ca0f4d9d9ce300070d273"
    },
    {
      "anonymous": false,
      "inputs": [
        {
          "indexed": false,
          "name": "owner",
          "type": "address"
        },
        {
          "indexed": false,
          "name": "assetId",
          "type": "uint256"
        },
        {
          "indexed": false,
          "name": "ownedAssets",
          "type": "uint256[]"
        }
      ],
      "name": "OwnedAssetsUpdated",
      "type": "event",
      "signature": "0x18fc6bf4e6adb359b6b7456f354c22287834a11391d70d8ff30b7004212af1e7"
    },
    {
      "anonymous": false,
      "inputs": [
        {
          "indexed": false,
          "name": "owner",
          "type": "address"
        },
        {
          "indexed": false,
          "name": "assetId",
          "type": "uint256"
        },
        {
          "indexed": false,
          "name": "createdAssets",
          "type": "uint256[]"
        }
      ],
      "name": "CreatedAssetsUpdated",
      "type": "event",
      "signature": "0xaf4bf105b07134ade84774ffbc130ba9a42441545ab51d6865c59ef7d71d75c0"
    },
    {
      "constant": false,
      "inputs": [
        {
          "name": "_centralDBID",
          "type": "string"
        }
      ],
      "name": "createAccount",
      "outputs": [],
      "payable": false,
      "stateMutability": "nonpayable",
      "type": "function",
      "signature": "0x298daf5b"
    },
    {
      "constant": false,
      "inputs": [
        {
          "name": "_userAccountAddress",
          "type": "address"
        },
        {
          "name": "_transactionId",
          "type": "uint256"
        }
      ],
      "name": "updateAccountTransactions",
      "outputs": [],
      "payable": false,
      "stateMutability": "nonpayable",
      "type": "function",
      "signature": "0xb985e8d8"
    },
    {
      "constant": false,
      "inputs": [
        {
          "name": "_userAccountAddress",
          "type": "address"
        },
        {
          "name": "_assetId",
          "type": "uint256"
        }
      ],
      "name": "updateAccountCreatedAssets",
      "outputs": [],
      "payable": false,
      "stateMutability": "nonpayable",
      "type": "function",
      "signature": "0xa0edc501"
    },
    {
      "constant": false,
      "inputs": [
        {
          "name": "_userAccountAddress",
          "type": "address"
        },
        {
          "name": "_assetId",
          "type": "uint256"
        },
        {
          "name": "_opType",
          "type": "uint256"
        }
      ],
      "name": "updateAccountOwnedAssets",
      "outputs": [],
      "payable": false,
      "stateMutability": "nonpayable",
      "type": "function",
      "signature": "0xda338864"
    },
    {
      "constant": false,
      "inputs": [
        {
          "name": "_receiverAccountAddress",
          "type": "address"
        }
      ],
      "name": "receivePayment",
      "outputs": [],
      "payable": true,
      "stateMutability": "payable",
      "type": "function",
      "signature": "0x96dae737"
    }
  ],
  "bytecode": "0x60806040526040805190810160405280600781526020017f4163636f756e74000000000000000000000000000000000000000000000000008152506000908051906020019061004f929190610067565b50600060015534801561006157600080fd5b5061010c565b828054600181600116156101000203166002900490600052602060002090601f016020900481019282601f106100a857805160ff19168380011785556100d6565b828001600101855582156100d6579182015b828111156100d55782518255916020019190600101906100ba565b5b5090506100e391906100e7565b5090565b61010991905b808211156101055760008160009055506001016100ed565b5090565b90565b6110b4806200011c6000396000f3fe60806040526004361061008e576000357c0100000000000000000000000000000000000000000000000000000000900463ffffffff16806306fdde0314610093578063298daf5b146101235780636ba13a82146101eb57806396dae7371461021657806399b956a01461025a578063a0edc5011461035e578063b985e8d8146103b9578063da33886414610414575b600080fd5b34801561009f57600080fd5b506100a8610479565b6040518080602001828103825283818151815260200191508051906020019080838360005b838110156100e85780820151818401526020810190506100cd565b50505050905090810190601f1680156101155780820380516001836020036101000a031916815260200191505b509250505060405180910390f35b34801561012f57600080fd5b506101e96004803603602081101561014657600080fd5b810190808035906020019064010000000081111561016357600080fd5b82018360208201111561017557600080fd5b8035906020019184600183028401116401000000008311171561019757600080fd5b91908080601f016020809104026020016040519081016040528093929190818152602001838380828437600081840152601f19601f820116905080830192505050505050509192919290505050610517565b005b3480156101f757600080fd5b5061020061095e565b6040518082815260200191505060405180910390f35b6102586004803603602081101561022c57600080fd5b81019080803573ffffffffffffffffffffffffffffffffffffffff169060200190929190505050610964565b005b34801561026657600080fd5b506102a96004803603602081101561027d57600080fd5b81019080803573ffffffffffffffffffffffffffffffffffffffff169060200190929190505050610a2e565b604051808481526020018373ffffffffffffffffffffffffffffffffffffffff1673ffffffffffffffffffffffffffffffffffffffff16815260200180602001828103825283818151815260200191508051906020019080838360005b83811015610321578082015181840152602081019050610306565b50505050905090810190601f16801561034e5780820380516001836020036101000a031916815260200191505b5094505050505060405180910390f35b34801561036a57600080fd5b506103b76004803603604081101561038157600080fd5b81019080803573ffffffffffffffffffffffffffffffffffffffff16906020019092919080359060200190929190505050610b10565b005b3480156103c557600080fd5b50610412600480360360408110156103dc57600080fd5b81019080803573ffffffffffffffffffffffffffffffffffffffff16906020019092919080359060200190929190505050610c3a565b005b34801561042057600080fd5b506104776004803603606081101561043757600080fd5b81019080803573ffffffffffffffffffffffffffffffffffffffff1690602001909291908035906020019092919080359060200190929190505050610d64565b005b60008054600181600116156101000203166002900480601f01602080910402602001604051908101604052809291908181526020018280546001816001161561010002031660029004801561050f5780601f106104e45761010080835404028352916020019161050f565b820191906000526020600020905b8154815290600101906020018083116104f257829003601f168201915b505050505081565b6000815111151561052757600080fd5b60016000815480929190600101919050555060c06040519081016040528060015481526020013373ffffffffffffffffffffffffffffffffffffffff168152602001828152602001600060405190808252806020026020018201604052801561059f5781602001602082028038833980820191505090505b50815260200160006040519080825280602002602001820160405280156105d55781602001602082028038833980820191505090505b508152602001600060405190808252806020026020018201604052801561060b5781602001602082028038833980820191505090505b50815250600260003373ffffffffffffffffffffffffffffffffffffffff1673ffffffffffffffffffffffffffffffffffffffff1681526020019081526020016000206000820151816000015560208201518160010160006101000a81548173ffffffffffffffffffffffffffffffffffffffff021916908373ffffffffffffffffffffffffffffffffffffffff16021790555060408201518160020190805190602001906106bb929190610f96565b5060608201518160030190805190602001906106d8929190611016565b5060808201518160040190805190602001906106f5929190611016565b5060a0820151816005019080519060200190610712929190611016565b509050507f435c996d89a49cca8df2e2b9049873efc395163c78132316c36b4cc6385159bf6001543383600060405190808252806020026020018201604052801561076c5781602001602082028038833980820191505090505b50600060405190808252806020026020018201604052801561079d5781602001602082028038833980820191505090505b5060006040519080825280602002602001820160405280156107ce5781602001602082028038833980820191505090505b50604051808781526020018673ffffffffffffffffffffffffffffffffffffffff1673ffffffffffffffffffffffffffffffffffffffff16815260200180602001806020018060200180602001858103855289818151815260200191508051906020019080838360005b83811015610853578082015181840152602081019050610838565b50505050905090810190601f1680156108805780820380516001836020036101000a031916815260200191505b50858103845288818151815260200191508051906020019060200280838360005b838110156108bc5780820151818401526020810190506108a1565b50505050905001858103835287818151815260200191508051906020019060200280838360005b838110156108fe5780820151818401526020810190506108e3565b50505050905001858103825286818151815260200191508051906020019060200280838360005b83811015610940578082015181840152602081019050610925565b505050509050019a505050505050505050505060405180910390a150565b60015481565b60003411151561097357600080fd5b60008190508073ffffffffffffffffffffffffffffffffffffffff166108fc349081150290604051600060405180830381858888f193505050501580156109be573d6000803e3d6000fd5b507f6ef95f06320e7a25a04a175ca677b7052bdd97131872c2192525a629f51be7708234604051808373ffffffffffffffffffffffffffffffffffffffff1673ffffffffffffffffffffffffffffffffffffffff1681526020018281526020019250505060405180910390a15050565b60026020528060005260406000206000915090508060000154908060010160009054906101000a900473ffffffffffffffffffffffffffffffffffffffff1690806002018054600181600116156101000203166002900480601f016020809104026020016040519081016040528092919081815260200182805460018160011615610100020316600290048015610b065780601f10610adb57610100808354040283529160200191610b06565b820191906000526020600020905b815481529060010190602001808311610ae957829003601f168201915b5050505050905083565b6000600260008473ffffffffffffffffffffffffffffffffffffffff1673ffffffffffffffffffffffffffffffffffffffff1681526020019081526020016000209050806005018290806001815401808255809150509060018203906000526020600020016000909192909190915055507f18fc6bf4e6adb359b6b7456f354c22287834a11391d70d8ff30b7004212af1e7838383600501604051808473ffffffffffffffffffffffffffffffffffffffff1673ffffffffffffffffffffffffffffffffffffffff168152602001838152602001806020018281038252838181548152602001915080548015610c2557602002820191906000526020600020905b815481526020019060010190808311610c11575b505094505050505060405180910390a1505050565b6000600260008473ffffffffffffffffffffffffffffffffffffffff1673ffffffffffffffffffffffffffffffffffffffff1681526020019081526020016000209050806003018290806001815401808255809150509060018203906000526020600020016000909192909190915055507f6b2ad7f150794bfc99e3013370f5564e4e0485b5b65ca0f4d9d9ce300070d273838383600301604051808473ffffffffffffffffffffffffffffffffffffffff1673ffffffffffffffffffffffffffffffffffffffff168152602001838152602001806020018281038252838181548152602001915080548015610d4f57602002820191906000526020600020905b815481526020019060010190808311610d3b575b505094505050505060405180910390a1505050565b6000600260008573ffffffffffffffffffffffffffffffffffffffff1673ffffffffffffffffffffffffffffffffffffffff16815260200190815260200160002090506001821415610de35780600401839080600181540180825580915050906001820390600052602060002001600090919290919091505550610edb565b6002821415610eda57600080905060008090505b8260040180549050811015610e3e578260040181815481101515610e1757fe5b9060005260206000200154851415610e3157809150610e3e565b8080600101915050610df7565b506000811415610e4f575050610f91565b60008190505b6001836004018054905003811015610eb2578260040160018201815481101515610e7b57fe5b90600052602060002001548360040182815481101515610e9757fe5b90600052602060002001819055508080600101915050610e55565b50816004018054801515610ec257fe5b60019003818190600052602060002001600090559055505b5b7faf4bf105b07134ade84774ffbc130ba9a42441545ab51d6865c59ef7d71d75c0848483600401604051808473ffffffffffffffffffffffffffffffffffffffff1673ffffffffffffffffffffffffffffffffffffffff168152602001838152602001806020018281038252838181548152602001915080548015610f7f57602002820191906000526020600020905b815481526020019060010190808311610f6b575b505094505050505060405180910390a1505b505050565b828054600181600116156101000203166002900490600052602060002090601f016020900481019282601f10610fd757805160ff1916838001178555611005565b82800160010185558215611005579182015b82811115611004578251825591602001919060010190610fe9565b5b5090506110129190611063565b5090565b828054828255906000526020600020908101928215611052579160200282015b82811115611051578251825591602001919060010190611036565b5b50905061105f9190611063565b5090565b61108591905b80821115611081576000816000905550600101611069565b5090565b9056fea165627a7a72305820c1707352b3b06a07496f12c39a5b1db6d76761898d3310f7b8bbcea83e1027410029",
  "source": "// SPDX-License-Identifier: Apache-2.0\r\npragma solidity ^0.5.0;\r\n\r\n\r\ncontract Account {\r\n    \r\n    string public name = \"Account\";\r\n    uint public usersCount = 0;\r\n\r\n    struct User {\r\n        uint id;\r\n        address payable owner;\r\n        string centralDBID;\r\n        uint[] transactions;\r\n        uint[] ownedAssets;\r\n        uint[] createdAssets;\r\n    }\r\n\r\n    mapping(address => User) public Users;\r\n\r\n    event UserCreated(\r\n        uint id,\r\n        address owner,\r\n        string centralDBID,\r\n        uint[] transactions,\r\n        uint[] ownedAssets,\r\n        uint[] createdAssets\r\n    );\r\n\r\n    event PaymentReceived(\r\n        address receiver,\r\n        uint amount\r\n    );\r\n\r\n    event TransactionsUpdated(\r\n        address owner,\r\n        uint transactionId,\r\n        uint[] transactions\r\n    );\r\n\r\n    event OwnedAssetsUpdated(\r\n        address owner,\r\n        uint assetId,\r\n        uint[] ownedAssets\r\n    );\r\n\r\n    event CreatedAssetsUpdated(\r\n        address owner,\r\n        uint assetId,\r\n        uint[] createdAssets\r\n    );\r\n\r\n    function createAccount(string memory _centralDBID) public {\r\n\r\n        require(bytes(_centralDBID).length > 0);\r\n\r\n        usersCount++;\r\n\r\n        Users[msg.sender] =  User(usersCount, msg.sender, _centralDBID, new uint[](0), new uint[](0), new uint[](0));\r\n\r\n        emit UserCreated(usersCount, msg.sender, _centralDBID, new uint[](0), new uint[](0), new uint[](0));\r\n    }\r\n\r\n    function updateAccountTransactions(address _userAccountAddress, uint _transactionId) public {\r\n\r\n        User storage user = Users[_userAccountAddress];\r\n\r\n        user.transactions.push(_transactionId);\r\n\r\n        emit TransactionsUpdated(_userAccountAddress, _transactionId, user.transactions);\r\n    }\r\n\r\n    function updateAccountCreatedAssets(address _userAccountAddress, uint _assetId) public {\r\n\r\n        User storage user = Users[_userAccountAddress];\r\n\r\n        user.createdAssets.push(_assetId);\r\n\r\n        emit OwnedAssetsUpdated(_userAccountAddress, _assetId, user.createdAssets);\r\n    }\r\n\r\n    function updateAccountOwnedAssets(address _userAccountAddress, uint _assetId, uint _opType) public {\r\n\r\n        User storage user = Users[_userAccountAddress];\r\n\r\n        if(_opType == 1){\r\n            user.ownedAssets.push(_assetId);\r\n        }\r\n        else if(_opType == 2){\r\n\r\n            uint _assetPos = 0;\r\n\r\n            // Finding position for required assetid in array\r\n            for(uint i=0;i<user.ownedAssets.length;i++){\r\n\r\n                if(_assetId == user.ownedAssets[i]){\r\n                    _assetPos = i;\r\n                    break;\r\n                }\r\n            }\r\n\r\n            if(_assetPos == 0)\r\n                return;\r\n\r\n            // Shifting elements to maintain the order after deletion.\r\n            for(uint i=_assetPos;i<user.ownedAssets.length-1;i++){\r\n                user.ownedAssets[i] = user.ownedAssets[i+1];\r\n            }\r\n\r\n            user.ownedAssets.pop();\r\n        }\r\n\r\n        emit CreatedAssetsUpdated(_userAccountAddress, _assetId, user.ownedAssets);\r\n    }\r\n\r\n    function receivePayment(address _receiverAccountAddress) public payable {\r\n\r\n        require(msg.value > 0);\r\n\r\n        address payable _payableAddress = address(uint160(_receiverAccountAddress));\r\n\r\n        address(_payableAddress).transfer(msg.value);\r\n\r\n        emit PaymentReceived(_receiverAccountAddress, msg.value);\r\n    }\r\n}",
  "sourcePath": "C:/Users/hp/Desktop/projects/Encheres/Frontend/encheres-frontend/src/contracts/Accounts.sol",
  "compiler": {
    "name": "solc",
    "version": "0.5.0+commit.1d4f565a.Emscripten.clang"
  },
  "schemaVersion": "3.0.1",
  "updatedAt": "2021-10-25T17:33:35.017Z",
  "devdoc": {
    "methods": {}
  },
  "userdoc": {
    "methods": {}
  }
}