{
  "contractName": "Account",
  "abi": [
    {
      "anonymous": false,
      "inputs": [
        {
          "indexed": false,
          "internalType": "address",
          "name": "owner",
          "type": "address"
        },
        {
          "indexed": false,
          "internalType": "uint256",
          "name": "assetId",
          "type": "uint256"
        },
        {
          "indexed": false,
          "internalType": "uint256[]",
          "name": "createdAssets",
          "type": "uint256[]"
        }
      ],
      "name": "CreatedAssetsUpdated",
      "type": "event"
    },
    {
      "anonymous": false,
      "inputs": [
        {
          "indexed": false,
          "internalType": "address",
          "name": "owner",
          "type": "address"
        },
        {
          "indexed": false,
          "internalType": "uint256",
          "name": "assetId",
          "type": "uint256"
        },
        {
          "indexed": false,
          "internalType": "uint256[]",
          "name": "ownedAssets",
          "type": "uint256[]"
        }
      ],
      "name": "OwnedAssetsUpdated",
      "type": "event"
    },
    {
      "anonymous": false,
      "inputs": [
        {
          "indexed": false,
          "internalType": "address",
          "name": "receiver",
          "type": "address"
        },
        {
          "indexed": false,
          "internalType": "uint256",
          "name": "amount",
          "type": "uint256"
        }
      ],
      "name": "PaymentReceived",
      "type": "event"
    },
    {
      "anonymous": false,
      "inputs": [
        {
          "indexed": false,
          "internalType": "address",
          "name": "owner",
          "type": "address"
        },
        {
          "indexed": false,
          "internalType": "uint256",
          "name": "transactionId",
          "type": "uint256"
        },
        {
          "indexed": false,
          "internalType": "uint256[]",
          "name": "transactions",
          "type": "uint256[]"
        }
      ],
      "name": "TransactionsUpdated",
      "type": "event"
    },
    {
      "anonymous": false,
      "inputs": [
        {
          "indexed": false,
          "internalType": "uint256",
          "name": "id",
          "type": "uint256"
        },
        {
          "indexed": false,
          "internalType": "address",
          "name": "owner",
          "type": "address"
        },
        {
          "indexed": false,
          "internalType": "string",
          "name": "centralDBID",
          "type": "string"
        },
        {
          "indexed": false,
          "internalType": "uint256[]",
          "name": "transactions",
          "type": "uint256[]"
        },
        {
          "indexed": false,
          "internalType": "uint256[]",
          "name": "ownedAssets",
          "type": "uint256[]"
        },
        {
          "indexed": false,
          "internalType": "uint256[]",
          "name": "createdAssets",
          "type": "uint256[]"
        }
      ],
      "name": "UserCreated",
      "type": "event"
    },
    {
      "inputs": [
        {
          "internalType": "address",
          "name": "",
          "type": "address"
        }
      ],
      "name": "Users",
      "outputs": [
        {
          "internalType": "uint256",
          "name": "id",
          "type": "uint256"
        },
        {
          "internalType": "address",
          "name": "owner",
          "type": "address"
        },
        {
          "internalType": "string",
          "name": "centralDBID",
          "type": "string"
        }
      ],
      "stateMutability": "view",
      "type": "function",
      "constant": true
    },
    {
      "inputs": [],
      "name": "name",
      "outputs": [
        {
          "internalType": "string",
          "name": "",
          "type": "string"
        }
      ],
      "stateMutability": "view",
      "type": "function",
      "constant": true
    },
    {
      "inputs": [],
      "name": "usersCount",
      "outputs": [
        {
          "internalType": "uint256",
          "name": "",
          "type": "uint256"
        }
      ],
      "stateMutability": "view",
      "type": "function",
      "constant": true
    },
    {
      "inputs": [
        {
          "internalType": "address",
          "name": "_userAccountAddress",
          "type": "address"
        }
      ],
      "name": "getAccountCreatedAssets",
      "outputs": [
        {
          "internalType": "uint256[]",
          "name": "",
          "type": "uint256[]"
        },
        {
          "internalType": "uint256",
          "name": "",
          "type": "uint256"
        }
      ],
      "stateMutability": "view",
      "type": "function",
      "constant": true
    },
    {
      "inputs": [
        {
          "internalType": "address",
          "name": "_userAccountAddress",
          "type": "address"
        }
      ],
      "name": "getAccountOwnedAssets",
      "outputs": [
        {
          "internalType": "uint256[]",
          "name": "",
          "type": "uint256[]"
        },
        {
          "internalType": "uint256",
          "name": "",
          "type": "uint256"
        }
      ],
      "stateMutability": "view",
      "type": "function",
      "constant": true
    },
    {
      "inputs": [
        {
          "internalType": "address",
          "name": "_userAccountAddress",
          "type": "address"
        }
      ],
      "name": "getAccountTransactions",
      "outputs": [
        {
          "internalType": "uint256[]",
          "name": "",
          "type": "uint256[]"
        },
        {
          "internalType": "uint256",
          "name": "",
          "type": "uint256"
        }
      ],
      "stateMutability": "view",
      "type": "function",
      "constant": true
    },
    {
      "inputs": [
        {
          "internalType": "string",
          "name": "_centralDBID",
          "type": "string"
        }
      ],
      "name": "createAccount",
      "outputs": [],
      "stateMutability": "nonpayable",
      "type": "function"
    },
    {
      "inputs": [
        {
          "internalType": "address",
          "name": "_userAccountAddress",
          "type": "address"
        },
        {
          "internalType": "uint256",
          "name": "_transactionId",
          "type": "uint256"
        }
      ],
      "name": "updateAccountTransactions",
      "outputs": [],
      "stateMutability": "nonpayable",
      "type": "function"
    },
    {
      "inputs": [
        {
          "internalType": "address",
          "name": "_userAccountAddress",
          "type": "address"
        },
        {
          "internalType": "uint256",
          "name": "_assetId",
          "type": "uint256"
        }
      ],
      "name": "updateAccountCreatedAssets",
      "outputs": [],
      "stateMutability": "nonpayable",
      "type": "function"
    },
    {
      "inputs": [
        {
          "internalType": "address",
          "name": "_userAccountAddress",
          "type": "address"
        },
        {
          "internalType": "uint256",
          "name": "_assetId",
          "type": "uint256"
        },
        {
          "internalType": "uint256",
          "name": "_opType",
          "type": "uint256"
        }
      ],
      "name": "updateAccountOwnedAssets",
      "outputs": [],
      "stateMutability": "nonpayable",
      "type": "function"
    },
    {
      "inputs": [
        {
          "internalType": "address",
          "name": "_receiverAccountAddress",
          "type": "address"
        }
      ],
      "name": "receivePayment",
      "outputs": [],
      "stateMutability": "payable",
      "type": "function",
      "payable": true
    }
  ],
  "bytecode": "0x60806040526040518060400160405280600781526020017f4163636f756e740000000000000000000000000000000000000000000000000081525060009080519060200190620000519291906200006b565b5060006001553480156200006457600080fd5b5062000180565b82805462000079906200014a565b90600052602060002090601f0160209004810192826200009d5760008555620000e9565b82601f10620000b857805160ff1916838001178555620000e9565b82800160010185558215620000e9579182015b82811115620000e8578251825591602001919060010190620000cb565b5b509050620000f89190620000fc565b5090565b5b8082111562000117576000816000905550600101620000fd565b5090565b7f4e487b7100000000000000000000000000000000000000000000000000000000600052602260045260246000fd5b600060028204905060018216806200016357607f821691505b602082108114156200017a57620001796200011b565b5b50919050565b61174080620001906000396000f3fe60806040526004361061009c5760003560e01c806396dae7371161006457806396dae7371461019c57806399b956a0146101b8578063a0edc501146101f7578063b985e8d814610220578063cb6a80e214610249578063da338864146102875761009c565b806306fdde03146100a15780631e251b73146100cc578063298daf5b1461010a5780634991dd69146101335780636ba13a8214610171575b600080fd5b3480156100ad57600080fd5b506100b66102b0565b6040516100c39190610f22565b60405180910390f35b3480156100d857600080fd5b506100f360048036038101906100ee9190610fb6565b61033e565b6040516101019291906110ba565b60405180910390f35b34801561011657600080fd5b50610131600480360381019061012c919061121f565b6103e9565b005b34801561013f57600080fd5b5061015a60048036038101906101559190610fb6565b610757565b6040516101689291906110ba565b60405180910390f35b34801561017d57600080fd5b50610186610802565b6040516101939190611268565b60405180910390f35b6101b660048036038101906101b19190610fb6565b610808565b005b3480156101c457600080fd5b506101df60048036038101906101da9190610fb6565b610898565b6040516101ee93929190611292565b60405180910390f35b34801561020357600080fd5b5061021e600480360381019061021991906112fc565b61096a565b005b34801561022c57600080fd5b50610247600480360381019061024291906112fc565b610a1b565b005b34801561025557600080fd5b50610270600480360381019061026b9190610fb6565b610acc565b60405161027e9291906110ba565b60405180910390f35b34801561029357600080fd5b506102ae60048036038101906102a9919061133c565b610b77565b005b600080546102bd906113be565b80601f01602080910402602001604051908101604052809291908181526020018280546102e9906113be565b80156103365780601f1061030b57610100808354040283529160200191610336565b820191906000526020600020905b81548152906001019060200180831161031957829003601f168201915b505050505081565b6060600080600260008573ffffffffffffffffffffffffffffffffffffffff1673ffffffffffffffffffffffffffffffffffffffff16815260200190815260200160002090506000816003018054806020026020016040519081016040528092919081815260200182805480156103d457602002820191906000526020600020905b8154815260200190600101908083116103c0575b50505050509050808151935093505050915091565b60008151116103f757600080fd5b6001600081548092919061040a9061141f565b91905055506040518060c0016040528060015481526020013373ffffffffffffffffffffffffffffffffffffffff168152602001828152602001600067ffffffffffffffff81111561045f5761045e6110f4565b5b60405190808252806020026020018201604052801561048d5781602001602082028036833780820191505090505b508152602001600067ffffffffffffffff8111156104ae576104ad6110f4565b5b6040519080825280602002602001820160405280156104dc5781602001602082028036833780820191505090505b508152602001600067ffffffffffffffff8111156104fd576104fc6110f4565b5b60405190808252806020026020018201604052801561052b5781602001602082028036833780820191505090505b50815250600260003373ffffffffffffffffffffffffffffffffffffffff1673ffffffffffffffffffffffffffffffffffffffff1681526020019081526020016000206000820151816000015560208201518160010160006101000a81548173ffffffffffffffffffffffffffffffffffffffff021916908373ffffffffffffffffffffffffffffffffffffffff16021790555060408201518160020190805190602001906105db929190610d99565b5060608201518160030190805190602001906105f8929190610e1f565b506080820151816004019080519060200190610615929190610e1f565b5060a0820151816005019080519060200190610632929190610e1f565b509050507f435c996d89a49cca8df2e2b9049873efc395163c78132316c36b4cc6385159bf6001543383600067ffffffffffffffff811115610677576106766110f4565b5b6040519080825280602002602001820160405280156106a55781602001602082028036833780820191505090505b50600067ffffffffffffffff8111156106c1576106c06110f4565b5b6040519080825280602002602001820160405280156106ef5781602001602082028036833780820191505090505b50600067ffffffffffffffff81111561070b5761070a6110f4565b5b6040519080825280602002602001820160405280156107395781602001602082028036833780820191505090505b5060405161074c96959493929190611468565b60405180910390a150565b6060600080600260008573ffffffffffffffffffffffffffffffffffffffff1673ffffffffffffffffffffffffffffffffffffffff16815260200190815260200160002090506000816005018054806020026020016040519081016040528092919081815260200182805480156107ed57602002820191906000526020600020905b8154815260200190600101908083116107d9575b50505050509050808151935093505050915091565b60015481565b6000341161081557600080fd5b8073ffffffffffffffffffffffffffffffffffffffff166108fc349081150290604051600060405180830381858888f1935050505015801561085b573d6000803e3d6000fd5b507f6ef95f06320e7a25a04a175ca677b7052bdd97131872c2192525a629f51be770813460405161088d9291906114e5565b60405180910390a150565b60026020528060005260406000206000915090508060000154908060010160009054906101000a900473ffffffffffffffffffffffffffffffffffffffff16908060020180546108e7906113be565b80601f0160208091040260200160405190810160405280929190818152602001828054610913906113be565b80156109605780601f1061093557610100808354040283529160200191610960565b820191906000526020600020905b81548152906001019060200180831161094357829003601f168201915b5050505050905083565b6000600260008473ffffffffffffffffffffffffffffffffffffffff1673ffffffffffffffffffffffffffffffffffffffff1681526020019081526020016000209050806005018290806001815401808255809150506001900390600052602060002001600090919091909150557faf4bf105b07134ade84774ffbc130ba9a42441545ab51d6865c59ef7d71d75c0838383600501604051610a0e939291906115e4565b60405180910390a1505050565b6000600260008473ffffffffffffffffffffffffffffffffffffffff1673ffffffffffffffffffffffffffffffffffffffff1681526020019081526020016000209050806003018290806001815401808255809150506001900390600052602060002001600090919091909150557f6b2ad7f150794bfc99e3013370f5564e4e0485b5b65ca0f4d9d9ce300070d273838383600301604051610abf939291906115e4565b60405180910390a1505050565b6060600080600260008573ffffffffffffffffffffffffffffffffffffffff1673ffffffffffffffffffffffffffffffffffffffff1681526020019081526020016000209050600081600401805480602002602001604051908101604052809291908181526020018280548015610b6257602002820191906000526020600020905b815481526020019060010190808311610b4e575b50505050509050808151935093505050915091565b6000600260008573ffffffffffffffffffffffffffffffffffffffff1673ffffffffffffffffffffffffffffffffffffffff16815260200190815260200160002090506001821415610bf35780600401839080600181540180825580915050600190039060005260206000200160009091909190915055610d54565b6002821415610d53576000805b8260040180549050811015610c5257826004018181548110610c2557610c24611622565b5b9060005260206000200154851415610c3f57809150610c52565b8080610c4a9061141f565b915050610c00565b506000811415610ca1577f18fc6bf4e6adb359b6b7456f354c22287834a11391d70d8ff30b7004212af1e7858584600401604051610c92939291906115e4565b60405180910390a15050610d94565b60008190505b60018360040180549050610cbb9190611651565b811015610d265782600401600182610cd39190611685565b81548110610ce457610ce3611622565b5b9060005260206000200154836004018281548110610d0557610d04611622565b5b90600052602060002001819055508080610d1e9061141f565b915050610ca7565b5081600401805480610d3b57610d3a6116db565b5b60019003818190600052602060002001600090559055505b5b7f18fc6bf4e6adb359b6b7456f354c22287834a11391d70d8ff30b7004212af1e7848483600401604051610d8a939291906115e4565b60405180910390a1505b505050565b828054610da5906113be565b90600052602060002090601f016020900481019282610dc75760008555610e0e565b82601f10610de057805160ff1916838001178555610e0e565b82800160010185558215610e0e579182015b82811115610e0d578251825591602001919060010190610df2565b5b509050610e1b9190610e6c565b5090565b828054828255906000526020600020908101928215610e5b579160200282015b82811115610e5a578251825591602001919060010190610e3f565b5b509050610e689190610e6c565b5090565b5b80821115610e85576000816000905550600101610e6d565b5090565b600081519050919050565b600082825260208201905092915050565b60005b83811015610ec3578082015181840152602081019050610ea8565b83811115610ed2576000848401525b50505050565b6000601f19601f8301169050919050565b6000610ef482610e89565b610efe8185610e94565b9350610f0e818560208601610ea5565b610f1781610ed8565b840191505092915050565b60006020820190508181036000830152610f3c8184610ee9565b905092915050565b6000604051905090565b600080fd5b600080fd5b600073ffffffffffffffffffffffffffffffffffffffff82169050919050565b6000610f8382610f58565b9050919050565b610f9381610f78565b8114610f9e57600080fd5b50565b600081359050610fb081610f8a565b92915050565b600060208284031215610fcc57610fcb610f4e565b5b6000610fda84828501610fa1565b91505092915050565b600081519050919050565b600082825260208201905092915050565b6000819050602082019050919050565b6000819050919050565b6110228161100f565b82525050565b60006110348383611019565b60208301905092915050565b6000602082019050919050565b600061105882610fe3565b6110628185610fee565b935061106d83610fff565b8060005b8381101561109e5781516110858882611028565b975061109083611040565b925050600181019050611071565b5085935050505092915050565b6110b48161100f565b82525050565b600060408201905081810360008301526110d4818561104d565b90506110e360208301846110ab565b9392505050565b600080fd5b600080fd5b7f4e487b7100000000000000000000000000000000000000000000000000000000600052604160045260246000fd5b61112c82610ed8565b810181811067ffffffffffffffff8211171561114b5761114a6110f4565b5b80604052505050565b600061115e610f44565b905061116a8282611123565b919050565b600067ffffffffffffffff82111561118a576111896110f4565b5b61119382610ed8565b9050602081019050919050565b82818337600083830152505050565b60006111c26111bd8461116f565b611154565b9050828152602081018484840111156111de576111dd6110ef565b5b6111e98482856111a0565b509392505050565b600082601f830112611206576112056110ea565b5b81356112168482602086016111af565b91505092915050565b60006020828403121561123557611234610f4e565b5b600082013567ffffffffffffffff81111561125357611252610f53565b5b61125f848285016111f1565b91505092915050565b600060208201905061127d60008301846110ab565b92915050565b61128c81610f78565b82525050565b60006060820190506112a760008301866110ab565b6112b46020830185611283565b81810360408301526112c68184610ee9565b9050949350505050565b6112d98161100f565b81146112e457600080fd5b50565b6000813590506112f6816112d0565b92915050565b6000806040838503121561131357611312610f4e565b5b600061132185828601610fa1565b9250506020611332858286016112e7565b9150509250929050565b60008060006060848603121561135557611354610f4e565b5b600061136386828701610fa1565b9350506020611374868287016112e7565b9250506040611385868287016112e7565b9150509250925092565b7f4e487b7100000000000000000000000000000000000000000000000000000000600052602260045260246000fd5b600060028204905060018216806113d657607f821691505b602082108114156113ea576113e961138f565b5b50919050565b7f4e487b7100000000000000000000000000000000000000000000000000000000600052601160045260246000fd5b600061142a8261100f565b91507fffffffffffffffffffffffffffffffffffffffffffffffffffffffffffffffff82141561145d5761145c6113f0565b5b600182019050919050565b600060c08201905061147d60008301896110ab565b61148a6020830188611283565b818103604083015261149c8187610ee9565b905081810360608301526114b0818661104d565b905081810360808301526114c4818561104d565b905081810360a08301526114d8818461104d565b9050979650505050505050565b60006040820190506114fa6000830185611283565b61150760208301846110ab565b9392505050565b600081549050919050565b60008190508160005260206000209050919050565b60008160001c9050919050565b6000819050919050565b60006115586115538361152e565b61153b565b9050919050565b600061156b8254611545565b9050919050565b6000600182019050919050565b600061158a8261150e565b6115948185610fee565b935061159f83611519565b8060005b838110156115d7576115b48261155f565b6115be8882611028565b97506115c983611572565b9250506001810190506115a3565b5085935050505092915050565b60006060820190506115f96000830186611283565b61160660208301856110ab565b8181036040830152611618818461157f565b9050949350505050565b7f4e487b7100000000000000000000000000000000000000000000000000000000600052603260045260246000fd5b600061165c8261100f565b91506116678361100f565b92508282101561167a576116796113f0565b5b828203905092915050565b60006116908261100f565b915061169b8361100f565b9250827fffffffffffffffffffffffffffffffffffffffffffffffffffffffffffffffff038211156116d0576116cf6113f0565b5b828201905092915050565b7f4e487b7100000000000000000000000000000000000000000000000000000000600052603160045260246000fdfea2646970667358221220b548fc342af71c66090a950d0e884158e0f77041d45bc91970892aa56daad32b64736f6c63430008090033",
  "immutableReferences": {},
  "source": "// SPDX-License-Identifier: Apache-2.0\r\npragma solidity ^0.8.0;\r\n\r\n\r\ncontract Account {\r\n    \r\n    string public name = \"Account\";\r\n    uint public usersCount = 0;\r\n\r\n    struct User {\r\n        uint id; // User ID\r\n        address owner; // User Account Address\r\n        string centralDBID; // UserID of MongoDB\r\n        uint[] transactions; // transactions realted to user \r\n        uint[] ownedAssets; // list of asset ids owned by user\r\n        uint[] createdAssets; // list of asset ids created by user\r\n    }\r\n\r\n    mapping(address => User) public Users;\r\n\r\n    event UserCreated(\r\n        uint id,\r\n        address owner,\r\n        string centralDBID,\r\n        uint[] transactions,\r\n        uint[] ownedAssets,\r\n        uint[] createdAssets\r\n    );\r\n\r\n    event PaymentReceived(\r\n        address receiver,\r\n        uint amount\r\n    );\r\n\r\n    event TransactionsUpdated(\r\n        address owner,\r\n        uint transactionId,\r\n        uint[] transactions\r\n    );\r\n\r\n    event OwnedAssetsUpdated(\r\n        address owner,\r\n        uint assetId,\r\n        uint[] ownedAssets\r\n    );\r\n\r\n    event CreatedAssetsUpdated(\r\n        address owner,\r\n        uint assetId,\r\n        uint[] createdAssets\r\n    );\r\n\r\n    function getAccountCreatedAssets(address _userAccountAddress) public view returns(uint[] memory, uint) {\r\n\r\n        User storage user = Users[_userAccountAddress];\r\n        uint[] memory createdAssets = user.createdAssets;\r\n        return (createdAssets, createdAssets.length);\r\n    }\r\n\r\n    function getAccountOwnedAssets(address _userAccountAddress) public view returns(uint[] memory, uint) {\r\n\r\n        User storage user = Users[_userAccountAddress];\r\n        uint[] memory ownedAssets = user.ownedAssets;\r\n        return (ownedAssets, ownedAssets.length);\r\n    }\r\n\r\n    function getAccountTransactions(address _userAccountAddress) public view returns(uint[] memory, uint) {\r\n\r\n        User storage user = Users[_userAccountAddress];\r\n        uint[] memory transactions = user.transactions;\r\n        return (transactions, transactions.length);\r\n    }\r\n\r\n    function createAccount(string memory _centralDBID) public {\r\n\r\n        require(bytes(_centralDBID).length > 0);\r\n\r\n        usersCount++;\r\n\r\n        Users[msg.sender] =  User(usersCount, msg.sender, _centralDBID, new uint[](0), new uint[](0), new uint[](0));\r\n\r\n        emit UserCreated(usersCount, msg.sender, _centralDBID, new uint[](0), new uint[](0), new uint[](0));\r\n    }\r\n\r\n    function updateAccountTransactions(address _userAccountAddress, uint _transactionId) public {\r\n\r\n        User storage user = Users[_userAccountAddress];\r\n\r\n        user.transactions.push(_transactionId);\r\n\r\n        emit TransactionsUpdated(_userAccountAddress, _transactionId, user.transactions);\r\n    }\r\n\r\n    function updateAccountCreatedAssets(address _userAccountAddress, uint _assetId) public {\r\n\r\n        User storage user = Users[_userAccountAddress];\r\n\r\n        user.createdAssets.push(_assetId);\r\n\r\n        emit CreatedAssetsUpdated(_userAccountAddress, _assetId, user.createdAssets);\r\n    }\r\n\r\n    function updateAccountOwnedAssets(address _userAccountAddress, uint _assetId, uint _opType) public {\r\n\r\n        User storage user = Users[_userAccountAddress];\r\n\r\n        if(_opType == 1){\r\n            user.ownedAssets.push(_assetId);\r\n        }\r\n        else if(_opType == 2){\r\n\r\n            uint _assetPos = 0;\r\n\r\n            // Finding position for required assetid in array\r\n            for(uint i=0;i<user.ownedAssets.length;i++){\r\n\r\n                if(_assetId == user.ownedAssets[i]){\r\n                    _assetPos = i;\r\n                    break;\r\n                }\r\n            }\r\n\r\n            if(_assetPos == 0){\r\n                emit OwnedAssetsUpdated(_userAccountAddress, _assetId, user.ownedAssets);\r\n                return;\r\n            }\r\n            \r\n\r\n            // Shifting elements to maintain the order after deletion.\r\n            for(uint i=_assetPos;i<user.ownedAssets.length-1;i++){\r\n                user.ownedAssets[i] = user.ownedAssets[i+1];\r\n            }\r\n\r\n            user.ownedAssets.pop();\r\n        }\r\n\r\n        emit OwnedAssetsUpdated(_userAccountAddress, _assetId, user.ownedAssets);\r\n    }\r\n\r\n    function receivePayment(address _receiverAccountAddress) public payable {\r\n\r\n        require(msg.value > 0);\r\n\r\n        payable(_receiverAccountAddress).transfer(msg.value);\r\n\r\n        emit PaymentReceived(_receiverAccountAddress, msg.value);\r\n    }\r\n}",
  "sourcePath": "C:\\Users\\hp\\Desktop\\projects\\Encheres\\Frontend_New\\Encheres_Frontend\\src\\contracts\\Accounts.sol",
  "compiler": {
    "name": "solc",
    "version": "0.8.9+commit.e5eed63a.Emscripten.clang"
  },
  "schemaVersion": "3.4.3",
  "updatedAt": "2021-10-31T09:38:22.775Z",
  "networkType": "ethereum",
  "devdoc": {
    "kind": "dev",
    "methods": {},
    "version": 1
  },
  "userdoc": {
    "kind": "user",
    "methods": {},
    "version": 1
  }
}