{
  "contractName": "Auctions",
  "abi": [
    {
      "anonymous": false,
      "inputs": [
        {
          "indexed": false,
          "internalType": "uint256",
          "name": "nftId",
          "type": "uint256"
        },
        {
          "indexed": false,
          "internalType": "uint256",
          "name": "ownerId",
          "type": "uint256"
        },
        {
          "indexed": false,
          "internalType": "uint256",
          "name": "auctionEndTime",
          "type": "uint256"
        },
        {
          "indexed": false,
          "internalType": "uint256",
          "name": "auctionStartPrice",
          "type": "uint256"
        }
      ],
      "name": "auctionCreated",
      "type": "event"
    },
    {
      "anonymous": false,
      "inputs": [
        {
          "indexed": false,
          "internalType": "uint256",
          "name": "nftId",
          "type": "uint256"
        },
        {
          "indexed": false,
          "internalType": "uint256",
          "name": "auctionCurrentBidder",
          "type": "uint256"
        },
        {
          "indexed": false,
          "internalType": "uint256",
          "name": "auctionCurrentBid",
          "type": "uint256"
        }
      ],
      "name": "auctionEnded",
      "type": "event"
    },
    {
      "anonymous": false,
      "inputs": [
        {
          "indexed": false,
          "internalType": "uint256",
          "name": "nftId",
          "type": "uint256"
        },
        {
          "indexed": false,
          "internalType": "uint256",
          "name": "auctionCurrentBidder",
          "type": "uint256"
        },
        {
          "indexed": false,
          "internalType": "uint256",
          "name": "auctionCurrentBid",
          "type": "uint256"
        }
      ],
      "name": "bidCreated",
      "type": "event"
    },
    {
      "inputs": [
        {
          "internalType": "uint256",
          "name": "",
          "type": "uint256"
        }
      ],
      "name": "auctionMap",
      "outputs": [
        {
          "internalType": "address payable",
          "name": "ownerAccount",
          "type": "address"
        },
        {
          "internalType": "uint256",
          "name": "ownerId",
          "type": "uint256"
        },
        {
          "internalType": "uint256",
          "name": "auctionEndTime",
          "type": "uint256"
        },
        {
          "internalType": "uint256",
          "name": "auctionStartPrice",
          "type": "uint256"
        },
        {
          "internalType": "uint256",
          "name": "auctionCurrentBidder",
          "type": "uint256"
        },
        {
          "internalType": "uint256",
          "name": "auctionCurrentBid",
          "type": "uint256"
        },
        {
          "internalType": "address payable",
          "name": "auctionBuyer",
          "type": "address"
        },
        {
          "internalType": "bool",
          "name": "auctionEnded",
          "type": "bool"
        },
        {
          "internalType": "bool",
          "name": "bidStarted",
          "type": "bool"
        }
      ],
      "stateMutability": "view",
      "type": "function"
    },
    {
      "inputs": [
        {
          "internalType": "uint256",
          "name": "",
          "type": "uint256"
        }
      ],
      "name": "keyManagerMap",
      "outputs": [
        {
          "internalType": "uint256",
          "name": "nft_key_Id",
          "type": "uint256"
        }
      ],
      "stateMutability": "view",
      "type": "function"
    },
    {
      "inputs": [],
      "name": "keysCount",
      "outputs": [
        {
          "internalType": "uint256",
          "name": "",
          "type": "uint256"
        }
      ],
      "stateMutability": "view",
      "type": "function"
    },
    {
      "inputs": [
        {
          "internalType": "uint256",
          "name": "_nftId",
          "type": "uint256"
        },
        {
          "internalType": "address payable",
          "name": "_ownerAccount",
          "type": "address"
        },
        {
          "internalType": "uint256",
          "name": "_ownerId",
          "type": "uint256"
        },
        {
          "internalType": "uint256",
          "name": "_auctionEndTime",
          "type": "uint256"
        },
        {
          "internalType": "uint256",
          "name": "_auctionStartPrice",
          "type": "uint256"
        }
      ],
      "name": "CreateAuction",
      "outputs": [],
      "stateMutability": "payable",
      "type": "function"
    },
    {
      "inputs": [
        {
          "internalType": "uint256",
          "name": "_nftId",
          "type": "uint256"
        },
        {
          "internalType": "uint256",
          "name": "_auctionCurrentBid",
          "type": "uint256"
        },
        {
          "internalType": "uint256",
          "name": "_auctionCurrentBidder",
          "type": "uint256"
        },
        {
          "internalType": "address payable",
          "name": "_auctionBuyer",
          "type": "address"
        }
      ],
      "name": "BidAuction",
      "outputs": [],
      "stateMutability": "nonpayable",
      "type": "function"
    },
    {
      "inputs": [
        {
          "internalType": "uint256",
          "name": "_nftId",
          "type": "uint256"
        }
      ],
      "name": "EndAuction",
      "outputs": [],
      "stateMutability": "nonpayable",
      "type": "function"
    },
    {
      "inputs": [
        {
          "internalType": "uint256",
          "name": "_nftId",
          "type": "uint256"
        }
      ],
      "name": "GetAuctionDetails",
      "outputs": [
        {
          "internalType": "address payable",
          "name": "",
          "type": "address"
        },
        {
          "internalType": "uint256",
          "name": "",
          "type": "uint256"
        },
        {
          "internalType": "uint256",
          "name": "",
          "type": "uint256"
        },
        {
          "internalType": "uint256",
          "name": "",
          "type": "uint256"
        },
        {
          "internalType": "uint256",
          "name": "",
          "type": "uint256"
        },
        {
          "internalType": "bool",
          "name": "",
          "type": "bool"
        },
        {
          "internalType": "bool",
          "name": "",
          "type": "bool"
        }
      ],
      "stateMutability": "view",
      "type": "function"
    },
    {
      "inputs": [],
      "name": "GetAvaliableAuctionsList",
      "outputs": [
        {
          "internalType": "uint256[]",
          "name": "",
          "type": "uint256[]"
        }
      ],
      "stateMutability": "view",
      "type": "function"
    }
  ],
  "bytecode": "0x60806040526000805534801561001457600080fd5b50611ad2806100246000396000f3fe60806040526004361061007b5760003560e01c8063d92623a31161004e578063d92623a31461012b578063e4f627fe14610170578063e7ecafc21461019b578063f6a7127e146101c65761007b565b80630193824c1461008057806336f608c7146100a95780634982ae51146100e6578063b680baeb1461010f575b600080fd5b34801561008c57600080fd5b506100a760048036038101906100a2919061102c565b610209565b005b3480156100b557600080fd5b506100d060048036038101906100cb9190611093565b61066c565b6040516100dd91906110cf565b60405180910390f35b3480156100f257600080fd5b5061010d60048036038101906101089190611093565b61068a565b005b610129600480360381019061012491906110ea565b6109fe565b005b34801561013757600080fd5b50610152600480360381019061014d9190611093565b610cae565b6040516101679998979695949392919061118f565b60405180910390f35b34801561017c57600080fd5b50610185610d56565b60405161019291906110cf565b60405180910390f35b3480156101a757600080fd5b506101b0610d5c565b6040516101bd91906112da565b60405180910390f35b3480156101d257600080fd5b506101ed60048036038101906101e89190611093565b610e51565b60405161020097969594939291906112fc565b60405180910390f35b600084101561024d576040517f08c379a0000000000000000000000000000000000000000000000000000000008152600401610244906113c8565b60405180910390fd5b60008311610290576040517f08c379a000000000000000000000000000000000000000000000000000000000815260040161028790611434565b60405180910390fd5b60008210156102d4576040517f08c379a00000000000000000000000000000000000000000000000000000000081526004016102cb906114a0565b60405180910390fd5b600073ffffffffffffffffffffffffffffffffffffffff168173ffffffffffffffffffffffffffffffffffffffff161415610344576040517f08c379a000000000000000000000000000000000000000000000000000000000815260040161033b9061150c565b60405180910390fd5b600015156002600086815260200190815260200160002060060160149054906101000a900460ff161515146103ae576040517f08c379a00000000000000000000000000000000000000000000000000000000081526004016103a590611578565b60405180910390fd5b6002600085815260200190815260200160002060020154421115610407576040517f08c379a00000000000000000000000000000000000000000000000000000000081526004016103fe90611578565b60405180910390fd5b6002600085815260200190815260200160002060060160159054906101000a900460ff166104ee57826002600086815260200190815260200160002060050181905550816002600086815260200190815260200160002060040181905550806002600086815260200190815260200160002060060160006101000a81548173ffffffffffffffffffffffffffffffffffffffff021916908373ffffffffffffffffffffffffffffffffffffffff16021790555060016002600086815260200190815260200160002060060160156101000a81548160ff02191690831515021790555061062b565b8160026000868152602001908152602001600020600401541415610547576040517f08c379a000000000000000000000000000000000000000000000000000000000815260040161053e9061160a565b60405180910390fd5b8260026000868152602001908152602001600020600501541061059f576040517f08c379a00000000000000000000000000000000000000000000000000000000081526004016105969061169c565b60405180910390fd5b826002600086815260200190815260200160002060050181905550816002600086815260200190815260200160002060040181905550806002600086815260200190815260200160002060060160006101000a81548173ffffffffffffffffffffffffffffffffffffffff021916908373ffffffffffffffffffffffffffffffffffffffff1602179055505b7fa1bcd0cdba930172ab846c2a40edcd223e4d3c320c34d47a13489d3c240e9b7584838560405161065e939291906116bc565b60405180910390a150505050565b60016020528060005260406000206000915090508060000154905081565b60008110156106ce576040517f08c379a00000000000000000000000000000000000000000000000000000000081526004016106c5906113c8565b60405180910390fd5b600015156002600083815260200190815260200160002060060160149054906101000a900460ff16151514610738576040517f08c379a000000000000000000000000000000000000000000000000000000000815260040161072f9061173f565b60405180910390fd5b4260026000838152602001908152602001600020600201541115610791576040517f08c379a0000000000000000000000000000000000000000000000000000000008152600401610788906117ab565b60405180910390fd5b60016002600083815260200190815260200160002060060160146101000a81548160ff0219169083151502179055506002600082815260200190815260200160002060060160009054906101000a900473ffffffffffffffffffffffffffffffffffffffff1673ffffffffffffffffffffffffffffffffffffffff166108fc60026000848152602001908152602001600020600501549081150290604051600060405180830381858888f19350505050158015610852573d6000803e3d6000fd5b50600260008281526020019081526020016000206004015460026000838152602001908152602001600020600101819055506002600082815260200190815260200160002060060160009054906101000a900473ffffffffffffffffffffffffffffffffffffffff166002600083815260200190815260200160002060000160006101000a81548173ffffffffffffffffffffffffffffffffffffffff021916908373ffffffffffffffffffffffffffffffffffffffff16021790555060006002600083815260200190815260200160002060060160006101000a81548173ffffffffffffffffffffffffffffffffffffffff021916908373ffffffffffffffffffffffffffffffffffffffff16021790555060006002600083815260200190815260200160002060060160156101000a81548160ff0219169083151502179055507f511a8cdcb895c5c63d6305412a35827384c2bf56db44a98095734adb6440b36281600260008481526020019081526020016000206001015460026000858152602001908152602001600020600501546040516109f3939291906116bc565b60405180910390a150565b6000851015610a42576040517f08c379a0000000000000000000000000000000000000000000000000000000008152600401610a3990611817565b60405180910390fd5b428211610a84576040517f08c379a0000000000000000000000000000000000000000000000000000000008152600401610a7b906118a9565b60405180910390fd5b60008111610ac7576040517f08c379a0000000000000000000000000000000000000000000000000000000008152600401610abe90611961565b60405180910390fd5b6000805b600054811015610b0f578660016000838152602001908152602001600020600001541415610afc5760019150610b0f565b8080610b07906119b0565b915050610acb565b5080610b495785600160008054815260200190815260200160002060000181905550600080815480929190610b43906119b0565b91905055505b846002600088815260200190815260200160002060000160006101000a81548173ffffffffffffffffffffffffffffffffffffffff021916908373ffffffffffffffffffffffffffffffffffffffff1602179055508360026000888152602001908152602001600020600101819055508260026000888152602001908152602001600020600201819055508160026000888152602001908152602001600020600301819055506000600260008881526020019081526020016000206005018190555060006002600088815260200190815260200160002060060160156101000a81548160ff02191690831515021790555060006002600088815260200190815260200160002060060160146101000a81548160ff0219169083151502179055507f7452d9ec1a06d886236e3f49c2cce41040cb678611e36fea60d93c9563a3ca6a86858585604051610c9e94939291906119f9565b60405180910390a1505050505050565b60026020528060005260406000206000915090508060000160009054906101000a900473ffffffffffffffffffffffffffffffffffffffff16908060010154908060020154908060030154908060040154908060050154908060060160009054906101000a900473ffffffffffffffffffffffffffffffffffffffff16908060060160149054906101000a900460ff16908060060160159054906101000a900460ff16905089565b60005481565b60606000805467ffffffffffffffff811115610d7b57610d7a611a3e565b5b604051908082528060200260200182016040528015610da95781602001602082028036833780820191505090505b5090506000805b600054811015610e4857600060016000838152602001908152602001600020600001549050600015156002600083815260200190815260200160002060060160149054906101000a900460ff1615151415610e345780848481518110610e1957610e18611a6d565b5b6020026020010181815250508280610e30906119b0565b9350505b508080610e40906119b0565b915050610db0565b50819250505090565b600080600080600080600080881015610e9f576040517f08c379a0000000000000000000000000000000000000000000000000000000008152600401610e96906113c8565b60405180910390fd5b6002600089815260200190815260200160002060000160009054906101000a900473ffffffffffffffffffffffffffffffffffffffff16600260008a815260200190815260200160002060010154600260008b815260200190815260200160002060020154600260008c815260200190815260200160002060030154600260008d815260200190815260200160002060050154600260008e815260200190815260200160002060060160149054906101000a900460ff16600260008f815260200190815260200160002060060160159054906101000a900460ff169650965096509650965096509650919395979092949650565b600080fd5b6000819050919050565b610fab81610f98565b8114610fb657600080fd5b50565b600081359050610fc881610fa2565b92915050565b600073ffffffffffffffffffffffffffffffffffffffff82169050919050565b6000610ff982610fce565b9050919050565b61100981610fee565b811461101457600080fd5b50565b60008135905061102681611000565b92915050565b6000806000806080858703121561104657611045610f93565b5b600061105487828801610fb9565b945050602061106587828801610fb9565b935050604061107687828801610fb9565b925050606061108787828801611017565b91505092959194509250565b6000602082840312156110a9576110a8610f93565b5b60006110b784828501610fb9565b91505092915050565b6110c981610f98565b82525050565b60006020820190506110e460008301846110c0565b92915050565b600080600080600060a0868803121561110657611105610f93565b5b600061111488828901610fb9565b955050602061112588828901611017565b945050604061113688828901610fb9565b935050606061114788828901610fb9565b925050608061115888828901610fb9565b9150509295509295909350565b61116e81610fee565b82525050565b60008115159050919050565b61118981611174565b82525050565b6000610120820190506111a5600083018c611165565b6111b2602083018b6110c0565b6111bf604083018a6110c0565b6111cc60608301896110c0565b6111d960808301886110c0565b6111e660a08301876110c0565b6111f360c0830186611165565b61120060e0830185611180565b61120e610100830184611180565b9a9950505050505050505050565b600081519050919050565b600082825260208201905092915050565b6000819050602082019050919050565b61125181610f98565b82525050565b60006112638383611248565b60208301905092915050565b6000602082019050919050565b60006112878261121c565b6112918185611227565b935061129c83611238565b8060005b838110156112cd5781516112b48882611257565b97506112bf8361126f565b9250506001810190506112a0565b5085935050505092915050565b600060208201905081810360008301526112f4818461127c565b905092915050565b600060e082019050611311600083018a611165565b61131e60208301896110c0565b61132b60408301886110c0565b61133860608301876110c0565b61134560808301866110c0565b61135260a0830185611180565b61135f60c0830184611180565b98975050505050505050565b600082825260208201905092915050565b7f496e76616c6964206e6674496400000000000000000000000000000000000000600082015250565b60006113b2600d8361136b565b91506113bd8261137c565b602082019050919050565b600060208201905081810360008301526113e1816113a5565b9050919050565b7f496e76616c69642062696420616d6f756e740000000000000000000000000000600082015250565b600061141e60128361136b565b9150611429826113e8565b602082019050919050565b6000602082019050818103600083015261144d81611411565b9050919050565b7f496e76616c696420626964646572206964000000000000000000000000000000600082015250565b600061148a60118361136b565b915061149582611454565b602082019050919050565b600060208201905081810360008301526114b98161147d565b9050919050565b7f496e76616c6964206269646465722077616c6c65742061646472657373000000600082015250565b60006114f6601d8361136b565b9150611501826114c0565b602082019050919050565b60006020820190508181036000830152611525816114e9565b9050919050565b7f41756374696f6e2068617320656e646564000000000000000000000000000000600082015250565b600061156260118361136b565b915061156d8261152c565b602082019050919050565b6000602082019050818103600083015261159181611555565b9050919050565b7f596f752061726520616c7265616479207468652068696768657374206269646460008201527f6572000000000000000000000000000000000000000000000000000000000000602082015250565b60006115f460228361136b565b91506115ff82611598565b604082019050919050565b60006020820190508181036000830152611623816115e7565b9050919050565b7f596f757220626964206973206c6f776572207468616e2074686520637572726560008201527f6e74206269640000000000000000000000000000000000000000000000000000602082015250565b600061168660268361136b565b91506116918261162a565b604082019050919050565b600060208201905081810360008301526116b581611679565b9050919050565b60006060820190506116d160008301866110c0565b6116de60208301856110c0565b6116eb60408301846110c0565b949350505050565b7f41756374696f6e2068617320616c726561647920656e64656400000000000000600082015250565b600061172960198361136b565b9150611734826116f3565b602082019050919050565b600060208201905081810360008301526117588161171c565b9050919050565b7f41756374696f6e20686173206e6f7420656e6465642079657400000000000000600082015250565b600061179560198361136b565b91506117a08261175f565b602082019050919050565b600060208201905081810360008301526117c481611788565b9050919050565b7f496e76616c6964204e4654204944000000000000000000000000000000000000600082015250565b6000611801600e8361136b565b915061180c826117cb565b602082019050919050565b60006020820190508181036000830152611830816117f4565b9050919050565b7f496e76616c69642061756374696f6e20656e6474696d652e20596f757220617560008201527f6374696f6e206d75737420656e6420696e206675747572650000000000000000602082015250565b600061189360388361136b565b915061189e82611837565b604082019050919050565b600060208201905081810360008301526118c281611886565b9050919050565b7f496e76616c69642061756374696f6e2073746172742070726963652e20596f7560008201527f722061756374696f6e206d7573742073746172742077697468206120706f736960208201527f7469766520707269636500000000000000000000000000000000000000000000604082015250565b600061194b604a8361136b565b9150611956826118c9565b606082019050919050565b6000602082019050818103600083015261197a8161193e565b9050919050565b7f4e487b7100000000000000000000000000000000000000000000000000000000600052601160045260246000fd5b60006119bb82610f98565b91507fffffffffffffffffffffffffffffffffffffffffffffffffffffffffffffffff8214156119ee576119ed611981565b5b600182019050919050565b6000608082019050611a0e60008301876110c0565b611a1b60208301866110c0565b611a2860408301856110c0565b611a3560608301846110c0565b95945050505050565b7f4e487b7100000000000000000000000000000000000000000000000000000000600052604160045260246000fd5b7f4e487b7100000000000000000000000000000000000000000000000000000000600052603260045260246000fdfea2646970667358221220c16086255072a5686b6694bd54922b37418e4b1e9758b0ddd0d5ce05daffddfc64736f6c63430008090033",
  "immutableReferences": {},
  "source": "// SPDX-License-Identifier: Apache-2.0\r\npragma solidity ^0.8.0;\r\n\r\ncontract Auctions{\r\n    // for each nft item uploaded by user, we will create an auction\r\n    uint public keysCount = 0;\r\n\r\n    struct keyManager{\r\n        uint nft_key_Id;\r\n    }\r\n\r\n    mapping(uint => keyManager) public keyManagerMap;\r\n\r\n\r\n    struct Auction{\r\n        // auction Owner Details\r\n        address payable ownerAccount;\r\n        uint ownerId;\r\n        \r\n        // auction details\r\n        uint auctionEndTime;\r\n        uint auctionStartPrice; // initial price set by user.\r\n        uint auctionCurrentBidder; // current highest bidder id\r\n        uint auctionCurrentBid; // current highest bid\r\n        address payable auctionBuyer; // wallet address of current highest bidder\r\n        \r\n        // helper variables\r\n        bool auctionEnded;\r\n        bool bidStarted;\r\n    }\r\n    // mapping of nft id to auction\r\n    mapping(uint => Auction) public auctionMap;\r\n\r\n    event auctionCreated(\r\n        uint nftId,\r\n        uint ownerId,\r\n        uint auctionEndTime,\r\n        uint auctionStartPrice\r\n    );\r\n\r\n    event bidCreated(\r\n        uint nftId,\r\n        uint auctionCurrentBidder,\r\n        uint auctionCurrentBid\r\n    );\r\n\r\n    event auctionEnded(\r\n        uint nftId,\r\n        uint auctionCurrentBidder,\r\n        uint auctionCurrentBid\r\n    );\r\n\r\n    function CreateAuction(uint _nftId, address payable _ownerAccount, uint _ownerId, uint _auctionEndTime, uint _auctionStartPrice) public payable{\r\n        require(_nftId >= 0, \"Invalid NFT ID\");\r\n        require(_auctionEndTime > block.timestamp, \"Invalid auction endtime. Your auction must end in future\"); //  block.timestamp is a substitute for now/ current time\r\n        require(_auctionStartPrice > 0, \"Invalid auction start price. Your auction must start with a positive price\");\r\n        bool isIdPresent = false;\r\n        for(uint i = 0; i < keysCount; i++){\r\n            if(keyManagerMap[i].nft_key_Id == _nftId){\r\n                isIdPresent = true;\r\n                break;\r\n            }\r\n        }\r\n        if(!isIdPresent){\r\n            keyManagerMap[keysCount].nft_key_Id = _nftId;\r\n            keysCount++;\r\n        }\r\n\r\n        auctionMap[_nftId].ownerAccount = _ownerAccount; // owner's account address\r\n        auctionMap[_nftId].ownerId = _ownerId; // owner's account id\r\n        auctionMap[_nftId].auctionEndTime = _auctionEndTime;\r\n        auctionMap[_nftId].auctionStartPrice = _auctionStartPrice;\r\n        auctionMap[_nftId].auctionCurrentBid = 0;\r\n        auctionMap[_nftId].bidStarted = false;\r\n        auctionMap[_nftId].auctionEnded = false;\r\n        emit auctionCreated(_nftId, _ownerId, _auctionEndTime, _auctionStartPrice);\r\n    }\r\n\r\n    function BidAuction(uint _nftId, uint _auctionCurrentBid, uint _auctionCurrentBidder, address payable _auctionBuyer) public{\r\n        require(_nftId >= 0, \"Invalid nftId\");\r\n        require(_auctionCurrentBid > 0, \"Invalid bid amount\");\r\n        require(_auctionCurrentBidder >= 0, \"Invalid bidder id\");\r\n        require(_auctionBuyer != address(0), \"Invalid bidder wallet address\"); // address(0) is a substitute for null address\r\n        require(auctionMap[_nftId].auctionEnded == false, \"Auction has ended\");\r\n        require(block.timestamp<=auctionMap[_nftId].auctionEndTime, \"Auction has ended\");\r\n\r\n        if(!auctionMap[_nftId].bidStarted){\r\n            auctionMap[_nftId].auctionCurrentBid = _auctionCurrentBid;\r\n            auctionMap[_nftId].auctionCurrentBidder = _auctionCurrentBidder;\r\n            auctionMap[_nftId].auctionBuyer = _auctionBuyer;\r\n            auctionMap[_nftId].bidStarted = true;\r\n        }\r\n        else{\r\n            require(auctionMap[_nftId].auctionCurrentBidder != _auctionCurrentBidder, \"You are already the highest bidder\");\r\n            require(auctionMap[_nftId].auctionCurrentBid < _auctionCurrentBid, \"Your bid is lower than the current bid\");\r\n            auctionMap[_nftId].auctionCurrentBid = _auctionCurrentBid;\r\n            auctionMap[_nftId].auctionCurrentBidder = _auctionCurrentBidder;\r\n            auctionMap[_nftId].auctionBuyer = _auctionBuyer;\r\n        }\r\n        emit bidCreated(_nftId, _auctionCurrentBidder, _auctionCurrentBid);\r\n    }\r\n\r\n    function EndAuction(uint _nftId) public{\r\n        require(_nftId >= 0, \"Invalid nftId\");\r\n        require(auctionMap[_nftId].auctionEnded == false, \"Auction has already ended\");\r\n        require(auctionMap[_nftId].auctionEndTime <= block.timestamp, \"Auction has not ended yet\");\r\n        auctionMap[_nftId].auctionEnded = true;\r\n        auctionMap[_nftId].auctionBuyer.transfer(auctionMap[_nftId].auctionCurrentBid); // transfer the highest bid amount to the auction buyer\r\n        auctionMap[_nftId].ownerId = auctionMap[_nftId].auctionCurrentBidder; // update the owner id to the highest bidder id\r\n        auctionMap[_nftId].ownerAccount = auctionMap[_nftId].auctionBuyer; // update the owner account to the highest bidder wallet address\r\n        auctionMap[_nftId].auctionBuyer = payable(address(0)); // set the auction buyer to null address\r\n        auctionMap[_nftId].bidStarted = false;\r\n        emit auctionEnded(_nftId, auctionMap[_nftId].ownerId, auctionMap[_nftId].auctionCurrentBid);\r\n    }\r\n\r\n    function GetAuctionDetails(uint _nftId) public view returns(address payable, uint, uint, uint, uint, bool, bool){\r\n        require(_nftId >= 0, \"Invalid nftId\");\r\n        return (auctionMap[_nftId].ownerAccount, auctionMap[_nftId].ownerId, auctionMap[_nftId].auctionEndTime, auctionMap[_nftId].auctionStartPrice, auctionMap[_nftId].auctionCurrentBid, auctionMap[_nftId].auctionEnded, auctionMap[_nftId].bidStarted);\r\n    }\r\n\r\n    function GetAvaliableAuctionsList() public view returns(uint[] memory){\r\n        uint[] memory avaliableAuctions = new uint[](keysCount);\r\n        uint index = 0;\r\n        for(uint i = 0; i < keysCount; i++){\r\n            uint nft_Id = keyManagerMap[i].nft_key_Id;\r\n            if(auctionMap[nft_Id].auctionEnded == false){\r\n                avaliableAuctions[index] = nft_Id;\r\n                index++;\r\n            }\r\n        }\r\n        return avaliableAuctions;\r\n    }\r\n\r\n}\r\n",
  "sourcePath": "C:\\Users\\hp\\Desktop\\projects\\Encheres\\Frontend_New\\Encheres_Frontend\\src\\contracts\\Auctions.sol",
  "compiler": {
    "name": "solc",
    "version": "0.8.9+commit.e5eed63a.Emscripten.clang"
  },
  "schemaVersion": "3.4.3",
  "updatedAt": "2021-10-31T09:38:14.724Z",
  "devdoc": {
    "kind": "dev",
    "methods": {},
    "version": 1
  },
  "userdoc": {
    "kind": "user",
    "methods": {},
    "version": 1
  }
}