{
  "contractName": "NftAsset",
  "abi": [
    {
      "inputs": [],
      "stateMutability": "nonpayable",
      "type": "constructor"
    },
    {
      "anonymous": false,
      "inputs": [
        {
          "indexed": true,
          "internalType": "address",
          "name": "owner",
          "type": "address"
        },
        {
          "indexed": true,
          "internalType": "address",
          "name": "approved",
          "type": "address"
        },
        {
          "indexed": true,
          "internalType": "uint256",
          "name": "tokenId",
          "type": "uint256"
        }
      ],
      "name": "Approval",
      "type": "event"
    },
    {
      "anonymous": false,
      "inputs": [
        {
          "indexed": true,
          "internalType": "address",
          "name": "owner",
          "type": "address"
        },
        {
          "indexed": true,
          "internalType": "address",
          "name": "operator",
          "type": "address"
        },
        {
          "indexed": false,
          "internalType": "bool",
          "name": "approved",
          "type": "bool"
        }
      ],
      "name": "ApprovalForAll",
      "type": "event"
    },
    {
      "anonymous": false,
      "inputs": [
        {
          "indexed": false,
          "internalType": "uint256",
          "name": "tokenId",
          "type": "uint256"
        },
        {
          "indexed": false,
          "internalType": "address",
          "name": "creator",
          "type": "address"
        },
        {
          "indexed": false,
          "internalType": "string",
          "name": "assetFileHash",
          "type": "string"
        },
        {
          "indexed": false,
          "internalType": "string",
          "name": "name",
          "type": "string"
        },
        {
          "indexed": false,
          "internalType": "string",
          "name": "description",
          "type": "string"
        },
        {
          "indexed": false,
          "internalType": "uint256[]",
          "name": "categories",
          "type": "uint256[]"
        },
        {
          "indexed": false,
          "internalType": "string",
          "name": "royality",
          "type": "string"
        }
      ],
      "name": "NftAssetMinted",
      "type": "event"
    },
    {
      "anonymous": false,
      "inputs": [
        {
          "indexed": false,
          "internalType": "address",
          "name": "from",
          "type": "address"
        },
        {
          "indexed": false,
          "internalType": "address",
          "name": "to",
          "type": "address"
        },
        {
          "indexed": false,
          "internalType": "uint256",
          "name": "tokenId",
          "type": "uint256"
        }
      ],
      "name": "OwnershipTransfered",
      "type": "event"
    },
    {
      "anonymous": false,
      "inputs": [
        {
          "indexed": true,
          "internalType": "address",
          "name": "from",
          "type": "address"
        },
        {
          "indexed": true,
          "internalType": "address",
          "name": "to",
          "type": "address"
        },
        {
          "indexed": true,
          "internalType": "uint256",
          "name": "tokenId",
          "type": "uint256"
        }
      ],
      "name": "Transfer",
      "type": "event"
    },
    {
      "inputs": [
        {
          "internalType": "address",
          "name": "to",
          "type": "address"
        },
        {
          "internalType": "uint256",
          "name": "tokenId",
          "type": "uint256"
        }
      ],
      "name": "approve",
      "outputs": [],
      "stateMutability": "nonpayable",
      "type": "function"
    },
    {
      "inputs": [
        {
          "internalType": "uint256",
          "name": "",
          "type": "uint256"
        }
      ],
      "name": "assets",
      "outputs": [
        {
          "internalType": "uint256",
          "name": "tokenId",
          "type": "uint256"
        },
        {
          "internalType": "address",
          "name": "creator",
          "type": "address"
        },
        {
          "internalType": "string",
          "name": "assetFileHash",
          "type": "string"
        },
        {
          "internalType": "string",
          "name": "name",
          "type": "string"
        },
        {
          "internalType": "string",
          "name": "description",
          "type": "string"
        },
        {
          "internalType": "string",
          "name": "royality",
          "type": "string"
        }
      ],
      "stateMutability": "view",
      "type": "function",
      "constant": true
    },
    {
      "inputs": [],
      "name": "assetsCount",
      "outputs": [
        {
          "internalType": "uint256",
          "name": "",
          "type": "uint256"
        }
      ],
      "stateMutability": "view",
      "type": "function",
      "constant": true
    },
    {
      "inputs": [
        {
          "internalType": "address",
          "name": "owner",
          "type": "address"
        }
      ],
      "name": "balanceOf",
      "outputs": [
        {
          "internalType": "uint256",
          "name": "",
          "type": "uint256"
        }
      ],
      "stateMutability": "view",
      "type": "function",
      "constant": true
    },
    {
      "inputs": [
        {
          "internalType": "uint256",
          "name": "tokenId",
          "type": "uint256"
        }
      ],
      "name": "getApproved",
      "outputs": [
        {
          "internalType": "address",
          "name": "",
          "type": "address"
        }
      ],
      "stateMutability": "view",
      "type": "function",
      "constant": true
    },
    {
      "inputs": [
        {
          "internalType": "address",
          "name": "owner",
          "type": "address"
        },
        {
          "internalType": "address",
          "name": "operator",
          "type": "address"
        }
      ],
      "name": "isApprovedForAll",
      "outputs": [
        {
          "internalType": "bool",
          "name": "",
          "type": "bool"
        }
      ],
      "stateMutability": "view",
      "type": "function",
      "constant": true
    },
    {
      "inputs": [],
      "name": "name",
      "outputs": [
        {
          "internalType": "string",
          "name": "",
          "type": "string"
        }
      ],
      "stateMutability": "view",
      "type": "function",
      "constant": true
    },
    {
      "inputs": [
        {
          "internalType": "uint256",
          "name": "tokenId",
          "type": "uint256"
        }
      ],
      "name": "ownerOf",
      "outputs": [
        {
          "internalType": "address",
          "name": "",
          "type": "address"
        }
      ],
      "stateMutability": "view",
      "type": "function",
      "constant": true
    },
    {
      "inputs": [
        {
          "internalType": "address",
          "name": "from",
          "type": "address"
        },
        {
          "internalType": "address",
          "name": "to",
          "type": "address"
        },
        {
          "internalType": "uint256",
          "name": "tokenId",
          "type": "uint256"
        }
      ],
      "name": "safeTransferFrom",
      "outputs": [],
      "stateMutability": "nonpayable",
      "type": "function"
    },
    {
      "inputs": [
        {
          "internalType": "address",
          "name": "from",
          "type": "address"
        },
        {
          "internalType": "address",
          "name": "to",
          "type": "address"
        },
        {
          "internalType": "uint256",
          "name": "tokenId",
          "type": "uint256"
        },
        {
          "internalType": "bytes",
          "name": "_data",
          "type": "bytes"
        }
      ],
      "name": "safeTransferFrom",
      "outputs": [],
      "stateMutability": "nonpayable",
      "type": "function"
    },
    {
      "inputs": [
        {
          "internalType": "address",
          "name": "operator",
          "type": "address"
        },
        {
          "internalType": "bool",
          "name": "approved",
          "type": "bool"
        }
      ],
      "name": "setApprovalForAll",
      "outputs": [],
      "stateMutability": "nonpayable",
      "type": "function"
    },
    {
      "inputs": [
        {
          "internalType": "bytes4",
          "name": "interfaceId",
          "type": "bytes4"
        }
      ],
      "name": "supportsInterface",
      "outputs": [
        {
          "internalType": "bool",
          "name": "",
          "type": "bool"
        }
      ],
      "stateMutability": "view",
      "type": "function",
      "constant": true
    },
    {
      "inputs": [],
      "name": "symbol",
      "outputs": [
        {
          "internalType": "string",
          "name": "",
          "type": "string"
        }
      ],
      "stateMutability": "view",
      "type": "function",
      "constant": true
    },
    {
      "inputs": [
        {
          "internalType": "uint256",
          "name": "tokenId",
          "type": "uint256"
        }
      ],
      "name": "tokenURI",
      "outputs": [
        {
          "internalType": "string",
          "name": "",
          "type": "string"
        }
      ],
      "stateMutability": "view",
      "type": "function",
      "constant": true
    },
    {
      "inputs": [
        {
          "internalType": "address",
          "name": "from",
          "type": "address"
        },
        {
          "internalType": "address",
          "name": "to",
          "type": "address"
        },
        {
          "internalType": "uint256",
          "name": "tokenId",
          "type": "uint256"
        }
      ],
      "name": "transferFrom",
      "outputs": [],
      "stateMutability": "nonpayable",
      "type": "function"
    },
    {
      "inputs": [
        {
          "internalType": "string",
          "name": "name_",
          "type": "string"
        },
        {
          "internalType": "string",
          "name": "_assetFileHash",
          "type": "string"
        },
        {
          "internalType": "string",
          "name": "_description",
          "type": "string"
        },
        {
          "internalType": "uint256[]",
          "name": "_categories",
          "type": "uint256[]"
        },
        {
          "internalType": "string",
          "name": "_royality",
          "type": "string"
        }
      ],
      "name": "mintNftAsset",
      "outputs": [],
      "stateMutability": "nonpayable",
      "type": "function"
    },
    {
      "inputs": [
        {
          "internalType": "address",
          "name": "_from",
          "type": "address"
        },
        {
          "internalType": "address",
          "name": "_to",
          "type": "address"
        },
        {
          "internalType": "uint256",
          "name": "_tokenId",
          "type": "uint256"
        }
      ],
      "name": "transferAssetOwnership",
      "outputs": [],
      "stateMutability": "nonpayable",
      "type": "function"
    }
  ],
  "bytecode": "0x60806040526000600655604051620000179062000129565b604051809103906000f08015801562000034573d6000803e3d6000fd5b50600960006101000a81548173ffffffffffffffffffffffffffffffffffffffff021916908373ffffffffffffffffffffffffffffffffffffffff1602179055503480156200008257600080fd5b506040518060400160405280600881526020017f4e667441737365740000000000000000000000000000000000000000000000008152506040518060400160405280600881526020017f4e4654415353455400000000000000000000000000000000000000000000000081525081600090805190602001906200010792919062000137565b5080600190805190602001906200012092919062000137565b5050506200024c565b6115c480620037ea83390190565b828054620001459062000216565b90600052602060002090601f016020900481019282620001695760008555620001b5565b82601f106200018457805160ff1916838001178555620001b5565b82800160010185558215620001b5579182015b82811115620001b457825182559160200191906001019062000197565b5b509050620001c49190620001c8565b5090565b5b80821115620001e3576000816000905550600101620001c9565b5090565b7f4e487b7100000000000000000000000000000000000000000000000000000000600052602260045260246000fd5b600060028204905060018216806200022f57607f821691505b60208210811415620002465762000245620001e7565b5b50919050565b61358e806200025c6000396000f3fe608060405234801561001057600080fd5b506004361061010b5760003560e01c806370a08231116100a2578063c060c10c11610071578063c060c10c146102b4578063c87b56dd146102d0578063cd9df19014610300578063cf35bdd01461031e578063e985e9c5146103535761010b565b806370a082311461022e57806395d89b411461025e578063a22cb4651461027c578063b88d4fde146102985761010b565b806323b872dd116100de57806323b872dd146101aa57806327c0e766146101c657806342842e0e146101e25780636352211e146101fe5761010b565b806301ffc9a71461011057806306fdde0314610140578063081812fc1461015e578063095ea7b31461018e575b600080fd5b61012a60048036038101906101259190611f6f565b610383565b6040516101379190611fb7565b60405180910390f35b610148610465565b604051610155919061206b565b60405180910390f35b610178600480360381019061017391906120c3565b6104f7565b6040516101859190612131565b60405180910390f35b6101a860048036038101906101a39190612178565b61057c565b005b6101c460048036038101906101bf91906121b8565b610694565b005b6101e060048036038101906101db9190612408565b6106f4565b005b6101fc60048036038101906101f791906121b8565b610a3b565b005b610218600480360381019061021391906120c3565b610a5b565b6040516102259190612131565b60405180910390f35b6102486004803603810190610243919061250f565b610b0d565b604051610255919061254b565b60405180910390f35b610266610bc5565b604051610273919061206b565b60405180910390f35b61029660048036038101906102919190612592565b610c57565b005b6102b260048036038101906102ad9190612673565b610dd8565b005b6102ce60048036038101906102c991906121b8565b610e3a565b005b6102ea60048036038101906102e591906120c3565b610fbb565b6040516102f7919061206b565b60405180910390f35b610308611062565b604051610315919061254b565b60405180910390f35b610338600480360381019061033391906120c3565b611068565b60405161034a969594939291906126f6565b60405180910390f35b61036d60048036038101906103689190612773565b6112e4565b60405161037a9190611fb7565b60405180910390f35b60007f80ac58cd000000000000000000000000000000000000000000000000000000007bffffffffffffffffffffffffffffffffffffffffffffffffffffffff1916827bffffffffffffffffffffffffffffffffffffffffffffffffffffffff1916148061044e57507f5b5e139f000000000000000000000000000000000000000000000000000000007bffffffffffffffffffffffffffffffffffffffffffffffffffffffff1916827bffffffffffffffffffffffffffffffffffffffffffffffffffffffff1916145b8061045e575061045d82611378565b5b9050919050565b606060008054610474906127e2565b80601f01602080910402602001604051908101604052809291908181526020018280546104a0906127e2565b80156104ed5780601f106104c2576101008083540402835291602001916104ed565b820191906000526020600020905b8154815290600101906020018083116104d057829003601f168201915b5050505050905090565b6000610502826113e2565b610541576040517f08c379a000000000000000000000000000000000000000000000000000000000815260040161053890612886565b60405180910390fd5b6004600083815260200190815260200160002060009054906101000a900473ffffffffffffffffffffffffffffffffffffffff169050919050565b600061058782610a5b565b90508073ffffffffffffffffffffffffffffffffffffffff168373ffffffffffffffffffffffffffffffffffffffff1614156105f8576040517f08c379a00000000000000000000000000000000000000000000000000000000081526004016105ef90612918565b60405180910390fd5b8073ffffffffffffffffffffffffffffffffffffffff1661061761144e565b73ffffffffffffffffffffffffffffffffffffffff16148061064657506106458161064061144e565b6112e4565b5b610685576040517f08c379a000000000000000000000000000000000000000000000000000000000815260040161067c906129aa565b60405180910390fd5b61068f8383611456565b505050565b6106a561069f61144e565b8261150f565b6106e4576040517f08c379a00000000000000000000000000000000000000000000000000000000081526004016106db90612a3c565b60405180910390fd5b6106ef8383836115ed565b505050565b6008856040516107049190612a98565b908152602001604051809103902060009054906101000a900460ff161561072a57600080fd5b6006600081548092919061073d90612ade565b9190505550600960009054906101000a900473ffffffffffffffffffffffffffffffffffffffff1673ffffffffffffffffffffffffffffffffffffffff1663a0edc501336006546040518363ffffffff1660e01b81526004016107a1929190612b27565b600060405180830381600087803b1580156107bb57600080fd5b505af11580156107cf573d6000803e3d6000fd5b50505050600960009054906101000a900473ffffffffffffffffffffffffffffffffffffffff1673ffffffffffffffffffffffffffffffffffffffff1663da3388643360065460016040518463ffffffff1660e01b815260040161083593929190612b95565b600060405180830381600087803b15801561084f57600080fd5b505af1158015610863573d6000803e3d6000fd5b505050506040518060e0016040528060065481526020013373ffffffffffffffffffffffffffffffffffffffff168152602001858152602001868152602001848152602001838152602001828152506007600060065481526020019081526020016000206000820151816000015560208201518160010160006101000a81548173ffffffffffffffffffffffffffffffffffffffff021916908373ffffffffffffffffffffffffffffffffffffffff1602179055506040820151816002019080519060200190610934929190611e13565b506060820151816003019080519060200190610951929190611e13565b50608082015181600401908051906020019061096e929190611e13565b5060a082015181600501908051906020019061098b929190611e99565b5060c08201518160060190805190602001906109a8929190611e13565b509050506109b833600654611849565b60016008866040516109ca9190612a98565b908152602001604051809103902060006101000a81548160ff0219169083151502179055507fd92b307f01d4b80caae1bd10132543e1ca712e4c601e8cee1e3ff3bf5cde4499600654338688878787604051610a2c9796959493929190612c8a565b60405180910390a15050505050565b610a5683838360405180602001604052806000815250610dd8565b505050565b6000806002600084815260200190815260200160002060009054906101000a900473ffffffffffffffffffffffffffffffffffffffff169050600073ffffffffffffffffffffffffffffffffffffffff168173ffffffffffffffffffffffffffffffffffffffff161415610b04576040517f08c379a0000000000000000000000000000000000000000000000000000000008152600401610afb90612d8e565b60405180910390fd5b80915050919050565b60008073ffffffffffffffffffffffffffffffffffffffff168273ffffffffffffffffffffffffffffffffffffffff161415610b7e576040517f08c379a0000000000000000000000000000000000000000000000000000000008152600401610b7590612e20565b60405180910390fd5b600360008373ffffffffffffffffffffffffffffffffffffffff1673ffffffffffffffffffffffffffffffffffffffff168152602001908152602001600020549050919050565b606060018054610bd4906127e2565b80601f0160208091040260200160405190810160405280929190818152602001828054610c00906127e2565b8015610c4d5780601f10610c2257610100808354040283529160200191610c4d565b820191906000526020600020905b815481529060010190602001808311610c3057829003601f168201915b5050505050905090565b610c5f61144e565b73ffffffffffffffffffffffffffffffffffffffff168273ffffffffffffffffffffffffffffffffffffffff161415610ccd576040517f08c379a0000000000000000000000000000000000000000000000000000000008152600401610cc490612e8c565b60405180910390fd5b8060056000610cda61144e565b73ffffffffffffffffffffffffffffffffffffffff1673ffffffffffffffffffffffffffffffffffffffff16815260200190815260200160002060008473ffffffffffffffffffffffffffffffffffffffff1673ffffffffffffffffffffffffffffffffffffffff16815260200190815260200160002060006101000a81548160ff0219169083151502179055508173ffffffffffffffffffffffffffffffffffffffff16610d8761144e565b73ffffffffffffffffffffffffffffffffffffffff167f17307eab39ab6107e8899845ad3d59bd9653f200f220920489ca2b5937696c3183604051610dcc9190611fb7565b60405180910390a35050565b610de9610de361144e565b8361150f565b610e28576040517f08c379a0000000000000000000000000000000000000000000000000000000008152600401610e1f90612a3c565b60405180910390fd5b610e3484848484611867565b50505050565b610e43816113e2565b610e4c57600080fd5b600960009054906101000a900473ffffffffffffffffffffffffffffffffffffffff1673ffffffffffffffffffffffffffffffffffffffff1663da338864838360016040518463ffffffff1660e01b8152600401610eac93929190612b95565b600060405180830381600087803b158015610ec657600080fd5b505af1158015610eda573d6000803e3d6000fd5b50505050600960009054906101000a900473ffffffffffffffffffffffffffffffffffffffff1673ffffffffffffffffffffffffffffffffffffffff1663da338864848360026040518463ffffffff1660e01b8152600401610f3e93929190612ee7565b600060405180830381600087803b158015610f5857600080fd5b505af1158015610f6c573d6000803e3d6000fd5b50505050610f7b8383836115ed565b7f3d34dd6bb4d02318149b3fec898d6ca749f096cb01d8cfc1ad602f0fbd85d41d838383604051610fae93929190612f1e565b60405180910390a1505050565b6060610fc6826113e2565b611005576040517f08c379a0000000000000000000000000000000000000000000000000000000008152600401610ffc90612fc7565b60405180910390fd5b600061100f6118c3565b9050600081511161102f576040518060200160405280600081525061105a565b80611039846118da565b60405160200161104a929190612fe7565b6040516020818303038152906040525b915050919050565b60065481565b60076020528060005260406000206000915090508060000154908060010160009054906101000a900473ffffffffffffffffffffffffffffffffffffffff16908060020180546110b7906127e2565b80601f01602080910402602001604051908101604052809291908181526020018280546110e3906127e2565b80156111305780601f1061110557610100808354040283529160200191611130565b820191906000526020600020905b81548152906001019060200180831161111357829003601f168201915b505050505090806003018054611145906127e2565b80601f0160208091040260200160405190810160405280929190818152602001828054611171906127e2565b80156111be5780601f10611193576101008083540402835291602001916111be565b820191906000526020600020905b8154815290600101906020018083116111a157829003601f168201915b5050505050908060040180546111d3906127e2565b80601f01602080910402602001604051908101604052809291908181526020018280546111ff906127e2565b801561124c5780601f106112215761010080835404028352916020019161124c565b820191906000526020600020905b81548152906001019060200180831161122f57829003601f168201915b505050505090806006018054611261906127e2565b80601f016020809104026020016040519081016040528092919081815260200182805461128d906127e2565b80156112da5780601f106112af576101008083540402835291602001916112da565b820191906000526020600020905b8154815290600101906020018083116112bd57829003601f168201915b5050505050905086565b6000600560008473ffffffffffffffffffffffffffffffffffffffff1673ffffffffffffffffffffffffffffffffffffffff16815260200190815260200160002060008373ffffffffffffffffffffffffffffffffffffffff1673ffffffffffffffffffffffffffffffffffffffff16815260200190815260200160002060009054906101000a900460ff16905092915050565b60007f01ffc9a7000000000000000000000000000000000000000000000000000000007bffffffffffffffffffffffffffffffffffffffffffffffffffffffff1916827bffffffffffffffffffffffffffffffffffffffffffffffffffffffff1916149050919050565b60008073ffffffffffffffffffffffffffffffffffffffff166002600084815260200190815260200160002060009054906101000a900473ffffffffffffffffffffffffffffffffffffffff1673ffffffffffffffffffffffffffffffffffffffff1614159050919050565b600033905090565b816004600083815260200190815260200160002060006101000a81548173ffffffffffffffffffffffffffffffffffffffff021916908373ffffffffffffffffffffffffffffffffffffffff160217905550808273ffffffffffffffffffffffffffffffffffffffff166114c983610a5b565b73ffffffffffffffffffffffffffffffffffffffff167f8c5be1e5ebec7d5bd14f71427d1e84f3dd0314c0f7b2291e5b200ac8c7c3b92560405160405180910390a45050565b600061151a826113e2565b611559576040517f08c379a00000000000000000000000000000000000000000000000000000000081526004016115509061307d565b60405180910390fd5b600061156483610a5b565b90508073ffffffffffffffffffffffffffffffffffffffff168473ffffffffffffffffffffffffffffffffffffffff1614806115d357508373ffffffffffffffffffffffffffffffffffffffff166115bb846104f7565b73ffffffffffffffffffffffffffffffffffffffff16145b806115e457506115e381856112e4565b5b91505092915050565b8273ffffffffffffffffffffffffffffffffffffffff1661160d82610a5b565b73ffffffffffffffffffffffffffffffffffffffff1614611663576040517f08c379a000000000000000000000000000000000000000000000000000000000815260040161165a9061310f565b60405180910390fd5b600073ffffffffffffffffffffffffffffffffffffffff168273ffffffffffffffffffffffffffffffffffffffff1614156116d3576040517f08c379a00000000000000000000000000000000000000000000000000000000081526004016116ca906131a1565b60405180910390fd5b6116de838383611a3b565b6116e9600082611456565b6001600360008573ffffffffffffffffffffffffffffffffffffffff1673ffffffffffffffffffffffffffffffffffffffff168152602001908152602001600020600082825461173991906131c1565b925050819055506001600360008473ffffffffffffffffffffffffffffffffffffffff1673ffffffffffffffffffffffffffffffffffffffff168152602001908152602001600020600082825461179091906131f5565b92505081905550816002600083815260200190815260200160002060006101000a81548173ffffffffffffffffffffffffffffffffffffffff021916908373ffffffffffffffffffffffffffffffffffffffff160217905550808273ffffffffffffffffffffffffffffffffffffffff168473ffffffffffffffffffffffffffffffffffffffff167fddf252ad1be2c89b69c2b068fc378daa952ba7f163c4a11628f55a4df523b3ef60405160405180910390a4505050565b611863828260405180602001604052806000815250611a40565b5050565b6118728484846115ed565b61187e84848484611a9b565b6118bd576040517f08c379a00000000000000000000000000000000000000000000000000000000081526004016118b4906132bd565b60405180910390fd5b50505050565b606060405180602001604052806000815250905090565b60606000821415611922576040518060400160405280600181526020017f30000000000000000000000000000000000000000000000000000000000000008152509050611a36565b600082905060005b6000821461195457808061193d90612ade565b915050600a8261194d919061330c565b915061192a565b60008167ffffffffffffffff8111156119705761196f612215565b5b6040519080825280601f01601f1916602001820160405280156119a25781602001600182028036833780820191505090505b5090505b60008514611a2f576001826119bb91906131c1565b9150600a856119ca919061333d565b60306119d691906131f5565b60f81b8183815181106119ec576119eb61336e565b5b60200101907effffffffffffffffffffffffffffffffffffffffffffffffffffffffffffff1916908160001a905350600a85611a28919061330c565b94506119a6565b8093505050505b919050565b505050565b611a4a8383611c32565b611a576000848484611a9b565b611a96576040517f08c379a0000000000000000000000000000000000000000000000000000000008152600401611a8d906132bd565b60405180910390fd5b505050565b6000611abc8473ffffffffffffffffffffffffffffffffffffffff16611e00565b15611c25578373ffffffffffffffffffffffffffffffffffffffff1663150b7a02611ae561144e565b8786866040518563ffffffff1660e01b8152600401611b0794939291906133f2565b602060405180830381600087803b158015611b2157600080fd5b505af1925050508015611b5257506040513d601f19601f82011682018060405250810190611b4f9190613453565b60015b611bd5573d8060008114611b82576040519150601f19603f3d011682016040523d82523d6000602084013e611b87565b606091505b50600081511415611bcd576040517f08c379a0000000000000000000000000000000000000000000000000000000008152600401611bc4906132bd565b60405180910390fd5b805181602001fd5b63150b7a0260e01b7bffffffffffffffffffffffffffffffffffffffffffffffffffffffff1916817bffffffffffffffffffffffffffffffffffffffffffffffffffffffff191614915050611c2a565b600190505b949350505050565b600073ffffffffffffffffffffffffffffffffffffffff168273ffffffffffffffffffffffffffffffffffffffff161415611ca2576040517f08c379a0000000000000000000000000000000000000000000000000000000008152600401611c99906134cc565b60405180910390fd5b611cab816113e2565b15611ceb576040517f08c379a0000000000000000000000000000000000000000000000000000000008152600401611ce290613538565b60405180910390fd5b611cf760008383611a3b565b6001600360008473ffffffffffffffffffffffffffffffffffffffff1673ffffffffffffffffffffffffffffffffffffffff1681526020019081526020016000206000828254611d4791906131f5565b92505081905550816002600083815260200190815260200160002060006101000a81548173ffffffffffffffffffffffffffffffffffffffff021916908373ffffffffffffffffffffffffffffffffffffffff160217905550808273ffffffffffffffffffffffffffffffffffffffff16600073ffffffffffffffffffffffffffffffffffffffff167fddf252ad1be2c89b69c2b068fc378daa952ba7f163c4a11628f55a4df523b3ef60405160405180910390a45050565b600080823b905060008111915050919050565b828054611e1f906127e2565b90600052602060002090601f016020900481019282611e415760008555611e88565b82601f10611e5a57805160ff1916838001178555611e88565b82800160010185558215611e88579182015b82811115611e87578251825591602001919060010190611e6c565b5b509050611e959190611ee6565b5090565b828054828255906000526020600020908101928215611ed5579160200282015b82811115611ed4578251825591602001919060010190611eb9565b5b509050611ee29190611ee6565b5090565b5b80821115611eff576000816000905550600101611ee7565b5090565b6000604051905090565b600080fd5b600080fd5b60007fffffffff0000000000000000000000000000000000000000000000000000000082169050919050565b611f4c81611f17565b8114611f5757600080fd5b50565b600081359050611f6981611f43565b92915050565b600060208284031215611f8557611f84611f0d565b5b6000611f9384828501611f5a565b91505092915050565b60008115159050919050565b611fb181611f9c565b82525050565b6000602082019050611fcc6000830184611fa8565b92915050565b600081519050919050565b600082825260208201905092915050565b60005b8381101561200c578082015181840152602081019050611ff1565b8381111561201b576000848401525b50505050565b6000601f19601f8301169050919050565b600061203d82611fd2565b6120478185611fdd565b9350612057818560208601611fee565b61206081612021565b840191505092915050565b600060208201905081810360008301526120858184612032565b905092915050565b6000819050919050565b6120a08161208d565b81146120ab57600080fd5b50565b6000813590506120bd81612097565b92915050565b6000602082840312156120d9576120d8611f0d565b5b60006120e7848285016120ae565b91505092915050565b600073ffffffffffffffffffffffffffffffffffffffff82169050919050565b600061211b826120f0565b9050919050565b61212b81612110565b82525050565b60006020820190506121466000830184612122565b92915050565b61215581612110565b811461216057600080fd5b50565b6000813590506121728161214c565b92915050565b6000806040838503121561218f5761218e611f0d565b5b600061219d85828601612163565b92505060206121ae858286016120ae565b9150509250929050565b6000806000606084860312156121d1576121d0611f0d565b5b60006121df86828701612163565b93505060206121f086828701612163565b9250506040612201868287016120ae565b9150509250925092565b600080fd5b600080fd5b7f4e487b7100000000000000000000000000000000000000000000000000000000600052604160045260246000fd5b61224d82612021565b810181811067ffffffffffffffff8211171561226c5761226b612215565b5b80604052505050565b600061227f611f03565b905061228b8282612244565b919050565b600067ffffffffffffffff8211156122ab576122aa612215565b5b6122b482612021565b9050602081019050919050565b82818337600083830152505050565b60006122e36122de84612290565b612275565b9050828152602081018484840111156122ff576122fe612210565b5b61230a8482856122c1565b509392505050565b600082601f8301126123275761232661220b565b5b81356123378482602086016122d0565b91505092915050565b600067ffffffffffffffff82111561235b5761235a612215565b5b602082029050602081019050919050565b600080fd5b600061238461237f84612340565b612275565b905080838252602082019050602084028301858111156123a7576123a661236c565b5b835b818110156123d057806123bc88826120ae565b8452602084019350506020810190506123a9565b5050509392505050565b600082601f8301126123ef576123ee61220b565b5b81356123ff848260208601612371565b91505092915050565b600080600080600060a0868803121561242457612423611f0d565b5b600086013567ffffffffffffffff81111561244257612441611f12565b5b61244e88828901612312565b955050602086013567ffffffffffffffff81111561246f5761246e611f12565b5b61247b88828901612312565b945050604086013567ffffffffffffffff81111561249c5761249b611f12565b5b6124a888828901612312565b935050606086013567ffffffffffffffff8111156124c9576124c8611f12565b5b6124d5888289016123da565b925050608086013567ffffffffffffffff8111156124f6576124f5611f12565b5b61250288828901612312565b9150509295509295909350565b60006020828403121561252557612524611f0d565b5b600061253384828501612163565b91505092915050565b6125458161208d565b82525050565b6000602082019050612560600083018461253c565b92915050565b61256f81611f9c565b811461257a57600080fd5b50565b60008135905061258c81612566565b92915050565b600080604083850312156125a9576125a8611f0d565b5b60006125b785828601612163565b92505060206125c88582860161257d565b9150509250929050565b600067ffffffffffffffff8211156125ed576125ec612215565b5b6125f682612021565b9050602081019050919050565b6000612616612611846125d2565b612275565b90508281526020810184848401111561263257612631612210565b5b61263d8482856122c1565b509392505050565b600082601f83011261265a5761265961220b565b5b813561266a848260208601612603565b91505092915050565b6000806000806080858703121561268d5761268c611f0d565b5b600061269b87828801612163565b94505060206126ac87828801612163565b93505060406126bd878288016120ae565b925050606085013567ffffffffffffffff8111156126de576126dd611f12565b5b6126ea87828801612645565b91505092959194509250565b600060c08201905061270b600083018961253c565b6127186020830188612122565b818103604083015261272a8187612032565b9050818103606083015261273e8186612032565b905081810360808301526127528185612032565b905081810360a08301526127668184612032565b9050979650505050505050565b6000806040838503121561278a57612789611f0d565b5b600061279885828601612163565b92505060206127a985828601612163565b9150509250929050565b7f4e487b7100000000000000000000000000000000000000000000000000000000600052602260045260246000fd5b600060028204905060018216806127fa57607f821691505b6020821081141561280e5761280d6127b3565b5b50919050565b7f4552433732313a20617070726f76656420717565727920666f72206e6f6e657860008201527f697374656e7420746f6b656e0000000000000000000000000000000000000000602082015250565b6000612870602c83611fdd565b915061287b82612814565b604082019050919050565b6000602082019050818103600083015261289f81612863565b9050919050565b7f4552433732313a20617070726f76616c20746f2063757272656e74206f776e6560008201527f7200000000000000000000000000000000000000000000000000000000000000602082015250565b6000612902602183611fdd565b915061290d826128a6565b604082019050919050565b60006020820190508181036000830152612931816128f5565b9050919050565b7f4552433732313a20617070726f76652063616c6c6572206973206e6f74206f7760008201527f6e6572206e6f7220617070726f76656420666f7220616c6c0000000000000000602082015250565b6000612994603883611fdd565b915061299f82612938565b604082019050919050565b600060208201905081810360008301526129c381612987565b9050919050565b7f4552433732313a207472616e736665722063616c6c6572206973206e6f74206f60008201527f776e6572206e6f7220617070726f766564000000000000000000000000000000602082015250565b6000612a26603183611fdd565b9150612a31826129ca565b604082019050919050565b60006020820190508181036000830152612a5581612a19565b9050919050565b600081905092915050565b6000612a7282611fd2565b612a7c8185612a5c565b9350612a8c818560208601611fee565b80840191505092915050565b6000612aa48284612a67565b915081905092915050565b7f4e487b7100000000000000000000000000000000000000000000000000000000600052601160045260246000fd5b6000612ae98261208d565b91507fffffffffffffffffffffffffffffffffffffffffffffffffffffffffffffffff821415612b1c57612b1b612aaf565b5b600182019050919050565b6000604082019050612b3c6000830185612122565b612b49602083018461253c565b9392505050565b6000819050919050565b6000819050919050565b6000612b7f612b7a612b7584612b50565b612b5a565b61208d565b9050919050565b612b8f81612b64565b82525050565b6000606082019050612baa6000830186612122565b612bb7602083018561253c565b612bc46040830184612b86565b949350505050565b600081519050919050565b600082825260208201905092915050565b6000819050602082019050919050565b612c018161208d565b82525050565b6000612c138383612bf8565b60208301905092915050565b6000602082019050919050565b6000612c3782612bcc565b612c418185612bd7565b9350612c4c83612be8565b8060005b83811015612c7d578151612c648882612c07565b9750612c6f83612c1f565b925050600181019050612c50565b5085935050505092915050565b600060e082019050612c9f600083018a61253c565b612cac6020830189612122565b8181036040830152612cbe8188612032565b90508181036060830152612cd28187612032565b90508181036080830152612ce68186612032565b905081810360a0830152612cfa8185612c2c565b905081810360c0830152612d0e8184612032565b905098975050505050505050565b7f4552433732313a206f776e657220717565727920666f72206e6f6e657869737460008201527f656e7420746f6b656e0000000000000000000000000000000000000000000000602082015250565b6000612d78602983611fdd565b9150612d8382612d1c565b604082019050919050565b60006020820190508181036000830152612da781612d6b565b9050919050565b7f4552433732313a2062616c616e636520717565727920666f7220746865207a6560008201527f726f206164647265737300000000000000000000000000000000000000000000602082015250565b6000612e0a602a83611fdd565b9150612e1582612dae565b604082019050919050565b60006020820190508181036000830152612e3981612dfd565b9050919050565b7f4552433732313a20617070726f766520746f2063616c6c657200000000000000600082015250565b6000612e76601983611fdd565b9150612e8182612e40565b602082019050919050565b60006020820190508181036000830152612ea581612e69565b9050919050565b6000819050919050565b6000612ed1612ecc612ec784612eac565b612b5a565b61208d565b9050919050565b612ee181612eb6565b82525050565b6000606082019050612efc6000830186612122565b612f09602083018561253c565b612f166040830184612ed8565b949350505050565b6000606082019050612f336000830186612122565b612f406020830185612122565b612f4d604083018461253c565b949350505050565b7f4552433732314d657461646174613a2055524920717565727920666f72206e6f60008201527f6e6578697374656e7420746f6b656e0000000000000000000000000000000000602082015250565b6000612fb1602f83611fdd565b9150612fbc82612f55565b604082019050919050565b60006020820190508181036000830152612fe081612fa4565b9050919050565b6000612ff38285612a67565b9150612fff8284612a67565b91508190509392505050565b7f4552433732313a206f70657261746f7220717565727920666f72206e6f6e657860008201527f697374656e7420746f6b656e0000000000000000000000000000000000000000602082015250565b6000613067602c83611fdd565b91506130728261300b565b604082019050919050565b600060208201905081810360008301526130968161305a565b9050919050565b7f4552433732313a207472616e73666572206f6620746f6b656e2074686174206960008201527f73206e6f74206f776e0000000000000000000000000000000000000000000000602082015250565b60006130f9602983611fdd565b91506131048261309d565b604082019050919050565b60006020820190508181036000830152613128816130ec565b9050919050565b7f4552433732313a207472616e7366657220746f20746865207a65726f2061646460008201527f7265737300000000000000000000000000000000000000000000000000000000602082015250565b600061318b602483611fdd565b91506131968261312f565b604082019050919050565b600060208201905081810360008301526131ba8161317e565b9050919050565b60006131cc8261208d565b91506131d78361208d565b9250828210156131ea576131e9612aaf565b5b828203905092915050565b60006132008261208d565b915061320b8361208d565b9250827fffffffffffffffffffffffffffffffffffffffffffffffffffffffffffffffff038211156132405761323f612aaf565b5b828201905092915050565b7f4552433732313a207472616e7366657220746f206e6f6e20455243373231526560008201527f63656976657220696d706c656d656e7465720000000000000000000000000000602082015250565b60006132a7603283611fdd565b91506132b28261324b565b604082019050919050565b600060208201905081810360008301526132d68161329a565b9050919050565b7f4e487b7100000000000000000000000000000000000000000000000000000000600052601260045260246000fd5b60006133178261208d565b91506133228361208d565b925082613332576133316132dd565b5b828204905092915050565b60006133488261208d565b91506133538361208d565b925082613363576133626132dd565b5b828206905092915050565b7f4e487b7100000000000000000000000000000000000000000000000000000000600052603260045260246000fd5b600081519050919050565b600082825260208201905092915050565b60006133c48261339d565b6133ce81856133a8565b93506133de818560208601611fee565b6133e781612021565b840191505092915050565b60006080820190506134076000830187612122565b6134146020830186612122565b613421604083018561253c565b818103606083015261343381846133b9565b905095945050505050565b60008151905061344d81611f43565b92915050565b60006020828403121561346957613468611f0d565b5b60006134778482850161343e565b91505092915050565b7f4552433732313a206d696e7420746f20746865207a65726f2061646472657373600082015250565b60006134b6602083611fdd565b91506134c182613480565b602082019050919050565b600060208201905081810360008301526134e5816134a9565b9050919050565b7f4552433732313a20746f6b656e20616c7265616479206d696e74656400000000600082015250565b6000613522601c83611fdd565b915061352d826134ec565b602082019050919050565b6000602082019050818103600083015261355181613515565b905091905056fea2646970667358221220c114191cc5beda75825c5c1dd0f38f3dd830c3aac9e162d45e15b008b90f136864736f6c6343000809003360806040526040518060400160405280600781526020017f4163636f756e740000000000000000000000000000000000000000000000000081525060009080519060200190620000519291906200006b565b5060006001553480156200006457600080fd5b5062000180565b82805462000079906200014a565b90600052602060002090601f0160209004810192826200009d5760008555620000e9565b82601f10620000b857805160ff1916838001178555620000e9565b82800160010185558215620000e9579182015b82811115620000e8578251825591602001919060010190620000cb565b5b509050620000f89190620000fc565b5090565b5b8082111562000117576000816000905550600101620000fd565b5090565b7f4e487b7100000000000000000000000000000000000000000000000000000000600052602260045260246000fd5b600060028204905060018216806200016357607f821691505b602082108114156200017a57620001796200011b565b5b50919050565b61143480620001906000396000f3fe60806040526004361061007b5760003560e01c806399b956a01161004e57806399b956a01461011b578063a0edc5011461015a578063b985e8d814610183578063da338864146101ac5761007b565b806306fdde0314610080578063298daf5b146100ab5780636ba13a82146100d457806396dae737146100ff575b600080fd5b34801561008c57600080fd5b506100956101d5565b6040516100a29190610c46565b60405180910390f35b3480156100b757600080fd5b506100d260048036038101906100cd9190610db1565b610263565b005b3480156100e057600080fd5b506100e96105d1565b6040516100f69190610e13565b60405180910390f35b61011960048036038101906101149190610e8c565b6105d7565b005b34801561012757600080fd5b50610142600480360381019061013d9190610e8c565b610667565b60405161015193929190610ec8565b60405180910390f35b34801561016657600080fd5b50610181600480360381019061017c9190610f32565b610739565b005b34801561018f57600080fd5b506101aa60048036038101906101a59190610f32565b6107ea565b005b3480156101b857600080fd5b506101d360048036038101906101ce9190610f72565b61089b565b005b600080546101e290610ff4565b80601f016020809104026020016040519081016040528092919081815260200182805461020e90610ff4565b801561025b5780601f106102305761010080835404028352916020019161025b565b820191906000526020600020905b81548152906001019060200180831161023e57829003601f168201915b505050505081565b600081511161027157600080fd5b6001600081548092919061028490611055565b91905055506040518060c0016040528060015481526020013373ffffffffffffffffffffffffffffffffffffffff168152602001828152602001600067ffffffffffffffff8111156102d9576102d8610c86565b5b6040519080825280602002602001820160405280156103075781602001602082028036833780820191505090505b508152602001600067ffffffffffffffff81111561032857610327610c86565b5b6040519080825280602002602001820160405280156103565781602001602082028036833780820191505090505b508152602001600067ffffffffffffffff81111561037757610376610c86565b5b6040519080825280602002602001820160405280156103a55781602001602082028036833780820191505090505b50815250600260003373ffffffffffffffffffffffffffffffffffffffff1673ffffffffffffffffffffffffffffffffffffffff1681526020019081526020016000206000820151816000015560208201518160010160006101000a81548173ffffffffffffffffffffffffffffffffffffffff021916908373ffffffffffffffffffffffffffffffffffffffff1602179055506040820151816002019080519060200190610455929190610abd565b506060820151816003019080519060200190610472929190610b43565b50608082015181600401908051906020019061048f929190610b43565b5060a08201518160050190805190602001906104ac929190610b43565b509050507f435c996d89a49cca8df2e2b9049873efc395163c78132316c36b4cc6385159bf6001543383600067ffffffffffffffff8111156104f1576104f0610c86565b5b60405190808252806020026020018201604052801561051f5781602001602082028036833780820191505090505b50600067ffffffffffffffff81111561053b5761053a610c86565b5b6040519080825280602002602001820160405280156105695781602001602082028036833780820191505090505b50600067ffffffffffffffff81111561058557610584610c86565b5b6040519080825280602002602001820160405280156105b35781602001602082028036833780820191505090505b506040516105c69695949392919061115c565b60405180910390a150565b60015481565b600034116105e457600080fd5b8073ffffffffffffffffffffffffffffffffffffffff166108fc349081150290604051600060405180830381858888f1935050505015801561062a573d6000803e3d6000fd5b507f6ef95f06320e7a25a04a175ca677b7052bdd97131872c2192525a629f51be770813460405161065c9291906111d9565b60405180910390a150565b60026020528060005260406000206000915090508060000154908060010160009054906101000a900473ffffffffffffffffffffffffffffffffffffffff16908060020180546106b690610ff4565b80601f01602080910402602001604051908101604052809291908181526020018280546106e290610ff4565b801561072f5780601f106107045761010080835404028352916020019161072f565b820191906000526020600020905b81548152906001019060200180831161071257829003601f168201915b5050505050905083565b6000600260008473ffffffffffffffffffffffffffffffffffffffff1673ffffffffffffffffffffffffffffffffffffffff1681526020019081526020016000209050806005018290806001815401808255809150506001900390600052602060002001600090919091909150557faf4bf105b07134ade84774ffbc130ba9a42441545ab51d6865c59ef7d71d75c08383836005016040516107dd939291906112d8565b60405180910390a1505050565b6000600260008473ffffffffffffffffffffffffffffffffffffffff1673ffffffffffffffffffffffffffffffffffffffff1681526020019081526020016000209050806003018290806001815401808255809150506001900390600052602060002001600090919091909150557f6b2ad7f150794bfc99e3013370f5564e4e0485b5b65ca0f4d9d9ce300070d27383838360030160405161088e939291906112d8565b60405180910390a1505050565b6000600260008573ffffffffffffffffffffffffffffffffffffffff1673ffffffffffffffffffffffffffffffffffffffff168152602001908152602001600020905060018214156109175780600401839080600181540180825580915050600190039060005260206000200160009091909190915055610a78565b6002821415610a77576000805b82600401805490508110156109765782600401818154811061094957610948611316565b5b906000526020600020015485141561096357809150610976565b808061096e90611055565b915050610924565b5060008114156109c5577f18fc6bf4e6adb359b6b7456f354c22287834a11391d70d8ff30b7004212af1e78585846004016040516109b6939291906112d8565b60405180910390a15050610ab8565b60008190505b600183600401805490506109df9190611345565b811015610a4a57826004016001826109f79190611379565b81548110610a0857610a07611316565b5b9060005260206000200154836004018281548110610a2957610a28611316565b5b90600052602060002001819055508080610a4290611055565b9150506109cb565b5081600401805480610a5f57610a5e6113cf565b5b60019003818190600052602060002001600090559055505b5b7f18fc6bf4e6adb359b6b7456f354c22287834a11391d70d8ff30b7004212af1e7848483600401604051610aae939291906112d8565b60405180910390a1505b505050565b828054610ac990610ff4565b90600052602060002090601f016020900481019282610aeb5760008555610b32565b82601f10610b0457805160ff1916838001178555610b32565b82800160010185558215610b32579182015b82811115610b31578251825591602001919060010190610b16565b5b509050610b3f9190610b90565b5090565b828054828255906000526020600020908101928215610b7f579160200282015b82811115610b7e578251825591602001919060010190610b63565b5b509050610b8c9190610b90565b5090565b5b80821115610ba9576000816000905550600101610b91565b5090565b600081519050919050565b600082825260208201905092915050565b60005b83811015610be7578082015181840152602081019050610bcc565b83811115610bf6576000848401525b50505050565b6000601f19601f8301169050919050565b6000610c1882610bad565b610c228185610bb8565b9350610c32818560208601610bc9565b610c3b81610bfc565b840191505092915050565b60006020820190508181036000830152610c608184610c0d565b905092915050565b6000604051905090565b600080fd5b600080fd5b600080fd5b600080fd5b7f4e487b7100000000000000000000000000000000000000000000000000000000600052604160045260246000fd5b610cbe82610bfc565b810181811067ffffffffffffffff82111715610cdd57610cdc610c86565b5b80604052505050565b6000610cf0610c68565b9050610cfc8282610cb5565b919050565b600067ffffffffffffffff821115610d1c57610d1b610c86565b5b610d2582610bfc565b9050602081019050919050565b82818337600083830152505050565b6000610d54610d4f84610d01565b610ce6565b905082815260208101848484011115610d7057610d6f610c81565b5b610d7b848285610d32565b509392505050565b600082601f830112610d9857610d97610c7c565b5b8135610da8848260208601610d41565b91505092915050565b600060208284031215610dc757610dc6610c72565b5b600082013567ffffffffffffffff811115610de557610de4610c77565b5b610df184828501610d83565b91505092915050565b6000819050919050565b610e0d81610dfa565b82525050565b6000602082019050610e286000830184610e04565b92915050565b600073ffffffffffffffffffffffffffffffffffffffff82169050919050565b6000610e5982610e2e565b9050919050565b610e6981610e4e565b8114610e7457600080fd5b50565b600081359050610e8681610e60565b92915050565b600060208284031215610ea257610ea1610c72565b5b6000610eb084828501610e77565b91505092915050565b610ec281610e4e565b82525050565b6000606082019050610edd6000830186610e04565b610eea6020830185610eb9565b8181036040830152610efc8184610c0d565b9050949350505050565b610f0f81610dfa565b8114610f1a57600080fd5b50565b600081359050610f2c81610f06565b92915050565b60008060408385031215610f4957610f48610c72565b5b6000610f5785828601610e77565b9250506020610f6885828601610f1d565b9150509250929050565b600080600060608486031215610f8b57610f8a610c72565b5b6000610f9986828701610e77565b9350506020610faa86828701610f1d565b9250506040610fbb86828701610f1d565b9150509250925092565b7f4e487b7100000000000000000000000000000000000000000000000000000000600052602260045260246000fd5b6000600282049050600182168061100c57607f821691505b602082108114156110205761101f610fc5565b5b50919050565b7f4e487b7100000000000000000000000000000000000000000000000000000000600052601160045260246000fd5b600061106082610dfa565b91507fffffffffffffffffffffffffffffffffffffffffffffffffffffffffffffffff82141561109357611092611026565b5b600182019050919050565b600081519050919050565b600082825260208201905092915050565b6000819050602082019050919050565b6110d381610dfa565b82525050565b60006110e583836110ca565b60208301905092915050565b6000602082019050919050565b60006111098261109e565b61111381856110a9565b935061111e836110ba565b8060005b8381101561114f57815161113688826110d9565b9750611141836110f1565b925050600181019050611122565b5085935050505092915050565b600060c0820190506111716000830189610e04565b61117e6020830188610eb9565b81810360408301526111908187610c0d565b905081810360608301526111a481866110fe565b905081810360808301526111b881856110fe565b905081810360a08301526111cc81846110fe565b9050979650505050505050565b60006040820190506111ee6000830185610eb9565b6111fb6020830184610e04565b9392505050565b600081549050919050565b60008190508160005260206000209050919050565b60008160001c9050919050565b6000819050919050565b600061124c61124783611222565b61122f565b9050919050565b600061125f8254611239565b9050919050565b6000600182019050919050565b600061127e82611202565b61128881856110a9565b93506112938361120d565b8060005b838110156112cb576112a882611253565b6112b288826110d9565b97506112bd83611266565b925050600181019050611297565b5085935050505092915050565b60006060820190506112ed6000830186610eb9565b6112fa6020830185610e04565b818103604083015261130c8184611273565b9050949350505050565b7f4e487b7100000000000000000000000000000000000000000000000000000000600052603260045260246000fd5b600061135082610dfa565b915061135b83610dfa565b92508282101561136e5761136d611026565b5b828203905092915050565b600061138482610dfa565b915061138f83610dfa565b9250827fffffffffffffffffffffffffffffffffffffffffffffffffffffffffffffffff038211156113c4576113c3611026565b5b828201905092915050565b7f4e487b7100000000000000000000000000000000000000000000000000000000600052603160045260246000fdfea26469706673582212202802417f4d5e1c3b65210aa43ccd908e366c4d8a3d9cc25aa569655ebfa0e9b664736f6c63430008090033",
  "immutableReferences": {},
  "source": "// SPDX-License-Identifier: Apache-2.0\r\npragma solidity >=0.4.22 <0.9.0;\r\n\r\nimport \"@openzeppelin/contracts/token/ERC721/ERC721.sol\";\r\nimport './Accounts.sol';\r\n\r\ncontract NftAsset is ERC721 {\r\n    \r\n    uint public assetsCount = 0;\r\n\r\n    struct Asset {\r\n        uint tokenId;\r\n        address creator;\r\n        string assetFileHash;\r\n        string name;\r\n        string description;\r\n        uint[] categories;\r\n        string royality;\r\n    }\r\n\r\n    mapping (uint => Asset) public assets;\r\n\r\n    mapping(string => bool) private _assetNameExists;\r\n\r\n    Account account = new Account();\r\n\r\n    constructor() ERC721(\"NftAsset\", \"NFTASSET\") {\r\n    }\r\n\r\n    event NftAssetMinted(\r\n        uint tokenId,\r\n        address creator,\r\n        string assetFileHash,\r\n        string name,\r\n        string description,\r\n        uint[] categories,\r\n        string royality\r\n    );\r\n\r\n    event OwnershipTransfered(\r\n        address from,\r\n        address to,\r\n        uint tokenId\r\n    );\r\n\r\n    function mintNftAsset(string memory name_, string memory _assetFileHash,\r\n        string memory _description, uint[] memory _categories, string memory _royality) public {\r\n\r\n        // Check for uniqueness of asset name.\r\n        require(!_assetNameExists[name_]);\r\n\r\n        assetsCount++;\r\n\r\n        // Adding this asset in CreatedAssets list for minter.\r\n        account.updateAccountCreatedAssets(msg.sender, assetsCount);\r\n\r\n        // Adding this asset in OwnedAssets list for minter.\r\n        account.updateAccountOwnedAssets(msg.sender, assetsCount, 1);\r\n\r\n        assets[assetsCount] = Asset(assetsCount, msg.sender, _assetFileHash, name_, _description, _categories, _royality);\r\n        \r\n        // safely minting new asset.\r\n       _safeMint(msg.sender, assetsCount);\r\n\r\n        // setting mapping for name_ to maintain uniqueness.\r\n        _assetNameExists[name_] = true;\r\n\r\n        emit NftAssetMinted(assetsCount, msg.sender, _assetFileHash, name_, _description, _categories, _royality);\r\n    }\r\n\r\n    function transferAssetOwnership(address _from, address _to, uint _tokenId) public {\r\n\r\n        // Check for existence of token whose ownership transfer is requested.\r\n        require(_exists(_tokenId));\r\n\r\n        account.updateAccountOwnedAssets(_to, _tokenId, 1);\r\n\r\n        account.updateAccountOwnedAssets(_from, _tokenId, 2);\r\n\r\n        // transfering ownership from _from to _to.\r\n        _transfer(_from, _to, _tokenId);\r\n\r\n        emit OwnershipTransfered(_from, _to, _tokenId);\r\n    }\r\n\r\n}",
  "sourcePath": "C:\\Users\\hp\\Desktop\\projects\\Encheres\\Frontend\\encheres-frontend\\src\\contracts\\NftAssets.sol",
  "compiler": {
    "name": "solc",
    "version": "0.8.9+commit.e5eed63a.Emscripten.clang"
  },
  "schemaVersion": "3.4.3",
  "updatedAt": "2021-10-26T18:18:43.382Z",
  "networkType": "ethereum",
  "devdoc": {
    "kind": "dev",
    "methods": {
      "approve(address,uint256)": {
        "details": "See {IERC721-approve}."
      },
      "balanceOf(address)": {
        "details": "See {IERC721-balanceOf}."
      },
      "getApproved(uint256)": {
        "details": "See {IERC721-getApproved}."
      },
      "isApprovedForAll(address,address)": {
        "details": "See {IERC721-isApprovedForAll}."
      },
      "name()": {
        "details": "See {IERC721Metadata-name}."
      },
      "ownerOf(uint256)": {
        "details": "See {IERC721-ownerOf}."
      },
      "safeTransferFrom(address,address,uint256)": {
        "details": "See {IERC721-safeTransferFrom}."
      },
      "safeTransferFrom(address,address,uint256,bytes)": {
        "details": "See {IERC721-safeTransferFrom}."
      },
      "setApprovalForAll(address,bool)": {
        "details": "See {IERC721-setApprovalForAll}."
      },
      "supportsInterface(bytes4)": {
        "details": "See {IERC165-supportsInterface}."
      },
      "symbol()": {
        "details": "See {IERC721Metadata-symbol}."
      },
      "tokenURI(uint256)": {
        "details": "See {IERC721Metadata-tokenURI}."
      },
      "transferFrom(address,address,uint256)": {
        "details": "See {IERC721-transferFrom}."
      }
    },
    "version": 1
  },
  "userdoc": {
    "kind": "user",
    "methods": {},
    "version": 1
  }
}