{
  "contractName": "NftAsset",
  "abi": [
    {
      "inputs": [],
      "stateMutability": "nonpayable",
      "type": "constructor"
    },
    {
      "anonymous": false,
      "inputs": [
        {
          "indexed": true,
          "internalType": "address",
          "name": "owner",
          "type": "address"
        },
        {
          "indexed": true,
          "internalType": "address",
          "name": "approved",
          "type": "address"
        },
        {
          "indexed": true,
          "internalType": "uint256",
          "name": "tokenId",
          "type": "uint256"
        }
      ],
      "name": "Approval",
      "type": "event"
    },
    {
      "anonymous": false,
      "inputs": [
        {
          "indexed": true,
          "internalType": "address",
          "name": "owner",
          "type": "address"
        },
        {
          "indexed": true,
          "internalType": "address",
          "name": "operator",
          "type": "address"
        },
        {
          "indexed": false,
          "internalType": "bool",
          "name": "approved",
          "type": "bool"
        }
      ],
      "name": "ApprovalForAll",
      "type": "event"
    },
    {
      "anonymous": false,
      "inputs": [
        {
          "indexed": false,
          "internalType": "uint256",
          "name": "tokenId",
          "type": "uint256"
        },
        {
          "indexed": false,
          "internalType": "address",
          "name": "creator",
          "type": "address"
        },
        {
          "indexed": false,
          "internalType": "string",
          "name": "assetFileHash",
          "type": "string"
        },
        {
          "indexed": false,
          "internalType": "string",
          "name": "name",
          "type": "string"
        },
        {
          "indexed": false,
          "internalType": "string",
          "name": "description",
          "type": "string"
        },
        {
          "indexed": false,
          "internalType": "uint256[]",
          "name": "categories",
          "type": "uint256[]"
        },
        {
          "indexed": false,
          "internalType": "string",
          "name": "royality",
          "type": "string"
        }
      ],
      "name": "NftAssetMinted",
      "type": "event"
    },
    {
      "anonymous": false,
      "inputs": [
        {
          "indexed": false,
          "internalType": "address",
          "name": "from",
          "type": "address"
        },
        {
          "indexed": false,
          "internalType": "address",
          "name": "to",
          "type": "address"
        },
        {
          "indexed": false,
          "internalType": "uint256",
          "name": "tokenId",
          "type": "uint256"
        }
      ],
      "name": "OwnershipTransfered",
      "type": "event"
    },
    {
      "anonymous": false,
      "inputs": [
        {
          "indexed": true,
          "internalType": "address",
          "name": "from",
          "type": "address"
        },
        {
          "indexed": true,
          "internalType": "address",
          "name": "to",
          "type": "address"
        },
        {
          "indexed": true,
          "internalType": "uint256",
          "name": "tokenId",
          "type": "uint256"
        }
      ],
      "name": "Transfer",
      "type": "event"
    },
    {
      "inputs": [
        {
          "internalType": "address",
          "name": "to",
          "type": "address"
        },
        {
          "internalType": "uint256",
          "name": "tokenId",
          "type": "uint256"
        }
      ],
      "name": "approve",
      "outputs": [],
      "stateMutability": "nonpayable",
      "type": "function"
    },
    {
      "inputs": [
        {
          "internalType": "uint256",
          "name": "",
          "type": "uint256"
        }
      ],
      "name": "assets",
      "outputs": [
        {
          "internalType": "uint256",
          "name": "tokenId",
          "type": "uint256"
        },
        {
          "internalType": "address",
          "name": "creator",
          "type": "address"
        },
        {
          "internalType": "string",
          "name": "assetFileHash",
          "type": "string"
        },
        {
          "internalType": "string",
          "name": "name",
          "type": "string"
        },
        {
          "internalType": "string",
          "name": "description",
          "type": "string"
        },
        {
          "internalType": "string",
          "name": "royality",
          "type": "string"
        }
      ],
      "stateMutability": "view",
      "type": "function",
      "constant": true
    },
    {
      "inputs": [],
      "name": "assetsCount",
      "outputs": [
        {
          "internalType": "uint256",
          "name": "",
          "type": "uint256"
        }
      ],
      "stateMutability": "view",
      "type": "function",
      "constant": true
    },
    {
      "inputs": [
        {
          "internalType": "address",
          "name": "owner",
          "type": "address"
        }
      ],
      "name": "balanceOf",
      "outputs": [
        {
          "internalType": "uint256",
          "name": "",
          "type": "uint256"
        }
      ],
      "stateMutability": "view",
      "type": "function",
      "constant": true
    },
    {
      "inputs": [
        {
          "internalType": "uint256",
          "name": "tokenId",
          "type": "uint256"
        }
      ],
      "name": "getApproved",
      "outputs": [
        {
          "internalType": "address",
          "name": "",
          "type": "address"
        }
      ],
      "stateMutability": "view",
      "type": "function",
      "constant": true
    },
    {
      "inputs": [
        {
          "internalType": "address",
          "name": "owner",
          "type": "address"
        },
        {
          "internalType": "address",
          "name": "operator",
          "type": "address"
        }
      ],
      "name": "isApprovedForAll",
      "outputs": [
        {
          "internalType": "bool",
          "name": "",
          "type": "bool"
        }
      ],
      "stateMutability": "view",
      "type": "function",
      "constant": true
    },
    {
      "inputs": [],
      "name": "name",
      "outputs": [
        {
          "internalType": "string",
          "name": "",
          "type": "string"
        }
      ],
      "stateMutability": "view",
      "type": "function",
      "constant": true
    },
    {
      "inputs": [
        {
          "internalType": "uint256",
          "name": "tokenId",
          "type": "uint256"
        }
      ],
      "name": "ownerOf",
      "outputs": [
        {
          "internalType": "address",
          "name": "",
          "type": "address"
        }
      ],
      "stateMutability": "view",
      "type": "function",
      "constant": true
    },
    {
      "inputs": [
        {
          "internalType": "address",
          "name": "from",
          "type": "address"
        },
        {
          "internalType": "address",
          "name": "to",
          "type": "address"
        },
        {
          "internalType": "uint256",
          "name": "tokenId",
          "type": "uint256"
        }
      ],
      "name": "safeTransferFrom",
      "outputs": [],
      "stateMutability": "nonpayable",
      "type": "function"
    },
    {
      "inputs": [
        {
          "internalType": "address",
          "name": "from",
          "type": "address"
        },
        {
          "internalType": "address",
          "name": "to",
          "type": "address"
        },
        {
          "internalType": "uint256",
          "name": "tokenId",
          "type": "uint256"
        },
        {
          "internalType": "bytes",
          "name": "_data",
          "type": "bytes"
        }
      ],
      "name": "safeTransferFrom",
      "outputs": [],
      "stateMutability": "nonpayable",
      "type": "function"
    },
    {
      "inputs": [
        {
          "internalType": "address",
          "name": "operator",
          "type": "address"
        },
        {
          "internalType": "bool",
          "name": "approved",
          "type": "bool"
        }
      ],
      "name": "setApprovalForAll",
      "outputs": [],
      "stateMutability": "nonpayable",
      "type": "function"
    },
    {
      "inputs": [
        {
          "internalType": "bytes4",
          "name": "interfaceId",
          "type": "bytes4"
        }
      ],
      "name": "supportsInterface",
      "outputs": [
        {
          "internalType": "bool",
          "name": "",
          "type": "bool"
        }
      ],
      "stateMutability": "view",
      "type": "function",
      "constant": true
    },
    {
      "inputs": [],
      "name": "symbol",
      "outputs": [
        {
          "internalType": "string",
          "name": "",
          "type": "string"
        }
      ],
      "stateMutability": "view",
      "type": "function",
      "constant": true
    },
    {
      "inputs": [
        {
          "internalType": "uint256",
          "name": "tokenId",
          "type": "uint256"
        }
      ],
      "name": "tokenURI",
      "outputs": [
        {
          "internalType": "string",
          "name": "",
          "type": "string"
        }
      ],
      "stateMutability": "view",
      "type": "function",
      "constant": true
    },
    {
      "inputs": [
        {
          "internalType": "address",
          "name": "from",
          "type": "address"
        },
        {
          "internalType": "address",
          "name": "to",
          "type": "address"
        },
        {
          "internalType": "uint256",
          "name": "tokenId",
          "type": "uint256"
        }
      ],
      "name": "transferFrom",
      "outputs": [],
      "stateMutability": "nonpayable",
      "type": "function"
    },
    {
      "inputs": [
        {
          "internalType": "string",
          "name": "name_",
          "type": "string"
        },
        {
          "internalType": "string",
          "name": "_assetFileHash",
          "type": "string"
        },
        {
          "internalType": "string",
          "name": "_description",
          "type": "string"
        },
        {
          "internalType": "uint256[]",
          "name": "_categories",
          "type": "uint256[]"
        },
        {
          "internalType": "string",
          "name": "_royality",
          "type": "string"
        }
      ],
      "name": "mintNftAsset",
      "outputs": [],
      "stateMutability": "nonpayable",
      "type": "function"
    },
    {
      "inputs": [
        {
          "internalType": "address",
          "name": "_from",
          "type": "address"
        },
        {
          "internalType": "address",
          "name": "_to",
          "type": "address"
        },
        {
          "internalType": "uint256",
          "name": "_tokenId",
          "type": "uint256"
        }
      ],
      "name": "transferAssetOwnership",
      "outputs": [],
      "stateMutability": "nonpayable",
      "type": "function"
    },
    {
      "inputs": [
        {
          "internalType": "uint256",
          "name": "_tokenId",
          "type": "uint256"
        }
      ],
      "name": "getAssetCategories",
      "outputs": [
        {
          "internalType": "uint256[]",
          "name": "",
          "type": "uint256[]"
        },
        {
          "internalType": "uint256",
          "name": "",
          "type": "uint256"
        }
      ],
      "stateMutability": "view",
      "type": "function",
      "constant": true
    },
    {
      "inputs": [],
      "name": "getAccountCreatedAssets",
      "outputs": [
        {
          "internalType": "uint256[]",
          "name": "",
          "type": "uint256[]"
        },
        {
          "internalType": "uint256",
          "name": "",
          "type": "uint256"
        }
      ],
      "stateMutability": "view",
      "type": "function",
      "constant": true
    },
    {
      "inputs": [],
      "name": "getAccountOwnedAssets",
      "outputs": [
        {
          "internalType": "uint256[]",
          "name": "",
          "type": "uint256[]"
        },
        {
          "internalType": "uint256",
          "name": "",
          "type": "uint256"
        }
      ],
      "stateMutability": "view",
      "type": "function",
      "constant": true
    }
  ],
  "bytecode": "0x60806040526000600655604051620000179062000129565b604051809103906000f08015801562000034573d6000803e3d6000fd5b50600960006101000a81548173ffffffffffffffffffffffffffffffffffffffff021916908373ffffffffffffffffffffffffffffffffffffffff1602179055503480156200008257600080fd5b506040518060400160405280600881526020017f4e667441737365740000000000000000000000000000000000000000000000008152506040518060400160405280600881526020017f4e4654415353455400000000000000000000000000000000000000000000000081525081600090805190602001906200010792919062000137565b5080600190805190602001906200012092919062000137565b5050506200024c565b6118d08062003bbc83390190565b828054620001459062000216565b90600052602060002090601f016020900481019282620001695760008555620001b5565b82601f106200018457805160ff1916838001178555620001b5565b82800160010185558215620001b5579182015b82811115620001b457825182559160200191906001019062000197565b5b509050620001c49190620001c8565b5090565b5b80821115620001e3576000816000905550600101620001c9565b5090565b7f4e487b7100000000000000000000000000000000000000000000000000000000600052602260045260246000fd5b600060028204905060018216806200022f57607f821691505b60208210811415620002465762000245620001e7565b5b50919050565b613960806200025c6000396000f3fe608060405234801561001057600080fd5b506004361061012c5760003560e01c80636352211e116100ad578063c060c10c11610071578063c060c10c14610344578063c87b56dd14610360578063cd9df19014610390578063cf35bdd0146103ae578063e985e9c5146103e35761012c565b80636352211e1461028e57806370a08231146102be57806395d89b41146102ee578063a22cb4651461030c578063b88d4fde146103285761012c565b806323b872dd116100f457806323b872dd146101fc57806326539b6f1461021857806327c0e7661461023757806342842e0e146102535780634b69ff101461026f5761012c565b806301ffc9a71461013157806306fdde0314610161578063081812fc1461017f578063095ea7b3146101af5780631b6836c6146101cb575b600080fd5b61014b60048036038101906101469190612209565b610413565b6040516101589190612251565b60405180910390f35b6101696104f5565b6040516101769190612305565b60405180910390f35b6101996004803603810190610194919061235d565b610587565b6040516101a691906123cb565b60405180910390f35b6101c960048036038101906101c49190612412565b61060c565b005b6101e560048036038101906101e0919061235d565b610724565b6040516101f392919061251f565b60405180910390f35b6102166004803603810190610211919061254f565b6107b6565b005b610220610816565b60405161022e92919061251f565b60405180910390f35b610251600480360381019061024c919061279f565b6108d2565b005b61026d6004803603810190610268919061254f565b610c19565b005b610277610c39565b60405161028592919061251f565b60405180910390f35b6102a860048036038101906102a3919061235d565b610cf5565b6040516102b591906123cb565b60405180910390f35b6102d860048036038101906102d391906128a6565b610da7565b6040516102e591906128d3565b60405180910390f35b6102f6610e5f565b6040516103039190612305565b60405180910390f35b6103266004803603810190610321919061291a565b610ef1565b005b610342600480360381019061033d91906129fb565b611072565b005b61035e6004803603810190610359919061254f565b6110d4565b005b61037a6004803603810190610375919061235d565b611255565b6040516103879190612305565b60405180910390f35b6103986112fc565b6040516103a591906128d3565b60405180910390f35b6103c860048036038101906103c3919061235d565b611302565b6040516103da96959493929190612a7e565b60405180910390f35b6103fd60048036038101906103f89190612afb565b61157e565b60405161040a9190612251565b60405180910390f35b60007f80ac58cd000000000000000000000000000000000000000000000000000000007bffffffffffffffffffffffffffffffffffffffffffffffffffffffff1916827bffffffffffffffffffffffffffffffffffffffffffffffffffffffff191614806104de57507f5b5e139f000000000000000000000000000000000000000000000000000000007bffffffffffffffffffffffffffffffffffffffffffffffffffffffff1916827bffffffffffffffffffffffffffffffffffffffffffffffffffffffff1916145b806104ee57506104ed82611612565b5b9050919050565b60606000805461050490612b6a565b80601f016020809104026020016040519081016040528092919081815260200182805461053090612b6a565b801561057d5780601f106105525761010080835404028352916020019161057d565b820191906000526020600020905b81548152906001019060200180831161056057829003601f168201915b5050505050905090565b60006105928261167c565b6105d1576040517f08c379a00000000000000000000000000000000000000000000000000000000081526004016105c890612c0e565b60405180910390fd5b6004600083815260200190815260200160002060009054906101000a900473ffffffffffffffffffffffffffffffffffffffff169050919050565b600061061782610cf5565b90508073ffffffffffffffffffffffffffffffffffffffff168373ffffffffffffffffffffffffffffffffffffffff161415610688576040517f08c379a000000000000000000000000000000000000000000000000000000000815260040161067f90612ca0565b60405180910390fd5b8073ffffffffffffffffffffffffffffffffffffffff166106a76116e8565b73ffffffffffffffffffffffffffffffffffffffff1614806106d657506106d5816106d06116e8565b61157e565b5b610715576040517f08c379a000000000000000000000000000000000000000000000000000000000815260040161070c90612d32565b60405180910390fd5b61071f83836116f0565b505050565b606060006107318361167c565b61073a57600080fd5b60006007600085815260200190815260200160002090506000816005018054806020026020016040519081016040528092919081815260200182805480156107a157602002820191906000526020600020905b81548152602001906001019080831161078d575b50505050509050808151935093505050915091565b6107c76107c16116e8565b826117a9565b610806576040517f08c379a00000000000000000000000000000000000000000000000000000000081526004016107fd90612dc4565b60405180910390fd5b610811838383611887565b505050565b60606000600960009054906101000a900473ffffffffffffffffffffffffffffffffffffffff1673ffffffffffffffffffffffffffffffffffffffff1663cb6a80e2336040518263ffffffff1660e01b815260040161087591906123cb565b60006040518083038186803b15801561088d57600080fd5b505afa1580156108a1573d6000803e3d6000fd5b505050506040513d6000823e3d601f19601f820116820180604052508101906108ca9190612e90565b915091509091565b6008856040516108e29190612f28565b908152602001604051809103902060009054906101000a900460ff161561090857600080fd5b6006600081548092919061091b90612f6e565b9190505550600960009054906101000a900473ffffffffffffffffffffffffffffffffffffffff1673ffffffffffffffffffffffffffffffffffffffff1663a0edc501336006546040518363ffffffff1660e01b815260040161097f929190612fb7565b600060405180830381600087803b15801561099957600080fd5b505af11580156109ad573d6000803e3d6000fd5b50505050600960009054906101000a900473ffffffffffffffffffffffffffffffffffffffff1673ffffffffffffffffffffffffffffffffffffffff1663da3388643360065460016040518463ffffffff1660e01b8152600401610a1393929190613025565b600060405180830381600087803b158015610a2d57600080fd5b505af1158015610a41573d6000803e3d6000fd5b505050506040518060e0016040528060065481526020013373ffffffffffffffffffffffffffffffffffffffff168152602001858152602001868152602001848152602001838152602001828152506007600060065481526020019081526020016000206000820151816000015560208201518160010160006101000a81548173ffffffffffffffffffffffffffffffffffffffff021916908373ffffffffffffffffffffffffffffffffffffffff1602179055506040820151816002019080519060200190610b129291906120ad565b506060820151816003019080519060200190610b2f9291906120ad565b506080820151816004019080519060200190610b4c9291906120ad565b5060a0820151816005019080519060200190610b69929190612133565b5060c0820151816006019080519060200190610b869291906120ad565b50905050610b9633600654611ae3565b6001600886604051610ba89190612f28565b908152602001604051809103902060006101000a81548160ff0219169083151502179055507fd92b307f01d4b80caae1bd10132543e1ca712e4c601e8cee1e3ff3bf5cde4499600654338688878787604051610c0a979695949392919061305c565b60405180910390a15050505050565b610c3483838360405180602001604052806000815250611072565b505050565b60606000600960009054906101000a900473ffffffffffffffffffffffffffffffffffffffff1673ffffffffffffffffffffffffffffffffffffffff16634991dd69336040518263ffffffff1660e01b8152600401610c9891906123cb565b60006040518083038186803b158015610cb057600080fd5b505afa158015610cc4573d6000803e3d6000fd5b505050506040513d6000823e3d601f19601f82011682018060405250810190610ced9190612e90565b915091509091565b6000806002600084815260200190815260200160002060009054906101000a900473ffffffffffffffffffffffffffffffffffffffff169050600073ffffffffffffffffffffffffffffffffffffffff168173ffffffffffffffffffffffffffffffffffffffff161415610d9e576040517f08c379a0000000000000000000000000000000000000000000000000000000008152600401610d9590613160565b60405180910390fd5b80915050919050565b60008073ffffffffffffffffffffffffffffffffffffffff168273ffffffffffffffffffffffffffffffffffffffff161415610e18576040517f08c379a0000000000000000000000000000000000000000000000000000000008152600401610e0f906131f2565b60405180910390fd5b600360008373ffffffffffffffffffffffffffffffffffffffff1673ffffffffffffffffffffffffffffffffffffffff168152602001908152602001600020549050919050565b606060018054610e6e90612b6a565b80601f0160208091040260200160405190810160405280929190818152602001828054610e9a90612b6a565b8015610ee75780601f10610ebc57610100808354040283529160200191610ee7565b820191906000526020600020905b815481529060010190602001808311610eca57829003601f168201915b5050505050905090565b610ef96116e8565b73ffffffffffffffffffffffffffffffffffffffff168273ffffffffffffffffffffffffffffffffffffffff161415610f67576040517f08c379a0000000000000000000000000000000000000000000000000000000008152600401610f5e9061325e565b60405180910390fd5b8060056000610f746116e8565b73ffffffffffffffffffffffffffffffffffffffff1673ffffffffffffffffffffffffffffffffffffffff16815260200190815260200160002060008473ffffffffffffffffffffffffffffffffffffffff1673ffffffffffffffffffffffffffffffffffffffff16815260200190815260200160002060006101000a81548160ff0219169083151502179055508173ffffffffffffffffffffffffffffffffffffffff166110216116e8565b73ffffffffffffffffffffffffffffffffffffffff167f17307eab39ab6107e8899845ad3d59bd9653f200f220920489ca2b5937696c31836040516110669190612251565b60405180910390a35050565b61108361107d6116e8565b836117a9565b6110c2576040517f08c379a00000000000000000000000000000000000000000000000000000000081526004016110b990612dc4565b60405180910390fd5b6110ce84848484611b01565b50505050565b6110dd8161167c565b6110e657600080fd5b600960009054906101000a900473ffffffffffffffffffffffffffffffffffffffff1673ffffffffffffffffffffffffffffffffffffffff1663da338864838360016040518463ffffffff1660e01b815260040161114693929190613025565b600060405180830381600087803b15801561116057600080fd5b505af1158015611174573d6000803e3d6000fd5b50505050600960009054906101000a900473ffffffffffffffffffffffffffffffffffffffff1673ffffffffffffffffffffffffffffffffffffffff1663da338864848360026040518463ffffffff1660e01b81526004016111d8939291906132b9565b600060405180830381600087803b1580156111f257600080fd5b505af1158015611206573d6000803e3d6000fd5b50505050611215838383611887565b7f3d34dd6bb4d02318149b3fec898d6ca749f096cb01d8cfc1ad602f0fbd85d41d838383604051611248939291906132f0565b60405180910390a1505050565b60606112608261167c565b61129f576040517f08c379a000000000000000000000000000000000000000000000000000000000815260040161129690613399565b60405180910390fd5b60006112a9611b5d565b905060008151116112c957604051806020016040528060008152506112f4565b806112d384611b74565b6040516020016112e49291906133b9565b6040516020818303038152906040525b915050919050565b60065481565b60076020528060005260406000206000915090508060000154908060010160009054906101000a900473ffffffffffffffffffffffffffffffffffffffff169080600201805461135190612b6a565b80601f016020809104026020016040519081016040528092919081815260200182805461137d90612b6a565b80156113ca5780601f1061139f576101008083540402835291602001916113ca565b820191906000526020600020905b8154815290600101906020018083116113ad57829003601f168201915b5050505050908060030180546113df90612b6a565b80601f016020809104026020016040519081016040528092919081815260200182805461140b90612b6a565b80156114585780601f1061142d57610100808354040283529160200191611458565b820191906000526020600020905b81548152906001019060200180831161143b57829003601f168201915b50505050509080600401805461146d90612b6a565b80601f016020809104026020016040519081016040528092919081815260200182805461149990612b6a565b80156114e65780601f106114bb576101008083540402835291602001916114e6565b820191906000526020600020905b8154815290600101906020018083116114c957829003601f168201915b5050505050908060060180546114fb90612b6a565b80601f016020809104026020016040519081016040528092919081815260200182805461152790612b6a565b80156115745780601f1061154957610100808354040283529160200191611574565b820191906000526020600020905b81548152906001019060200180831161155757829003601f168201915b5050505050905086565b6000600560008473ffffffffffffffffffffffffffffffffffffffff1673ffffffffffffffffffffffffffffffffffffffff16815260200190815260200160002060008373ffffffffffffffffffffffffffffffffffffffff1673ffffffffffffffffffffffffffffffffffffffff16815260200190815260200160002060009054906101000a900460ff16905092915050565b60007f01ffc9a7000000000000000000000000000000000000000000000000000000007bffffffffffffffffffffffffffffffffffffffffffffffffffffffff1916827bffffffffffffffffffffffffffffffffffffffffffffffffffffffff1916149050919050565b60008073ffffffffffffffffffffffffffffffffffffffff166002600084815260200190815260200160002060009054906101000a900473ffffffffffffffffffffffffffffffffffffffff1673ffffffffffffffffffffffffffffffffffffffff1614159050919050565b600033905090565b816004600083815260200190815260200160002060006101000a81548173ffffffffffffffffffffffffffffffffffffffff021916908373ffffffffffffffffffffffffffffffffffffffff160217905550808273ffffffffffffffffffffffffffffffffffffffff1661176383610cf5565b73ffffffffffffffffffffffffffffffffffffffff167f8c5be1e5ebec7d5bd14f71427d1e84f3dd0314c0f7b2291e5b200ac8c7c3b92560405160405180910390a45050565b60006117b48261167c565b6117f3576040517f08c379a00000000000000000000000000000000000000000000000000000000081526004016117ea9061344f565b60405180910390fd5b60006117fe83610cf5565b90508073ffffffffffffffffffffffffffffffffffffffff168473ffffffffffffffffffffffffffffffffffffffff16148061186d57508373ffffffffffffffffffffffffffffffffffffffff1661185584610587565b73ffffffffffffffffffffffffffffffffffffffff16145b8061187e575061187d818561157e565b5b91505092915050565b8273ffffffffffffffffffffffffffffffffffffffff166118a782610cf5565b73ffffffffffffffffffffffffffffffffffffffff16146118fd576040517f08c379a00000000000000000000000000000000000000000000000000000000081526004016118f4906134e1565b60405180910390fd5b600073ffffffffffffffffffffffffffffffffffffffff168273ffffffffffffffffffffffffffffffffffffffff16141561196d576040517f08c379a000000000000000000000000000000000000000000000000000000000815260040161196490613573565b60405180910390fd5b611978838383611cd5565b6119836000826116f0565b6001600360008573ffffffffffffffffffffffffffffffffffffffff1673ffffffffffffffffffffffffffffffffffffffff16815260200190815260200160002060008282546119d39190613593565b925050819055506001600360008473ffffffffffffffffffffffffffffffffffffffff1673ffffffffffffffffffffffffffffffffffffffff1681526020019081526020016000206000828254611a2a91906135c7565b92505081905550816002600083815260200190815260200160002060006101000a81548173ffffffffffffffffffffffffffffffffffffffff021916908373ffffffffffffffffffffffffffffffffffffffff160217905550808273ffffffffffffffffffffffffffffffffffffffff168473ffffffffffffffffffffffffffffffffffffffff167fddf252ad1be2c89b69c2b068fc378daa952ba7f163c4a11628f55a4df523b3ef60405160405180910390a4505050565b611afd828260405180602001604052806000815250611cda565b5050565b611b0c848484611887565b611b1884848484611d35565b611b57576040517f08c379a0000000000000000000000000000000000000000000000000000000008152600401611b4e9061368f565b60405180910390fd5b50505050565b606060405180602001604052806000815250905090565b60606000821415611bbc576040518060400160405280600181526020017f30000000000000000000000000000000000000000000000000000000000000008152509050611cd0565b600082905060005b60008214611bee578080611bd790612f6e565b915050600a82611be791906136de565b9150611bc4565b60008167ffffffffffffffff811115611c0a57611c096125ac565b5b6040519080825280601f01601f191660200182016040528015611c3c5781602001600182028036833780820191505090505b5090505b60008514611cc957600182611c559190613593565b9150600a85611c64919061370f565b6030611c7091906135c7565b60f81b818381518110611c8657611c85613740565b5b60200101907effffffffffffffffffffffffffffffffffffffffffffffffffffffffffffff1916908160001a905350600a85611cc291906136de565b9450611c40565b8093505050505b919050565b505050565b611ce48383611ecc565b611cf16000848484611d35565b611d30576040517f08c379a0000000000000000000000000000000000000000000000000000000008152600401611d279061368f565b60405180910390fd5b505050565b6000611d568473ffffffffffffffffffffffffffffffffffffffff1661209a565b15611ebf578373ffffffffffffffffffffffffffffffffffffffff1663150b7a02611d7f6116e8565b8786866040518563ffffffff1660e01b8152600401611da194939291906137c4565b602060405180830381600087803b158015611dbb57600080fd5b505af1925050508015611dec57506040513d601f19601f82011682018060405250810190611de99190613825565b60015b611e6f573d8060008114611e1c576040519150601f19603f3d011682016040523d82523d6000602084013e611e21565b606091505b50600081511415611e67576040517f08c379a0000000000000000000000000000000000000000000000000000000008152600401611e5e9061368f565b60405180910390fd5b805181602001fd5b63150b7a0260e01b7bffffffffffffffffffffffffffffffffffffffffffffffffffffffff1916817bffffffffffffffffffffffffffffffffffffffffffffffffffffffff191614915050611ec4565b600190505b949350505050565b600073ffffffffffffffffffffffffffffffffffffffff168273ffffffffffffffffffffffffffffffffffffffff161415611f3c576040517f08c379a0000000000000000000000000000000000000000000000000000000008152600401611f339061389e565b60405180910390fd5b611f458161167c565b15611f85576040517f08c379a0000000000000000000000000000000000000000000000000000000008152600401611f7c9061390a565b60405180910390fd5b611f9160008383611cd5565b6001600360008473ffffffffffffffffffffffffffffffffffffffff1673ffffffffffffffffffffffffffffffffffffffff1681526020019081526020016000206000828254611fe191906135c7565b92505081905550816002600083815260200190815260200160002060006101000a81548173ffffffffffffffffffffffffffffffffffffffff021916908373ffffffffffffffffffffffffffffffffffffffff160217905550808273ffffffffffffffffffffffffffffffffffffffff16600073ffffffffffffffffffffffffffffffffffffffff167fddf252ad1be2c89b69c2b068fc378daa952ba7f163c4a11628f55a4df523b3ef60405160405180910390a45050565b600080823b905060008111915050919050565b8280546120b990612b6a565b90600052602060002090601f0160209004810192826120db5760008555612122565b82601f106120f457805160ff1916838001178555612122565b82800160010185558215612122579182015b82811115612121578251825591602001919060010190612106565b5b50905061212f9190612180565b5090565b82805482825590600052602060002090810192821561216f579160200282015b8281111561216e578251825591602001919060010190612153565b5b50905061217c9190612180565b5090565b5b80821115612199576000816000905550600101612181565b5090565b6000604051905090565b600080fd5b600080fd5b60007fffffffff0000000000000000000000000000000000000000000000000000000082169050919050565b6121e6816121b1565b81146121f157600080fd5b50565b600081359050612203816121dd565b92915050565b60006020828403121561221f5761221e6121a7565b5b600061222d848285016121f4565b91505092915050565b60008115159050919050565b61224b81612236565b82525050565b60006020820190506122666000830184612242565b92915050565b600081519050919050565b600082825260208201905092915050565b60005b838110156122a657808201518184015260208101905061228b565b838111156122b5576000848401525b50505050565b6000601f19601f8301169050919050565b60006122d78261226c565b6122e18185612277565b93506122f1818560208601612288565b6122fa816122bb565b840191505092915050565b6000602082019050818103600083015261231f81846122cc565b905092915050565b6000819050919050565b61233a81612327565b811461234557600080fd5b50565b60008135905061235781612331565b92915050565b600060208284031215612373576123726121a7565b5b600061238184828501612348565b91505092915050565b600073ffffffffffffffffffffffffffffffffffffffff82169050919050565b60006123b58261238a565b9050919050565b6123c5816123aa565b82525050565b60006020820190506123e060008301846123bc565b92915050565b6123ef816123aa565b81146123fa57600080fd5b50565b60008135905061240c816123e6565b92915050565b60008060408385031215612429576124286121a7565b5b6000612437858286016123fd565b925050602061244885828601612348565b9150509250929050565b600081519050919050565b600082825260208201905092915050565b6000819050602082019050919050565b61248781612327565b82525050565b6000612499838361247e565b60208301905092915050565b6000602082019050919050565b60006124bd82612452565b6124c7818561245d565b93506124d28361246e565b8060005b838110156125035781516124ea888261248d565b97506124f5836124a5565b9250506001810190506124d6565b5085935050505092915050565b61251981612327565b82525050565b6000604082019050818103600083015261253981856124b2565b90506125486020830184612510565b9392505050565b600080600060608486031215612568576125676121a7565b5b6000612576868287016123fd565b9350506020612587868287016123fd565b925050604061259886828701612348565b9150509250925092565b600080fd5b600080fd5b7f4e487b7100000000000000000000000000000000000000000000000000000000600052604160045260246000fd5b6125e4826122bb565b810181811067ffffffffffffffff82111715612603576126026125ac565b5b80604052505050565b600061261661219d565b905061262282826125db565b919050565b600067ffffffffffffffff821115612642576126416125ac565b5b61264b826122bb565b9050602081019050919050565b82818337600083830152505050565b600061267a61267584612627565b61260c565b905082815260208101848484011115612696576126956125a7565b5b6126a1848285612658565b509392505050565b600082601f8301126126be576126bd6125a2565b5b81356126ce848260208601612667565b91505092915050565b600067ffffffffffffffff8211156126f2576126f16125ac565b5b602082029050602081019050919050565b600080fd5b600061271b612716846126d7565b61260c565b9050808382526020820190506020840283018581111561273e5761273d612703565b5b835b8181101561276757806127538882612348565b845260208401935050602081019050612740565b5050509392505050565b600082601f830112612786576127856125a2565b5b8135612796848260208601612708565b91505092915050565b600080600080600060a086880312156127bb576127ba6121a7565b5b600086013567ffffffffffffffff8111156127d9576127d86121ac565b5b6127e5888289016126a9565b955050602086013567ffffffffffffffff811115612806576128056121ac565b5b612812888289016126a9565b945050604086013567ffffffffffffffff811115612833576128326121ac565b5b61283f888289016126a9565b935050606086013567ffffffffffffffff8111156128605761285f6121ac565b5b61286c88828901612771565b925050608086013567ffffffffffffffff81111561288d5761288c6121ac565b5b612899888289016126a9565b9150509295509295909350565b6000602082840312156128bc576128bb6121a7565b5b60006128ca848285016123fd565b91505092915050565b60006020820190506128e86000830184612510565b92915050565b6128f781612236565b811461290257600080fd5b50565b600081359050612914816128ee565b92915050565b60008060408385031215612931576129306121a7565b5b600061293f858286016123fd565b925050602061295085828601612905565b9150509250929050565b600067ffffffffffffffff821115612975576129746125ac565b5b61297e826122bb565b9050602081019050919050565b600061299e6129998461295a565b61260c565b9050828152602081018484840111156129ba576129b96125a7565b5b6129c5848285612658565b509392505050565b600082601f8301126129e2576129e16125a2565b5b81356129f284826020860161298b565b91505092915050565b60008060008060808587031215612a1557612a146121a7565b5b6000612a23878288016123fd565b9450506020612a34878288016123fd565b9350506040612a4587828801612348565b925050606085013567ffffffffffffffff811115612a6657612a656121ac565b5b612a72878288016129cd565b91505092959194509250565b600060c082019050612a936000830189612510565b612aa060208301886123bc565b8181036040830152612ab281876122cc565b90508181036060830152612ac681866122cc565b90508181036080830152612ada81856122cc565b905081810360a0830152612aee81846122cc565b9050979650505050505050565b60008060408385031215612b1257612b116121a7565b5b6000612b20858286016123fd565b9250506020612b31858286016123fd565b9150509250929050565b7f4e487b7100000000000000000000000000000000000000000000000000000000600052602260045260246000fd5b60006002820490506001821680612b8257607f821691505b60208210811415612b9657612b95612b3b565b5b50919050565b7f4552433732313a20617070726f76656420717565727920666f72206e6f6e657860008201527f697374656e7420746f6b656e0000000000000000000000000000000000000000602082015250565b6000612bf8602c83612277565b9150612c0382612b9c565b604082019050919050565b60006020820190508181036000830152612c2781612beb565b9050919050565b7f4552433732313a20617070726f76616c20746f2063757272656e74206f776e6560008201527f7200000000000000000000000000000000000000000000000000000000000000602082015250565b6000612c8a602183612277565b9150612c9582612c2e565b604082019050919050565b60006020820190508181036000830152612cb981612c7d565b9050919050565b7f4552433732313a20617070726f76652063616c6c6572206973206e6f74206f7760008201527f6e6572206e6f7220617070726f76656420666f7220616c6c0000000000000000602082015250565b6000612d1c603883612277565b9150612d2782612cc0565b604082019050919050565b60006020820190508181036000830152612d4b81612d0f565b9050919050565b7f4552433732313a207472616e736665722063616c6c6572206973206e6f74206f60008201527f776e6572206e6f7220617070726f766564000000000000000000000000000000602082015250565b6000612dae603183612277565b9150612db982612d52565b604082019050919050565b60006020820190508181036000830152612ddd81612da1565b9050919050565b600081519050612df381612331565b92915050565b6000612e0c612e07846126d7565b61260c565b90508083825260208201905060208402830185811115612e2f57612e2e612703565b5b835b81811015612e585780612e448882612de4565b845260208401935050602081019050612e31565b5050509392505050565b600082601f830112612e7757612e766125a2565b5b8151612e87848260208601612df9565b91505092915050565b60008060408385031215612ea757612ea66121a7565b5b600083015167ffffffffffffffff811115612ec557612ec46121ac565b5b612ed185828601612e62565b9250506020612ee285828601612de4565b9150509250929050565b600081905092915050565b6000612f028261226c565b612f0c8185612eec565b9350612f1c818560208601612288565b80840191505092915050565b6000612f348284612ef7565b915081905092915050565b7f4e487b7100000000000000000000000000000000000000000000000000000000600052601160045260246000fd5b6000612f7982612327565b91507fffffffffffffffffffffffffffffffffffffffffffffffffffffffffffffffff821415612fac57612fab612f3f565b5b600182019050919050565b6000604082019050612fcc60008301856123bc565b612fd96020830184612510565b9392505050565b6000819050919050565b6000819050919050565b600061300f61300a61300584612fe0565b612fea565b612327565b9050919050565b61301f81612ff4565b82525050565b600060608201905061303a60008301866123bc565b6130476020830185612510565b6130546040830184613016565b949350505050565b600060e082019050613071600083018a612510565b61307e60208301896123bc565b818103604083015261309081886122cc565b905081810360608301526130a481876122cc565b905081810360808301526130b881866122cc565b905081810360a08301526130cc81856124b2565b905081810360c08301526130e081846122cc565b905098975050505050505050565b7f4552433732313a206f776e657220717565727920666f72206e6f6e657869737460008201527f656e7420746f6b656e0000000000000000000000000000000000000000000000602082015250565b600061314a602983612277565b9150613155826130ee565b604082019050919050565b600060208201905081810360008301526131798161313d565b9050919050565b7f4552433732313a2062616c616e636520717565727920666f7220746865207a6560008201527f726f206164647265737300000000000000000000000000000000000000000000602082015250565b60006131dc602a83612277565b91506131e782613180565b604082019050919050565b6000602082019050818103600083015261320b816131cf565b9050919050565b7f4552433732313a20617070726f766520746f2063616c6c657200000000000000600082015250565b6000613248601983612277565b915061325382613212565b602082019050919050565b600060208201905081810360008301526132778161323b565b9050919050565b6000819050919050565b60006132a361329e6132998461327e565b612fea565b612327565b9050919050565b6132b381613288565b82525050565b60006060820190506132ce60008301866123bc565b6132db6020830185612510565b6132e860408301846132aa565b949350505050565b600060608201905061330560008301866123bc565b61331260208301856123bc565b61331f6040830184612510565b949350505050565b7f4552433732314d657461646174613a2055524920717565727920666f72206e6f60008201527f6e6578697374656e7420746f6b656e0000000000000000000000000000000000602082015250565b6000613383602f83612277565b915061338e82613327565b604082019050919050565b600060208201905081810360008301526133b281613376565b9050919050565b60006133c58285612ef7565b91506133d18284612ef7565b91508190509392505050565b7f4552433732313a206f70657261746f7220717565727920666f72206e6f6e657860008201527f697374656e7420746f6b656e0000000000000000000000000000000000000000602082015250565b6000613439602c83612277565b9150613444826133dd565b604082019050919050565b600060208201905081810360008301526134688161342c565b9050919050565b7f4552433732313a207472616e73666572206f6620746f6b656e2074686174206960008201527f73206e6f74206f776e0000000000000000000000000000000000000000000000602082015250565b60006134cb602983612277565b91506134d68261346f565b604082019050919050565b600060208201905081810360008301526134fa816134be565b9050919050565b7f4552433732313a207472616e7366657220746f20746865207a65726f2061646460008201527f7265737300000000000000000000000000000000000000000000000000000000602082015250565b600061355d602483612277565b915061356882613501565b604082019050919050565b6000602082019050818103600083015261358c81613550565b9050919050565b600061359e82612327565b91506135a983612327565b9250828210156135bc576135bb612f3f565b5b828203905092915050565b60006135d282612327565b91506135dd83612327565b9250827fffffffffffffffffffffffffffffffffffffffffffffffffffffffffffffffff0382111561361257613611612f3f565b5b828201905092915050565b7f4552433732313a207472616e7366657220746f206e6f6e20455243373231526560008201527f63656976657220696d706c656d656e7465720000000000000000000000000000602082015250565b6000613679603283612277565b91506136848261361d565b604082019050919050565b600060208201905081810360008301526136a88161366c565b9050919050565b7f4e487b7100000000000000000000000000000000000000000000000000000000600052601260045260246000fd5b60006136e982612327565b91506136f483612327565b925082613704576137036136af565b5b828204905092915050565b600061371a82612327565b915061372583612327565b925082613735576137346136af565b5b828206905092915050565b7f4e487b7100000000000000000000000000000000000000000000000000000000600052603260045260246000fd5b600081519050919050565b600082825260208201905092915050565b60006137968261376f565b6137a0818561377a565b93506137b0818560208601612288565b6137b9816122bb565b840191505092915050565b60006080820190506137d960008301876123bc565b6137e660208301866123bc565b6137f36040830185612510565b8181036060830152613805818461378b565b905095945050505050565b60008151905061381f816121dd565b92915050565b60006020828403121561383b5761383a6121a7565b5b600061384984828501613810565b91505092915050565b7f4552433732313a206d696e7420746f20746865207a65726f2061646472657373600082015250565b6000613888602083612277565b915061389382613852565b602082019050919050565b600060208201905081810360008301526138b78161387b565b9050919050565b7f4552433732313a20746f6b656e20616c7265616479206d696e74656400000000600082015250565b60006138f4601c83612277565b91506138ff826138be565b602082019050919050565b60006020820190508181036000830152613923816138e7565b905091905056fea2646970667358221220e6e163da50ef839d766f3a3ab474b72b9f2ca010acbbce80d1389f2fb93ed2ce64736f6c6343000809003360806040526040518060400160405280600781526020017f4163636f756e740000000000000000000000000000000000000000000000000081525060009080519060200190620000519291906200006b565b5060006001553480156200006457600080fd5b5062000180565b82805462000079906200014a565b90600052602060002090601f0160209004810192826200009d5760008555620000e9565b82601f10620000b857805160ff1916838001178555620000e9565b82800160010185558215620000e9579182015b82811115620000e8578251825591602001919060010190620000cb565b5b509050620000f89190620000fc565b5090565b5b8082111562000117576000816000905550600101620000fd565b5090565b7f4e487b7100000000000000000000000000000000000000000000000000000000600052602260045260246000fd5b600060028204905060018216806200016357607f821691505b602082108114156200017a57620001796200011b565b5b50919050565b61174080620001906000396000f3fe60806040526004361061009c5760003560e01c806396dae7371161006457806396dae7371461019c57806399b956a0146101b8578063a0edc501146101f7578063b985e8d814610220578063cb6a80e214610249578063da338864146102875761009c565b806306fdde03146100a15780631e251b73146100cc578063298daf5b1461010a5780634991dd69146101335780636ba13a8214610171575b600080fd5b3480156100ad57600080fd5b506100b66102b0565b6040516100c39190610f22565b60405180910390f35b3480156100d857600080fd5b506100f360048036038101906100ee9190610fb6565b61033e565b6040516101019291906110ba565b60405180910390f35b34801561011657600080fd5b50610131600480360381019061012c919061121f565b6103e9565b005b34801561013f57600080fd5b5061015a60048036038101906101559190610fb6565b610757565b6040516101689291906110ba565b60405180910390f35b34801561017d57600080fd5b50610186610802565b6040516101939190611268565b60405180910390f35b6101b660048036038101906101b19190610fb6565b610808565b005b3480156101c457600080fd5b506101df60048036038101906101da9190610fb6565b610898565b6040516101ee93929190611292565b60405180910390f35b34801561020357600080fd5b5061021e600480360381019061021991906112fc565b61096a565b005b34801561022c57600080fd5b50610247600480360381019061024291906112fc565b610a1b565b005b34801561025557600080fd5b50610270600480360381019061026b9190610fb6565b610acc565b60405161027e9291906110ba565b60405180910390f35b34801561029357600080fd5b506102ae60048036038101906102a9919061133c565b610b77565b005b600080546102bd906113be565b80601f01602080910402602001604051908101604052809291908181526020018280546102e9906113be565b80156103365780601f1061030b57610100808354040283529160200191610336565b820191906000526020600020905b81548152906001019060200180831161031957829003601f168201915b505050505081565b6060600080600260008573ffffffffffffffffffffffffffffffffffffffff1673ffffffffffffffffffffffffffffffffffffffff16815260200190815260200160002090506000816003018054806020026020016040519081016040528092919081815260200182805480156103d457602002820191906000526020600020905b8154815260200190600101908083116103c0575b50505050509050808151935093505050915091565b60008151116103f757600080fd5b6001600081548092919061040a9061141f565b91905055506040518060c0016040528060015481526020013373ffffffffffffffffffffffffffffffffffffffff168152602001828152602001600067ffffffffffffffff81111561045f5761045e6110f4565b5b60405190808252806020026020018201604052801561048d5781602001602082028036833780820191505090505b508152602001600067ffffffffffffffff8111156104ae576104ad6110f4565b5b6040519080825280602002602001820160405280156104dc5781602001602082028036833780820191505090505b508152602001600067ffffffffffffffff8111156104fd576104fc6110f4565b5b60405190808252806020026020018201604052801561052b5781602001602082028036833780820191505090505b50815250600260003373ffffffffffffffffffffffffffffffffffffffff1673ffffffffffffffffffffffffffffffffffffffff1681526020019081526020016000206000820151816000015560208201518160010160006101000a81548173ffffffffffffffffffffffffffffffffffffffff021916908373ffffffffffffffffffffffffffffffffffffffff16021790555060408201518160020190805190602001906105db929190610d99565b5060608201518160030190805190602001906105f8929190610e1f565b506080820151816004019080519060200190610615929190610e1f565b5060a0820151816005019080519060200190610632929190610e1f565b509050507f435c996d89a49cca8df2e2b9049873efc395163c78132316c36b4cc6385159bf6001543383600067ffffffffffffffff811115610677576106766110f4565b5b6040519080825280602002602001820160405280156106a55781602001602082028036833780820191505090505b50600067ffffffffffffffff8111156106c1576106c06110f4565b5b6040519080825280602002602001820160405280156106ef5781602001602082028036833780820191505090505b50600067ffffffffffffffff81111561070b5761070a6110f4565b5b6040519080825280602002602001820160405280156107395781602001602082028036833780820191505090505b5060405161074c96959493929190611468565b60405180910390a150565b6060600080600260008573ffffffffffffffffffffffffffffffffffffffff1673ffffffffffffffffffffffffffffffffffffffff16815260200190815260200160002090506000816005018054806020026020016040519081016040528092919081815260200182805480156107ed57602002820191906000526020600020905b8154815260200190600101908083116107d9575b50505050509050808151935093505050915091565b60015481565b6000341161081557600080fd5b8073ffffffffffffffffffffffffffffffffffffffff166108fc349081150290604051600060405180830381858888f1935050505015801561085b573d6000803e3d6000fd5b507f6ef95f06320e7a25a04a175ca677b7052bdd97131872c2192525a629f51be770813460405161088d9291906114e5565b60405180910390a150565b60026020528060005260406000206000915090508060000154908060010160009054906101000a900473ffffffffffffffffffffffffffffffffffffffff16908060020180546108e7906113be565b80601f0160208091040260200160405190810160405280929190818152602001828054610913906113be565b80156109605780601f1061093557610100808354040283529160200191610960565b820191906000526020600020905b81548152906001019060200180831161094357829003601f168201915b5050505050905083565b6000600260008473ffffffffffffffffffffffffffffffffffffffff1673ffffffffffffffffffffffffffffffffffffffff1681526020019081526020016000209050806005018290806001815401808255809150506001900390600052602060002001600090919091909150557faf4bf105b07134ade84774ffbc130ba9a42441545ab51d6865c59ef7d71d75c0838383600501604051610a0e939291906115e4565b60405180910390a1505050565b6000600260008473ffffffffffffffffffffffffffffffffffffffff1673ffffffffffffffffffffffffffffffffffffffff1681526020019081526020016000209050806003018290806001815401808255809150506001900390600052602060002001600090919091909150557f6b2ad7f150794bfc99e3013370f5564e4e0485b5b65ca0f4d9d9ce300070d273838383600301604051610abf939291906115e4565b60405180910390a1505050565b6060600080600260008573ffffffffffffffffffffffffffffffffffffffff1673ffffffffffffffffffffffffffffffffffffffff1681526020019081526020016000209050600081600401805480602002602001604051908101604052809291908181526020018280548015610b6257602002820191906000526020600020905b815481526020019060010190808311610b4e575b50505050509050808151935093505050915091565b6000600260008573ffffffffffffffffffffffffffffffffffffffff1673ffffffffffffffffffffffffffffffffffffffff16815260200190815260200160002090506001821415610bf35780600401839080600181540180825580915050600190039060005260206000200160009091909190915055610d54565b6002821415610d53576000805b8260040180549050811015610c5257826004018181548110610c2557610c24611622565b5b9060005260206000200154851415610c3f57809150610c52565b8080610c4a9061141f565b915050610c00565b506000811415610ca1577f18fc6bf4e6adb359b6b7456f354c22287834a11391d70d8ff30b7004212af1e7858584600401604051610c92939291906115e4565b60405180910390a15050610d94565b60008190505b60018360040180549050610cbb9190611651565b811015610d265782600401600182610cd39190611685565b81548110610ce457610ce3611622565b5b9060005260206000200154836004018281548110610d0557610d04611622565b5b90600052602060002001819055508080610d1e9061141f565b915050610ca7565b5081600401805480610d3b57610d3a6116db565b5b60019003818190600052602060002001600090559055505b5b7f18fc6bf4e6adb359b6b7456f354c22287834a11391d70d8ff30b7004212af1e7848483600401604051610d8a939291906115e4565b60405180910390a1505b505050565b828054610da5906113be565b90600052602060002090601f016020900481019282610dc75760008555610e0e565b82601f10610de057805160ff1916838001178555610e0e565b82800160010185558215610e0e579182015b82811115610e0d578251825591602001919060010190610df2565b5b509050610e1b9190610e6c565b5090565b828054828255906000526020600020908101928215610e5b579160200282015b82811115610e5a578251825591602001919060010190610e3f565b5b509050610e689190610e6c565b5090565b5b80821115610e85576000816000905550600101610e6d565b5090565b600081519050919050565b600082825260208201905092915050565b60005b83811015610ec3578082015181840152602081019050610ea8565b83811115610ed2576000848401525b50505050565b6000601f19601f8301169050919050565b6000610ef482610e89565b610efe8185610e94565b9350610f0e818560208601610ea5565b610f1781610ed8565b840191505092915050565b60006020820190508181036000830152610f3c8184610ee9565b905092915050565b6000604051905090565b600080fd5b600080fd5b600073ffffffffffffffffffffffffffffffffffffffff82169050919050565b6000610f8382610f58565b9050919050565b610f9381610f78565b8114610f9e57600080fd5b50565b600081359050610fb081610f8a565b92915050565b600060208284031215610fcc57610fcb610f4e565b5b6000610fda84828501610fa1565b91505092915050565b600081519050919050565b600082825260208201905092915050565b6000819050602082019050919050565b6000819050919050565b6110228161100f565b82525050565b60006110348383611019565b60208301905092915050565b6000602082019050919050565b600061105882610fe3565b6110628185610fee565b935061106d83610fff565b8060005b8381101561109e5781516110858882611028565b975061109083611040565b925050600181019050611071565b5085935050505092915050565b6110b48161100f565b82525050565b600060408201905081810360008301526110d4818561104d565b90506110e360208301846110ab565b9392505050565b600080fd5b600080fd5b7f4e487b7100000000000000000000000000000000000000000000000000000000600052604160045260246000fd5b61112c82610ed8565b810181811067ffffffffffffffff8211171561114b5761114a6110f4565b5b80604052505050565b600061115e610f44565b905061116a8282611123565b919050565b600067ffffffffffffffff82111561118a576111896110f4565b5b61119382610ed8565b9050602081019050919050565b82818337600083830152505050565b60006111c26111bd8461116f565b611154565b9050828152602081018484840111156111de576111dd6110ef565b5b6111e98482856111a0565b509392505050565b600082601f830112611206576112056110ea565b5b81356112168482602086016111af565b91505092915050565b60006020828403121561123557611234610f4e565b5b600082013567ffffffffffffffff81111561125357611252610f53565b5b61125f848285016111f1565b91505092915050565b600060208201905061127d60008301846110ab565b92915050565b61128c81610f78565b82525050565b60006060820190506112a760008301866110ab565b6112b46020830185611283565b81810360408301526112c68184610ee9565b9050949350505050565b6112d98161100f565b81146112e457600080fd5b50565b6000813590506112f6816112d0565b92915050565b6000806040838503121561131357611312610f4e565b5b600061132185828601610fa1565b9250506020611332858286016112e7565b9150509250929050565b60008060006060848603121561135557611354610f4e565b5b600061136386828701610fa1565b9350506020611374868287016112e7565b9250506040611385868287016112e7565b9150509250925092565b7f4e487b7100000000000000000000000000000000000000000000000000000000600052602260045260246000fd5b600060028204905060018216806113d657607f821691505b602082108114156113ea576113e961138f565b5b50919050565b7f4e487b7100000000000000000000000000000000000000000000000000000000600052601160045260246000fd5b600061142a8261100f565b91507fffffffffffffffffffffffffffffffffffffffffffffffffffffffffffffffff82141561145d5761145c6113f0565b5b600182019050919050565b600060c08201905061147d60008301896110ab565b61148a6020830188611283565b818103604083015261149c8187610ee9565b905081810360608301526114b0818661104d565b905081810360808301526114c4818561104d565b905081810360a08301526114d8818461104d565b9050979650505050505050565b60006040820190506114fa6000830185611283565b61150760208301846110ab565b9392505050565b600081549050919050565b60008190508160005260206000209050919050565b60008160001c9050919050565b6000819050919050565b60006115586115538361152e565b61153b565b9050919050565b600061156b8254611545565b9050919050565b6000600182019050919050565b600061158a8261150e565b6115948185610fee565b935061159f83611519565b8060005b838110156115d7576115b48261155f565b6115be8882611028565b97506115c983611572565b9250506001810190506115a3565b5085935050505092915050565b60006060820190506115f96000830186611283565b61160660208301856110ab565b8181036040830152611618818461157f565b9050949350505050565b7f4e487b7100000000000000000000000000000000000000000000000000000000600052603260045260246000fd5b600061165c8261100f565b91506116678361100f565b92508282101561167a576116796113f0565b5b828203905092915050565b60006116908261100f565b915061169b8361100f565b9250827fffffffffffffffffffffffffffffffffffffffffffffffffffffffffffffffff038211156116d0576116cf6113f0565b5b828201905092915050565b7f4e487b7100000000000000000000000000000000000000000000000000000000600052603160045260246000fdfea2646970667358221220b548fc342af71c66090a950d0e884158e0f77041d45bc91970892aa56daad32b64736f6c63430008090033",
  "immutableReferences": {},
  "source": "// SPDX-License-Identifier: Apache-2.0\r\npragma solidity >=0.4.22 <0.9.0;\r\n\r\nimport \"@openzeppelin/contracts/token/ERC721/ERC721.sol\";\r\nimport './Accounts.sol';\r\n\r\ncontract NftAsset is ERC721 {\r\n    \r\n    uint public assetsCount = 0;\r\n\r\n    struct Asset {\r\n        uint tokenId; // NFT asset ID\r\n        address creator; // Creator of NFT \r\n        string assetFileHash; // NFT Asset file hash hosted on IPFS\r\n        string name; // Unique name for NFT\r\n        string description; // Description of NFT asset properties\r\n        uint[] categories; // categories to which NFT belongs\r\n        string royality; // royality for NFT creator\r\n    }\r\n\r\n    mapping (uint => Asset) public assets;\r\n\r\n    mapping(string => bool) private _assetNameExists;\r\n\r\n    Account account = new Account();\r\n\r\n    constructor() ERC721(\"NftAsset\", \"NFTASSET\") {\r\n    }\r\n\r\n    event NftAssetMinted(\r\n        uint tokenId,\r\n        address creator,\r\n        string assetFileHash,\r\n        string name,\r\n        string description,\r\n        uint[] categories,\r\n        string royality\r\n    );\r\n\r\n    event OwnershipTransfered(\r\n        address from,\r\n        address to,\r\n        uint tokenId\r\n    );\r\n\r\n    function mintNftAsset(string memory name_, string memory _assetFileHash,\r\n        string memory _description, uint[] memory _categories, string memory _royality) public {\r\n\r\n        // Check for uniqueness of asset name.\r\n        require(!_assetNameExists[name_]);\r\n\r\n        assetsCount++;\r\n\r\n        // Adding this asset in CreatedAssets list for minter.\r\n        account.updateAccountCreatedAssets(msg.sender, assetsCount);\r\n\r\n        // Adding this asset in OwnedAssets list for minter.\r\n        account.updateAccountOwnedAssets(msg.sender, assetsCount, 1);\r\n\r\n        assets[assetsCount] = Asset(assetsCount, msg.sender, _assetFileHash, name_, _description, _categories, _royality);\r\n        \r\n        // safely minting new asset.\r\n       _safeMint(msg.sender, assetsCount);\r\n\r\n        // setting mapping for name_ to maintain uniqueness.\r\n        _assetNameExists[name_] = true;\r\n\r\n        emit NftAssetMinted(assetsCount, msg.sender, _assetFileHash, name_, _description, _categories, _royality);\r\n    }\r\n\r\n    function transferAssetOwnership(address _from, address _to, uint _tokenId) public {\r\n\r\n        // Check for existence of token whose ownership transfer is requested.\r\n        require(_exists(_tokenId));\r\n\r\n        account.updateAccountOwnedAssets(_to, _tokenId, 1);\r\n\r\n        account.updateAccountOwnedAssets(_from, _tokenId, 2);\r\n\r\n        // transfering ownership from _from to _to.\r\n        _transfer(_from, _to, _tokenId);\r\n\r\n        emit OwnershipTransfered(_from, _to, _tokenId);\r\n    }\r\n\r\n    function getAssetCategories(uint _tokenId) public view returns(uint[] memory, uint){\r\n\r\n        // Check for existence of token.\r\n        require(_exists(_tokenId));\r\n\r\n        Asset storage asset = assets[_tokenId];\r\n        uint[] memory categories = asset.categories;\r\n        return (categories, categories.length);\r\n    }\r\n\r\n    function getAccountCreatedAssets() public view returns (uint[] memory, uint) {\r\n        return account.getAccountCreatedAssets(msg.sender);\r\n    }\r\n\r\n    function getAccountOwnedAssets() public view returns (uint[] memory, uint) {\r\n        return account.getAccountOwnedAssets(msg.sender);\r\n    }\r\n\r\n}",
  "sourcePath": "C:\\Users\\hp\\Desktop\\projects\\Encheres\\Frontend_New\\Encheres_Frontend\\src\\contracts\\NftAssets.sol",
  "compiler": {
    "name": "solc",
    "version": "0.8.9+commit.e5eed63a.Emscripten.clang"
  },
  "schemaVersion": "3.4.3",
  "updatedAt": "2021-10-31T09:38:28.021Z",
  "networkType": "ethereum",
  "devdoc": {
    "kind": "dev",
    "methods": {
      "approve(address,uint256)": {
        "details": "See {IERC721-approve}."
      },
      "balanceOf(address)": {
        "details": "See {IERC721-balanceOf}."
      },
      "getApproved(uint256)": {
        "details": "See {IERC721-getApproved}."
      },
      "isApprovedForAll(address,address)": {
        "details": "See {IERC721-isApprovedForAll}."
      },
      "name()": {
        "details": "See {IERC721Metadata-name}."
      },
      "ownerOf(uint256)": {
        "details": "See {IERC721-ownerOf}."
      },
      "safeTransferFrom(address,address,uint256)": {
        "details": "See {IERC721-safeTransferFrom}."
      },
      "safeTransferFrom(address,address,uint256,bytes)": {
        "details": "See {IERC721-safeTransferFrom}."
      },
      "setApprovalForAll(address,bool)": {
        "details": "See {IERC721-setApprovalForAll}."
      },
      "supportsInterface(bytes4)": {
        "details": "See {IERC165-supportsInterface}."
      },
      "symbol()": {
        "details": "See {IERC721Metadata-symbol}."
      },
      "tokenURI(uint256)": {
        "details": "See {IERC721Metadata-tokenURI}."
      },
      "transferFrom(address,address,uint256)": {
        "details": "See {IERC721-transferFrom}."
      }
    },
    "version": 1
  },
  "userdoc": {
    "kind": "user",
    "methods": {},
    "version": 1
  }
}