{
  "contractName": "Account",
  "abi": [
    {
      "constant": true,
      "inputs": [],
      "name": "name",
      "outputs": [
        {
          "name": "",
          "type": "string"
        }
      ],
      "payable": false,
      "stateMutability": "view",
      "type": "function",
      "signature": "0x06fdde03"
    },
    {
      "constant": true,
      "inputs": [
        {
          "name": "",
          "type": "uint256"
        }
      ],
      "name": "Users",
      "outputs": [
        {
          "name": "id",
          "type": "uint256"
        },
        {
          "name": "owner",
          "type": "address"
        },
        {
          "name": "centralDBID",
          "type": "string"
        }
      ],
      "payable": false,
      "stateMutability": "view",
      "type": "function",
      "signature": "0x1e98fd1c"
    },
    {
      "constant": true,
      "inputs": [],
      "name": "usersCount",
      "outputs": [
        {
          "name": "",
          "type": "uint256"
        }
      ],
      "payable": false,
      "stateMutability": "view",
      "type": "function",
      "signature": "0x6ba13a82"
    },
    {
      "anonymous": false,
      "inputs": [
        {
          "indexed": false,
          "name": "id",
          "type": "uint256"
        },
        {
          "indexed": false,
          "name": "owner",
          "type": "address"
        },
        {
          "indexed": false,
          "name": "centralDBID",
          "type": "string"
        },
        {
          "indexed": false,
          "name": "transactions",
          "type": "uint256[]"
        },
        {
          "indexed": false,
          "name": "ownedAssets",
          "type": "uint256[]"
        },
        {
          "indexed": false,
          "name": "createdAssets",
          "type": "uint256[]"
        }
      ],
      "name": "UserCreated",
      "type": "event",
      "signature": "0x435c996d89a49cca8df2e2b9049873efc395163c78132316c36b4cc6385159bf"
    },
    {
      "anonymous": false,
      "inputs": [
        {
          "indexed": false,
          "name": "receiverId",
          "type": "uint256"
        },
        {
          "indexed": false,
          "name": "amount",
          "type": "uint256"
        }
      ],
      "name": "PaymentReceived",
      "type": "event",
      "signature": "0x4edf5b39e08b0c159ffd68891bacf2cc9020b9d4e9e807b91f94fe88c4435388"
    },
    {
      "constant": false,
      "inputs": [
        {
          "name": "_centralDBID",
          "type": "string"
        }
      ],
      "name": "createAccount",
      "outputs": [],
      "payable": false,
      "stateMutability": "nonpayable",
      "type": "function",
      "signature": "0x298daf5b"
    },
    {
      "constant": false,
      "inputs": [
        {
          "name": "_receiverId",
          "type": "uint256"
        }
      ],
      "name": "receivePayment",
      "outputs": [],
      "payable": true,
      "stateMutability": "payable",
      "type": "function",
      "signature": "0xe2eab483"
    }
  ],
  "bytecode": "0x60806040526040805190810160405280600781526020017f4163636f756e74000000000000000000000000000000000000000000000000008152506000908051906020019061004f929190610067565b50600060015534801561006157600080fd5b5061010c565b828054600181600116156101000203166002900490600052602060002090601f016020900481019282601f106100a857805160ff19168380011785556100d6565b828001600101855582156100d6579182015b828111156100d55782518255916020019190600101906100ba565b5b5090506100e391906100e7565b5090565b61010991905b808211156101055760008160009055506001016100ed565b5090565b90565b610cf58061011b6000396000f3fe60806040526004361061006d576000357c0100000000000000000000000000000000000000000000000000000000900463ffffffff16806306fdde03146100725780631e98fd1c14610102578063298daf5b146101f05780636ba13a82146102b8578063e2eab483146102e3575b600080fd5b34801561007e57600080fd5b50610087610311565b6040518080602001828103825283818151815260200191508051906020019080838360005b838110156100c75780820151818401526020810190506100ac565b50505050905090810190601f1680156100f45780820380516001836020036101000a031916815260200191505b509250505060405180910390f35b34801561010e57600080fd5b5061013b6004803603602081101561012557600080fd5b81019080803590602001909291905050506103af565b604051808481526020018373ffffffffffffffffffffffffffffffffffffffff1673ffffffffffffffffffffffffffffffffffffffff16815260200180602001828103825283818151815260200191508051906020019080838360005b838110156101b3578082015181840152602081019050610198565b50505050905090810190601f1680156101e05780820380516001836020036101000a031916815260200191505b5094505050505060405180910390f35b3480156101fc57600080fd5b506102b66004803603602081101561021357600080fd5b810190808035906020019064010000000081111561023057600080fd5b82018360208201111561024257600080fd5b8035906020019184600183028401116401000000008311171561026457600080fd5b91908080601f016020809104026020016040519081016040528093929190818152602001838380828437600081840152601f19601f820116905080830192505050505050509192919290505050610491565b005b3480156102c457600080fd5b506102cd6108ae565b6040518082815260200191505060405180910390f35b61030f600480360360208110156102f957600080fd5b81019080803590602001909291905050506108b4565b005b60008054600181600116156101000203166002900480601f0160208091040260200160405190810160405280929190818152602001828054600181600116156101000203166002900480156103a75780601f1061037c576101008083540402835291602001916103a7565b820191906000526020600020905b81548152906001019060200180831161038a57829003601f168201915b505050505081565b60026020528060005260406000206000915090508060000154908060010160009054906101000a900473ffffffffffffffffffffffffffffffffffffffff1690806002018054600181600116156101000203166002900480601f0160208091040260200160405190810160405280929190818152602001828054600181600116156101000203166002900480156104875780601f1061045c57610100808354040283529160200191610487565b820191906000526020600020905b81548152906001019060200180831161046a57829003601f168201915b5050505050905083565b600081511115156104a157600080fd5b60016000815480929190600101919050555060c06040519081016040528060015481526020013373ffffffffffffffffffffffffffffffffffffffff16815260200182815260200160006040519080825280602002602001820160405280156105195781602001602082028038833980820191505090505b508152602001600060405190808252806020026020018201604052801561054f5781602001602082028038833980820191505090505b50815260200160006040519080825280602002602001820160405280156105855781602001602082028038833980820191505090505b508152506002600060015481526020019081526020016000206000820151816000015560208201518160010160006101000a81548173ffffffffffffffffffffffffffffffffffffffff021916908373ffffffffffffffffffffffffffffffffffffffff160217905550604082015181600201908051906020019061060b929190610b8a565b506060820151816003019080519060200190610628929190610c0a565b506080820151816004019080519060200190610645929190610c0a565b5060a0820151816005019080519060200190610662929190610c0a565b509050507f435c996d89a49cca8df2e2b9049873efc395163c78132316c36b4cc6385159bf600154338360006040519080825280602002602001820160405280156106bc5781602001602082028038833980820191505090505b5060006040519080825280602002602001820160405280156106ed5781602001602082028038833980820191505090505b50600060405190808252806020026020018201604052801561071e5781602001602082028038833980820191505090505b50604051808781526020018673ffffffffffffffffffffffffffffffffffffffff1673ffffffffffffffffffffffffffffffffffffffff16815260200180602001806020018060200180602001858103855289818151815260200191508051906020019080838360005b838110156107a3578082015181840152602081019050610788565b50505050905090810190601f1680156107d05780820380516001836020036101000a031916815260200191505b50858103845288818151815260200191508051906020019060200280838360005b8381101561080c5780820151818401526020810190506107f1565b50505050905001858103835287818151815260200191508051906020019060200280838360005b8381101561084e578082015181840152602081019050610833565b50505050905001858103825286818151815260200191508051906020019060200280838360005b83811015610890578082015181840152602081019050610875565b505050509050019a505050505050505050505060405180910390a150565b60015481565b6000341115156108c357600080fd5b6108cb610c57565b6002600083815260200190815260200160002060c06040519081016040529081600082015481526020016001820160009054906101000a900473ffffffffffffffffffffffffffffffffffffffff1673ffffffffffffffffffffffffffffffffffffffff1673ffffffffffffffffffffffffffffffffffffffff168152602001600282018054600181600116156101000203166002900480601f0160208091040260200160405190810160405280929190818152602001828054600181600116156101000203166002900480156109e35780601f106109b8576101008083540402835291602001916109e3565b820191906000526020600020905b8154815290600101906020018083116109c657829003601f168201915b5050505050815260200160038201805480602002602001604051908101604052809291908181526020018280548015610a3b57602002820191906000526020600020905b815481526020019060010190808311610a27575b5050505050815260200160048201805480602002602001604051908101604052809291908181526020018280548015610a9357602002820191906000526020600020905b815481526020019060010190808311610a7f575b5050505050815260200160058201805480602002602001604051908101604052809291908181526020018280548015610aeb57602002820191906000526020600020905b815481526020019060010190808311610ad7575b50505050508152505090506000816020015190508073ffffffffffffffffffffffffffffffffffffffff166108fc349081150290604051600060405180830381858888f19350505050158015610b45573d6000803e3d6000fd5b507f4edf5b39e08b0c159ffd68891bacf2cc9020b9d4e9e807b91f94fe88c44353888334604051808381526020018281526020019250505060405180910390a1505050565b828054600181600116156101000203166002900490600052602060002090601f016020900481019282601f10610bcb57805160ff1916838001178555610bf9565b82800160010185558215610bf9579182015b82811115610bf8578251825591602001919060010190610bdd565b5b509050610c069190610ca4565b5090565b828054828255906000526020600020908101928215610c46579160200282015b82811115610c45578251825591602001919060010190610c2a565b5b509050610c539190610ca4565b5090565b60c06040519081016040528060008152602001600073ffffffffffffffffffffffffffffffffffffffff168152602001606081526020016060815260200160608152602001606081525090565b610cc691905b80821115610cc2576000816000905550600101610caa565b5090565b9056fea165627a7a72305820aa39343220f60db4c293e5775997ad0ab692e86864e3a79de742f13ad2fc7f4a0029",
  "source": "// SPDX-License-Identifier: Apache-2.0\r\npragma solidity ^0.5.0;\r\n\r\n\r\ncontract Account {\r\n    \r\n    string public name = \"Account\";\r\n    uint public usersCount = 0;\r\n\r\n    struct User {\r\n        uint id;\r\n        address payable owner;\r\n        string centralDBID;\r\n        uint[] transactions;\r\n        uint[] ownedAssets;\r\n        uint[] createdAssets;\r\n    }\r\n\r\n    mapping(uint => User) public Users;\r\n\r\n    event UserCreated(\r\n        uint id,\r\n        address owner,\r\n        string centralDBID,\r\n        uint[] transactions,\r\n        uint[] ownedAssets,\r\n        uint[] createdAssets\r\n    );\r\n\r\n    event PaymentReceived(\r\n        uint receiverId,\r\n        uint amount\r\n    );\r\n\r\n    function createAccount(string memory _centralDBID) public {\r\n\r\n        require(bytes(_centralDBID).length > 0);\r\n\r\n        usersCount++;\r\n\r\n        Users[usersCount] =  User(usersCount, msg.sender, _centralDBID, new uint[](0), new uint[](0), new uint[](0));\r\n\r\n        emit UserCreated(usersCount, msg.sender, _centralDBID, new uint[](0), new uint[](0), new uint[](0));\r\n    }\r\n\r\n    function receivePayment(uint _receiverId) public payable {\r\n\r\n        require(msg.value > 0);\r\n\r\n        User memory _receiver = Users[_receiverId];\r\n\r\n        address payable _receiverAddress = _receiver.owner;\r\n\r\n        address(_receiverAddress).transfer(msg.value);\r\n\r\n        emit PaymentReceived(_receiverId, msg.value);\r\n    }\r\n}",
  "sourcePath": "C:/Users/hp/Desktop/projects/Encheres/Frontend/encheres-frontend/src/contracts/Accounts.sol",
  "compiler": {
    "name": "solc",
    "version": "0.5.0+commit.1d4f565a.Emscripten.clang"
  },
  "schemaVersion": "3.0.1",
  "updatedAt": "2021-10-23T14:59:55.317Z",
  "devdoc": {
    "methods": {}
  },
  "userdoc": {
    "methods": {}
  }
}