{
  "contractName": "Account",
  "abi": [
    {
      "anonymous": false,
      "inputs": [
        {
          "indexed": false,
          "internalType": "address",
          "name": "owner",
          "type": "address"
        },
        {
          "indexed": false,
          "internalType": "uint256",
          "name": "assetId",
          "type": "uint256"
        },
        {
          "indexed": false,
          "internalType": "uint256[]",
          "name": "createdAssets",
          "type": "uint256[]"
        }
      ],
      "name": "CreatedAssetsUpdated",
      "type": "event"
    },
    {
      "anonymous": false,
      "inputs": [
        {
          "indexed": false,
          "internalType": "address",
          "name": "owner",
          "type": "address"
        },
        {
          "indexed": false,
          "internalType": "uint256",
          "name": "assetId",
          "type": "uint256"
        },
        {
          "indexed": false,
          "internalType": "uint256[]",
          "name": "ownedAssets",
          "type": "uint256[]"
        }
      ],
      "name": "OwnedAssetsUpdated",
      "type": "event"
    },
    {
      "anonymous": false,
      "inputs": [
        {
          "indexed": false,
          "internalType": "address",
          "name": "receiver",
          "type": "address"
        },
        {
          "indexed": false,
          "internalType": "uint256",
          "name": "amount",
          "type": "uint256"
        }
      ],
      "name": "PaymentReceived",
      "type": "event"
    },
    {
      "anonymous": false,
      "inputs": [
        {
          "indexed": false,
          "internalType": "address",
          "name": "owner",
          "type": "address"
        },
        {
          "indexed": false,
          "internalType": "uint256",
          "name": "transactionId",
          "type": "uint256"
        },
        {
          "indexed": false,
          "internalType": "uint256[]",
          "name": "transactions",
          "type": "uint256[]"
        }
      ],
      "name": "TransactionsUpdated",
      "type": "event"
    },
    {
      "anonymous": false,
      "inputs": [
        {
          "indexed": false,
          "internalType": "uint256",
          "name": "id",
          "type": "uint256"
        },
        {
          "indexed": false,
          "internalType": "address",
          "name": "owner",
          "type": "address"
        },
        {
          "indexed": false,
          "internalType": "string",
          "name": "centralDBID",
          "type": "string"
        },
        {
          "indexed": false,
          "internalType": "uint256[]",
          "name": "transactions",
          "type": "uint256[]"
        },
        {
          "indexed": false,
          "internalType": "uint256[]",
          "name": "ownedAssets",
          "type": "uint256[]"
        },
        {
          "indexed": false,
          "internalType": "uint256[]",
          "name": "createdAssets",
          "type": "uint256[]"
        }
      ],
      "name": "UserCreated",
      "type": "event"
    },
    {
      "inputs": [
        {
          "internalType": "address",
          "name": "",
          "type": "address"
        }
      ],
      "name": "Users",
      "outputs": [
        {
          "internalType": "uint256",
          "name": "id",
          "type": "uint256"
        },
        {
          "internalType": "address",
          "name": "owner",
          "type": "address"
        },
        {
          "internalType": "string",
          "name": "centralDBID",
          "type": "string"
        }
      ],
      "stateMutability": "view",
      "type": "function",
      "constant": true
    },
    {
      "inputs": [],
      "name": "name",
      "outputs": [
        {
          "internalType": "string",
          "name": "",
          "type": "string"
        }
      ],
      "stateMutability": "view",
      "type": "function",
      "constant": true
    },
    {
      "inputs": [],
      "name": "usersCount",
      "outputs": [
        {
          "internalType": "uint256",
          "name": "",
          "type": "uint256"
        }
      ],
      "stateMutability": "view",
      "type": "function",
      "constant": true
    },
    {
      "inputs": [
        {
          "internalType": "string",
          "name": "_centralDBID",
          "type": "string"
        }
      ],
      "name": "createAccount",
      "outputs": [],
      "stateMutability": "nonpayable",
      "type": "function"
    },
    {
      "inputs": [
        {
          "internalType": "address",
          "name": "_userAccountAddress",
          "type": "address"
        },
        {
          "internalType": "uint256",
          "name": "_transactionId",
          "type": "uint256"
        }
      ],
      "name": "updateAccountTransactions",
      "outputs": [],
      "stateMutability": "nonpayable",
      "type": "function"
    },
    {
      "inputs": [
        {
          "internalType": "address",
          "name": "_userAccountAddress",
          "type": "address"
        },
        {
          "internalType": "uint256",
          "name": "_assetId",
          "type": "uint256"
        }
      ],
      "name": "updateAccountCreatedAssets",
      "outputs": [],
      "stateMutability": "nonpayable",
      "type": "function"
    },
    {
      "inputs": [
        {
          "internalType": "address",
          "name": "_userAccountAddress",
          "type": "address"
        },
        {
          "internalType": "uint256",
          "name": "_assetId",
          "type": "uint256"
        },
        {
          "internalType": "uint256",
          "name": "_opType",
          "type": "uint256"
        }
      ],
      "name": "updateAccountOwnedAssets",
      "outputs": [],
      "stateMutability": "nonpayable",
      "type": "function"
    },
    {
      "inputs": [
        {
          "internalType": "address",
          "name": "_receiverAccountAddress",
          "type": "address"
        }
      ],
      "name": "receivePayment",
      "outputs": [],
      "stateMutability": "payable",
      "type": "function",
      "payable": true
    }
  ],
  "bytecode": "0x60806040526040518060400160405280600781526020017f4163636f756e740000000000000000000000000000000000000000000000000081525060009080519060200190620000519291906200006b565b5060006001553480156200006457600080fd5b5062000180565b82805462000079906200014a565b90600052602060002090601f0160209004810192826200009d5760008555620000e9565b82601f10620000b857805160ff1916838001178555620000e9565b82800160010185558215620000e9579182015b82811115620000e8578251825591602001919060010190620000cb565b5b509050620000f89190620000fc565b5090565b5b8082111562000117576000816000905550600101620000fd565b5090565b7f4e487b7100000000000000000000000000000000000000000000000000000000600052602260045260246000fd5b600060028204905060018216806200016357607f821691505b602082108114156200017a57620001796200011b565b5b50919050565b61143480620001906000396000f3fe60806040526004361061007b5760003560e01c806399b956a01161004e57806399b956a01461011b578063a0edc5011461015a578063b985e8d814610183578063da338864146101ac5761007b565b806306fdde0314610080578063298daf5b146100ab5780636ba13a82146100d457806396dae737146100ff575b600080fd5b34801561008c57600080fd5b506100956101d5565b6040516100a29190610c46565b60405180910390f35b3480156100b757600080fd5b506100d260048036038101906100cd9190610db1565b610263565b005b3480156100e057600080fd5b506100e96105d1565b6040516100f69190610e13565b60405180910390f35b61011960048036038101906101149190610e8c565b6105d7565b005b34801561012757600080fd5b50610142600480360381019061013d9190610e8c565b610667565b60405161015193929190610ec8565b60405180910390f35b34801561016657600080fd5b50610181600480360381019061017c9190610f32565b610739565b005b34801561018f57600080fd5b506101aa60048036038101906101a59190610f32565b6107ea565b005b3480156101b857600080fd5b506101d360048036038101906101ce9190610f72565b61089b565b005b600080546101e290610ff4565b80601f016020809104026020016040519081016040528092919081815260200182805461020e90610ff4565b801561025b5780601f106102305761010080835404028352916020019161025b565b820191906000526020600020905b81548152906001019060200180831161023e57829003601f168201915b505050505081565b600081511161027157600080fd5b6001600081548092919061028490611055565b91905055506040518060c0016040528060015481526020013373ffffffffffffffffffffffffffffffffffffffff168152602001828152602001600067ffffffffffffffff8111156102d9576102d8610c86565b5b6040519080825280602002602001820160405280156103075781602001602082028036833780820191505090505b508152602001600067ffffffffffffffff81111561032857610327610c86565b5b6040519080825280602002602001820160405280156103565781602001602082028036833780820191505090505b508152602001600067ffffffffffffffff81111561037757610376610c86565b5b6040519080825280602002602001820160405280156103a55781602001602082028036833780820191505090505b50815250600260003373ffffffffffffffffffffffffffffffffffffffff1673ffffffffffffffffffffffffffffffffffffffff1681526020019081526020016000206000820151816000015560208201518160010160006101000a81548173ffffffffffffffffffffffffffffffffffffffff021916908373ffffffffffffffffffffffffffffffffffffffff1602179055506040820151816002019080519060200190610455929190610abd565b506060820151816003019080519060200190610472929190610b43565b50608082015181600401908051906020019061048f929190610b43565b5060a08201518160050190805190602001906104ac929190610b43565b509050507f435c996d89a49cca8df2e2b9049873efc395163c78132316c36b4cc6385159bf6001543383600067ffffffffffffffff8111156104f1576104f0610c86565b5b60405190808252806020026020018201604052801561051f5781602001602082028036833780820191505090505b50600067ffffffffffffffff81111561053b5761053a610c86565b5b6040519080825280602002602001820160405280156105695781602001602082028036833780820191505090505b50600067ffffffffffffffff81111561058557610584610c86565b5b6040519080825280602002602001820160405280156105b35781602001602082028036833780820191505090505b506040516105c69695949392919061115c565b60405180910390a150565b60015481565b600034116105e457600080fd5b8073ffffffffffffffffffffffffffffffffffffffff166108fc349081150290604051600060405180830381858888f1935050505015801561062a573d6000803e3d6000fd5b507f6ef95f06320e7a25a04a175ca677b7052bdd97131872c2192525a629f51be770813460405161065c9291906111d9565b60405180910390a150565b60026020528060005260406000206000915090508060000154908060010160009054906101000a900473ffffffffffffffffffffffffffffffffffffffff16908060020180546106b690610ff4565b80601f01602080910402602001604051908101604052809291908181526020018280546106e290610ff4565b801561072f5780601f106107045761010080835404028352916020019161072f565b820191906000526020600020905b81548152906001019060200180831161071257829003601f168201915b5050505050905083565b6000600260008473ffffffffffffffffffffffffffffffffffffffff1673ffffffffffffffffffffffffffffffffffffffff1681526020019081526020016000209050806005018290806001815401808255809150506001900390600052602060002001600090919091909150557faf4bf105b07134ade84774ffbc130ba9a42441545ab51d6865c59ef7d71d75c08383836005016040516107dd939291906112d8565b60405180910390a1505050565b6000600260008473ffffffffffffffffffffffffffffffffffffffff1673ffffffffffffffffffffffffffffffffffffffff1681526020019081526020016000209050806003018290806001815401808255809150506001900390600052602060002001600090919091909150557f6b2ad7f150794bfc99e3013370f5564e4e0485b5b65ca0f4d9d9ce300070d27383838360030160405161088e939291906112d8565b60405180910390a1505050565b6000600260008573ffffffffffffffffffffffffffffffffffffffff1673ffffffffffffffffffffffffffffffffffffffff168152602001908152602001600020905060018214156109175780600401839080600181540180825580915050600190039060005260206000200160009091909190915055610a78565b6002821415610a77576000805b82600401805490508110156109765782600401818154811061094957610948611316565b5b906000526020600020015485141561096357809150610976565b808061096e90611055565b915050610924565b5060008114156109c5577f18fc6bf4e6adb359b6b7456f354c22287834a11391d70d8ff30b7004212af1e78585846004016040516109b6939291906112d8565b60405180910390a15050610ab8565b60008190505b600183600401805490506109df9190611345565b811015610a4a57826004016001826109f79190611379565b81548110610a0857610a07611316565b5b9060005260206000200154836004018281548110610a2957610a28611316565b5b90600052602060002001819055508080610a4290611055565b9150506109cb565b5081600401805480610a5f57610a5e6113cf565b5b60019003818190600052602060002001600090559055505b5b7f18fc6bf4e6adb359b6b7456f354c22287834a11391d70d8ff30b7004212af1e7848483600401604051610aae939291906112d8565b60405180910390a1505b505050565b828054610ac990610ff4565b90600052602060002090601f016020900481019282610aeb5760008555610b32565b82601f10610b0457805160ff1916838001178555610b32565b82800160010185558215610b32579182015b82811115610b31578251825591602001919060010190610b16565b5b509050610b3f9190610b90565b5090565b828054828255906000526020600020908101928215610b7f579160200282015b82811115610b7e578251825591602001919060010190610b63565b5b509050610b8c9190610b90565b5090565b5b80821115610ba9576000816000905550600101610b91565b5090565b600081519050919050565b600082825260208201905092915050565b60005b83811015610be7578082015181840152602081019050610bcc565b83811115610bf6576000848401525b50505050565b6000601f19601f8301169050919050565b6000610c1882610bad565b610c228185610bb8565b9350610c32818560208601610bc9565b610c3b81610bfc565b840191505092915050565b60006020820190508181036000830152610c608184610c0d565b905092915050565b6000604051905090565b600080fd5b600080fd5b600080fd5b600080fd5b7f4e487b7100000000000000000000000000000000000000000000000000000000600052604160045260246000fd5b610cbe82610bfc565b810181811067ffffffffffffffff82111715610cdd57610cdc610c86565b5b80604052505050565b6000610cf0610c68565b9050610cfc8282610cb5565b919050565b600067ffffffffffffffff821115610d1c57610d1b610c86565b5b610d2582610bfc565b9050602081019050919050565b82818337600083830152505050565b6000610d54610d4f84610d01565b610ce6565b905082815260208101848484011115610d7057610d6f610c81565b5b610d7b848285610d32565b509392505050565b600082601f830112610d9857610d97610c7c565b5b8135610da8848260208601610d41565b91505092915050565b600060208284031215610dc757610dc6610c72565b5b600082013567ffffffffffffffff811115610de557610de4610c77565b5b610df184828501610d83565b91505092915050565b6000819050919050565b610e0d81610dfa565b82525050565b6000602082019050610e286000830184610e04565b92915050565b600073ffffffffffffffffffffffffffffffffffffffff82169050919050565b6000610e5982610e2e565b9050919050565b610e6981610e4e565b8114610e7457600080fd5b50565b600081359050610e8681610e60565b92915050565b600060208284031215610ea257610ea1610c72565b5b6000610eb084828501610e77565b91505092915050565b610ec281610e4e565b82525050565b6000606082019050610edd6000830186610e04565b610eea6020830185610eb9565b8181036040830152610efc8184610c0d565b9050949350505050565b610f0f81610dfa565b8114610f1a57600080fd5b50565b600081359050610f2c81610f06565b92915050565b60008060408385031215610f4957610f48610c72565b5b6000610f5785828601610e77565b9250506020610f6885828601610f1d565b9150509250929050565b600080600060608486031215610f8b57610f8a610c72565b5b6000610f9986828701610e77565b9350506020610faa86828701610f1d565b9250506040610fbb86828701610f1d565b9150509250925092565b7f4e487b7100000000000000000000000000000000000000000000000000000000600052602260045260246000fd5b6000600282049050600182168061100c57607f821691505b602082108114156110205761101f610fc5565b5b50919050565b7f4e487b7100000000000000000000000000000000000000000000000000000000600052601160045260246000fd5b600061106082610dfa565b91507fffffffffffffffffffffffffffffffffffffffffffffffffffffffffffffffff82141561109357611092611026565b5b600182019050919050565b600081519050919050565b600082825260208201905092915050565b6000819050602082019050919050565b6110d381610dfa565b82525050565b60006110e583836110ca565b60208301905092915050565b6000602082019050919050565b60006111098261109e565b61111381856110a9565b935061111e836110ba565b8060005b8381101561114f57815161113688826110d9565b9750611141836110f1565b925050600181019050611122565b5085935050505092915050565b600060c0820190506111716000830189610e04565b61117e6020830188610eb9565b81810360408301526111908187610c0d565b905081810360608301526111a481866110fe565b905081810360808301526111b881856110fe565b905081810360a08301526111cc81846110fe565b9050979650505050505050565b60006040820190506111ee6000830185610eb9565b6111fb6020830184610e04565b9392505050565b600081549050919050565b60008190508160005260206000209050919050565b60008160001c9050919050565b6000819050919050565b600061124c61124783611222565b61122f565b9050919050565b600061125f8254611239565b9050919050565b6000600182019050919050565b600061127e82611202565b61128881856110a9565b93506112938361120d565b8060005b838110156112cb576112a882611253565b6112b288826110d9565b97506112bd83611266565b925050600181019050611297565b5085935050505092915050565b60006060820190506112ed6000830186610eb9565b6112fa6020830185610e04565b818103604083015261130c8184611273565b9050949350505050565b7f4e487b7100000000000000000000000000000000000000000000000000000000600052603260045260246000fd5b600061135082610dfa565b915061135b83610dfa565b92508282101561136e5761136d611026565b5b828203905092915050565b600061138482610dfa565b915061138f83610dfa565b9250827fffffffffffffffffffffffffffffffffffffffffffffffffffffffffffffffff038211156113c4576113c3611026565b5b828201905092915050565b7f4e487b7100000000000000000000000000000000000000000000000000000000600052603160045260246000fdfea26469706673582212202802417f4d5e1c3b65210aa43ccd908e366c4d8a3d9cc25aa569655ebfa0e9b664736f6c63430008090033",
  "immutableReferences": {},
  "source": "// SPDX-License-Identifier: Apache-2.0\r\npragma solidity ^0.8.0;\r\n\r\n\r\ncontract Account {\r\n    \r\n    string public name = \"Account\";\r\n    uint public usersCount = 0;\r\n\r\n    struct User {\r\n        uint id;\r\n        address owner;\r\n        string centralDBID;\r\n        uint[] transactions;\r\n        uint[] ownedAssets;\r\n        uint[] createdAssets;\r\n    }\r\n\r\n    mapping(address => User) public Users;\r\n\r\n    event UserCreated(\r\n        uint id,\r\n        address owner,\r\n        string centralDBID,\r\n        uint[] transactions,\r\n        uint[] ownedAssets,\r\n        uint[] createdAssets\r\n    );\r\n\r\n    event PaymentReceived(\r\n        address receiver,\r\n        uint amount\r\n    );\r\n\r\n    event TransactionsUpdated(\r\n        address owner,\r\n        uint transactionId,\r\n        uint[] transactions\r\n    );\r\n\r\n    event OwnedAssetsUpdated(\r\n        address owner,\r\n        uint assetId,\r\n        uint[] ownedAssets\r\n    );\r\n\r\n    event CreatedAssetsUpdated(\r\n        address owner,\r\n        uint assetId,\r\n        uint[] createdAssets\r\n    );\r\n\r\n    function createAccount(string memory _centralDBID) public {\r\n\r\n        require(bytes(_centralDBID).length > 0);\r\n\r\n        usersCount++;\r\n\r\n        Users[msg.sender] =  User(usersCount, msg.sender, _centralDBID, new uint[](0), new uint[](0), new uint[](0));\r\n\r\n        emit UserCreated(usersCount, msg.sender, _centralDBID, new uint[](0), new uint[](0), new uint[](0));\r\n    }\r\n\r\n    function updateAccountTransactions(address _userAccountAddress, uint _transactionId) public {\r\n\r\n        User storage user = Users[_userAccountAddress];\r\n\r\n        user.transactions.push(_transactionId);\r\n\r\n        emit TransactionsUpdated(_userAccountAddress, _transactionId, user.transactions);\r\n    }\r\n\r\n    function updateAccountCreatedAssets(address _userAccountAddress, uint _assetId) public {\r\n\r\n        User storage user = Users[_userAccountAddress];\r\n\r\n        user.createdAssets.push(_assetId);\r\n\r\n        emit CreatedAssetsUpdated(_userAccountAddress, _assetId, user.createdAssets);\r\n    }\r\n\r\n    function updateAccountOwnedAssets(address _userAccountAddress, uint _assetId, uint _opType) public {\r\n\r\n        User storage user = Users[_userAccountAddress];\r\n\r\n        if(_opType == 1){\r\n            user.ownedAssets.push(_assetId);\r\n        }\r\n        else if(_opType == 2){\r\n\r\n            uint _assetPos = 0;\r\n\r\n            // Finding position for required assetid in array\r\n            for(uint i=0;i<user.ownedAssets.length;i++){\r\n\r\n                if(_assetId == user.ownedAssets[i]){\r\n                    _assetPos = i;\r\n                    break;\r\n                }\r\n            }\r\n\r\n            if(_assetPos == 0){\r\n                emit OwnedAssetsUpdated(_userAccountAddress, _assetId, user.ownedAssets);\r\n                return;\r\n            }\r\n            \r\n\r\n            // Shifting elements to maintain the order after deletion.\r\n            for(uint i=_assetPos;i<user.ownedAssets.length-1;i++){\r\n                user.ownedAssets[i] = user.ownedAssets[i+1];\r\n            }\r\n\r\n            user.ownedAssets.pop();\r\n        }\r\n\r\n        emit OwnedAssetsUpdated(_userAccountAddress, _assetId, user.ownedAssets);\r\n    }\r\n\r\n    function receivePayment(address _receiverAccountAddress) public payable {\r\n\r\n        require(msg.value > 0);\r\n\r\n        payable(_receiverAccountAddress).transfer(msg.value);\r\n\r\n        emit PaymentReceived(_receiverAccountAddress, msg.value);\r\n    }\r\n}",
  "sourcePath": "E:\\Projects\\Github\\Encheres\\Encheres_Frontend\\src\\contracts\\Accounts.sol",
  "compiler": {
    "name": "solc",
    "version": "0.8.9+commit.e5eed63a.Emscripten.clang"
  },
  "schemaVersion": "3.4.3",
  "updatedAt": "2021-10-31T13:13:22.418Z",
  "networkType": "ethereum",
  "devdoc": {
    "kind": "dev",
    "methods": {},
    "version": 1
  },
  "userdoc": {
    "kind": "user",
    "methods": {},
    "version": 1
  }
}