{
  "contractName": "Auctions",
  "abi": [
    {
      "anonymous": false,
      "inputs": [
        {
          "indexed": false,
          "internalType": "address payable",
          "name": "ownerAccount",
          "type": "address"
        },
        {
          "indexed": false,
          "internalType": "uint256",
          "name": "ownerId",
          "type": "uint256"
        },
        {
          "indexed": false,
          "internalType": "uint256",
          "name": "auctionEndTime",
          "type": "uint256"
        },
        {
          "indexed": false,
          "internalType": "uint256",
          "name": "auctionStartPrice",
          "type": "uint256"
        },
        {
          "indexed": false,
          "internalType": "uint256",
          "name": "auctionCurrentBid",
          "type": "uint256"
        },
        {
          "indexed": false,
          "internalType": "bool",
          "name": "auctionEnded",
          "type": "bool"
        },
        {
          "indexed": false,
          "internalType": "bool",
          "name": "bidStarted",
          "type": "bool"
        }
      ],
      "name": "AuctionDetails",
      "type": "event"
    },
    {
      "anonymous": false,
      "inputs": [
        {
          "indexed": false,
          "internalType": "uint256",
          "name": "nftId",
          "type": "uint256"
        },
        {
          "indexed": false,
          "internalType": "uint256",
          "name": "ownerId",
          "type": "uint256"
        },
        {
          "indexed": false,
          "internalType": "uint256",
          "name": "auctionEndTime",
          "type": "uint256"
        },
        {
          "indexed": false,
          "internalType": "uint256",
          "name": "auctionStartPrice",
          "type": "uint256"
        }
      ],
      "name": "auctionCreated",
      "type": "event"
    },
    {
      "anonymous": false,
      "inputs": [
        {
          "indexed": false,
          "internalType": "uint256",
          "name": "nftId",
          "type": "uint256"
        },
        {
          "indexed": false,
          "internalType": "uint256",
          "name": "auctionCurrentBidder",
          "type": "uint256"
        },
        {
          "indexed": false,
          "internalType": "uint256",
          "name": "auctionCurrentBid",
          "type": "uint256"
        }
      ],
      "name": "auctionEnded",
      "type": "event"
    },
    {
      "anonymous": false,
      "inputs": [
        {
          "indexed": false,
          "internalType": "uint256",
          "name": "nftId",
          "type": "uint256"
        },
        {
          "indexed": false,
          "internalType": "uint256",
          "name": "auctionCurrentBidder",
          "type": "uint256"
        },
        {
          "indexed": false,
          "internalType": "uint256",
          "name": "auctionCurrentBid",
          "type": "uint256"
        }
      ],
      "name": "bidCreated",
      "type": "event"
    },
    {
      "inputs": [
        {
          "internalType": "uint256",
          "name": "",
          "type": "uint256"
        }
      ],
      "name": "auctionMap",
      "outputs": [
        {
          "internalType": "address payable",
          "name": "ownerAccount",
          "type": "address"
        },
        {
          "internalType": "uint256",
          "name": "ownerId",
          "type": "uint256"
        },
        {
          "internalType": "uint256",
          "name": "auctionEndTime",
          "type": "uint256"
        },
        {
          "internalType": "uint256",
          "name": "auctionStartPrice",
          "type": "uint256"
        },
        {
          "internalType": "uint256",
          "name": "auctionCurrentBidder",
          "type": "uint256"
        },
        {
          "internalType": "uint256",
          "name": "auctionCurrentBid",
          "type": "uint256"
        },
        {
          "internalType": "address payable",
          "name": "auctionBuyer",
          "type": "address"
        },
        {
          "internalType": "bool",
          "name": "auctionEnded",
          "type": "bool"
        },
        {
          "internalType": "bool",
          "name": "bidStarted",
          "type": "bool"
        }
      ],
      "stateMutability": "view",
      "type": "function",
      "constant": true
    },
    {
      "inputs": [
        {
          "internalType": "uint256",
          "name": "",
          "type": "uint256"
        }
      ],
      "name": "keyManagerMap",
      "outputs": [
        {
          "internalType": "uint256",
          "name": "nft_key_Id",
          "type": "uint256"
        }
      ],
      "stateMutability": "view",
      "type": "function",
      "constant": true
    },
    {
      "inputs": [],
      "name": "keysCount",
      "outputs": [
        {
          "internalType": "uint256",
          "name": "",
          "type": "uint256"
        }
      ],
      "stateMutability": "view",
      "type": "function",
      "constant": true
    },
    {
      "inputs": [
        {
          "internalType": "uint256",
          "name": "_nftId",
          "type": "uint256"
        },
        {
          "internalType": "address payable",
          "name": "_ownerAccount",
          "type": "address"
        },
        {
          "internalType": "uint256",
          "name": "_ownerId",
          "type": "uint256"
        },
        {
          "internalType": "uint256",
          "name": "_auctionEndTime",
          "type": "uint256"
        },
        {
          "internalType": "uint256",
          "name": "_auctionCreationTime",
          "type": "uint256"
        },
        {
          "internalType": "uint256",
          "name": "_auctionStartPrice",
          "type": "uint256"
        }
      ],
      "name": "CreateAuction",
      "outputs": [],
      "stateMutability": "payable",
      "type": "function",
      "payable": true
    },
    {
      "inputs": [
        {
          "internalType": "uint256",
          "name": "_nftId",
          "type": "uint256"
        },
        {
          "internalType": "uint256",
          "name": "_auctionCurrentBid",
          "type": "uint256"
        },
        {
          "internalType": "uint256",
          "name": "_auctionCurrentBidder",
          "type": "uint256"
        },
        {
          "internalType": "address payable",
          "name": "_auctionBuyer",
          "type": "address"
        },
        {
          "internalType": "uint256",
          "name": "_bidTime",
          "type": "uint256"
        }
      ],
      "name": "BidAuction",
      "outputs": [],
      "stateMutability": "payable",
      "type": "function",
      "payable": true
    },
    {
      "inputs": [
        {
          "internalType": "uint256",
          "name": "_nftId",
          "type": "uint256"
        },
        {
          "internalType": "uint256",
          "name": "_endTime",
          "type": "uint256"
        }
      ],
      "name": "EndAuction",
      "outputs": [],
      "stateMutability": "payable",
      "type": "function",
      "payable": true
    },
    {
      "inputs": [
        {
          "internalType": "uint256",
          "name": "_nftId",
          "type": "uint256"
        }
      ],
      "name": "GetAuctionDetails",
      "outputs": [
        {
          "internalType": "address payable",
          "name": "",
          "type": "address"
        },
        {
          "internalType": "uint256",
          "name": "",
          "type": "uint256"
        },
        {
          "internalType": "uint256",
          "name": "",
          "type": "uint256"
        },
        {
          "internalType": "uint256",
          "name": "",
          "type": "uint256"
        },
        {
          "internalType": "uint256",
          "name": "",
          "type": "uint256"
        },
        {
          "internalType": "bool",
          "name": "",
          "type": "bool"
        },
        {
          "internalType": "bool",
          "name": "",
          "type": "bool"
        }
      ],
      "stateMutability": "view",
      "type": "function",
      "constant": true
    },
    {
      "inputs": [],
      "name": "GetAvaliableAuctionsList",
      "outputs": [
        {
          "internalType": "uint256[]",
          "name": "",
          "type": "uint256[]"
        }
      ],
      "stateMutability": "view",
      "type": "function",
      "constant": true
    }
  ],
  "bytecode": "0x60806040526000805534801561001457600080fd5b50611c36806100246000396000f3fe60806040526004361061007b5760003560e01c8063d92623a31161004e578063d92623a314610111578063e4f627fe14610156578063e7ecafc214610181578063f6a7127e146101ac5761007b565b806321b978981461008057806336f608c71461009c578063b0835c4d146100d9578063c8703608146100f5575b600080fd5b61009a60048036038101906100959190611098565b6101ef565b005b3480156100a857600080fd5b506100c360048036038101906100be9190611113565b6106ac565b6040516100d0919061114f565b60405180910390f35b6100f360048036038101906100ee919061116a565b6106ca565b005b61010f600480360381019061010a91906111f7565b61097b565b005b34801561011d57600080fd5b5061013860048036038101906101339190611113565b610d1a565b60405161014d99989796959493929190611261565b60405180910390f35b34801561016257600080fd5b5061016b610dc2565b604051610178919061114f565b60405180910390f35b34801561018d57600080fd5b50610196610dc8565b6040516101a391906113ac565b60405180910390f35b3480156101b857600080fd5b506101d360048036038101906101ce9190611113565b610ebd565b6040516101e697969594939291906113ce565b60405180910390f35b6000851015610233576040517f08c379a000000000000000000000000000000000000000000000000000000000815260040161022a9061149a565b60405180910390fd5b60008411610276576040517f08c379a000000000000000000000000000000000000000000000000000000000815260040161026d90611506565b60405180910390fd5b60008310156102ba576040517f08c379a00000000000000000000000000000000000000000000000000000000081526004016102b190611572565b60405180910390fd5b600073ffffffffffffffffffffffffffffffffffffffff168273ffffffffffffffffffffffffffffffffffffffff16141561032a576040517f08c379a0000000000000000000000000000000000000000000000000000000008152600401610321906115de565b60405180910390fd5b600015156002600087815260200190815260200160002060060160149054906101000a900460ff16151514610394576040517f08c379a000000000000000000000000000000000000000000000000000000000815260040161038b9061164a565b60405180910390fd5b60026000868152602001908152602001600020600201548111156103ed576040517f08c379a00000000000000000000000000000000000000000000000000000000081526004016103e49061164a565b60405180910390fd5b6002600086815260200190815260200160002060030154841015610446576040517f08c379a000000000000000000000000000000000000000000000000000000000815260040161043d906116dc565b60405180910390fd5b6002600086815260200190815260200160002060060160159054906101000a900460ff1661052d57836002600087815260200190815260200160002060050181905550826002600087815260200190815260200160002060040181905550816002600087815260200190815260200160002060060160006101000a81548173ffffffffffffffffffffffffffffffffffffffff021916908373ffffffffffffffffffffffffffffffffffffffff16021790555060016002600087815260200190815260200160002060060160156101000a81548160ff02191690831515021790555061066a565b8260026000878152602001908152602001600020600401541415610586576040517f08c379a000000000000000000000000000000000000000000000000000000000815260040161057d9061176e565b60405180910390fd5b836002600087815260200190815260200160002060050154106105de576040517f08c379a00000000000000000000000000000000000000000000000000000000081526004016105d590611800565b60405180910390fd5b836002600087815260200190815260200160002060050181905550826002600087815260200190815260200160002060040181905550816002600087815260200190815260200160002060060160006101000a81548173ffffffffffffffffffffffffffffffffffffffff021916908373ffffffffffffffffffffffffffffffffffffffff1602179055505b7fa1bcd0cdba930172ab846c2a40edcd223e4d3c320c34d47a13489d3c240e9b7585848660405161069d93929190611820565b60405180910390a15050505050565b60016020528060005260406000206000915090508060000154905081565b600086101561070e576040517f08c379a0000000000000000000000000000000000000000000000000000000008152600401610705906118a3565b60405180910390fd5b818311610750576040517f08c379a000000000000000000000000000000000000000000000000000000000815260040161074790611935565b60405180910390fd5b60008111610793576040517f08c379a000000000000000000000000000000000000000000000000000000000815260040161078a906119ed565b60405180910390fd5b6000805b6000548110156107db5787600160008381526020019081526020016000206000015414156107c857600191506107db565b80806107d390611a3c565b915050610797565b5080610815578660016000805481526020019081526020016000206000018190555060008081548092919061080f90611a3c565b91905055505b856002600089815260200190815260200160002060000160006101000a81548173ffffffffffffffffffffffffffffffffffffffff021916908373ffffffffffffffffffffffffffffffffffffffff1602179055508460026000898152602001908152602001600020600101819055508360026000898152602001908152602001600020600201819055508160026000898152602001908152602001600020600301819055506000600260008981526020019081526020016000206005018190555060006002600089815260200190815260200160002060060160156101000a81548160ff02191690831515021790555060006002600089815260200190815260200160002060060160146101000a81548160ff0219169083151502179055507f7452d9ec1a06d886236e3f49c2cce41040cb678611e36fea60d93c9563a3ca6a8786868560405161096a9493929190611a85565b60405180910390a150505050505050565b60008210156109bf576040517f08c379a00000000000000000000000000000000000000000000000000000000081526004016109b69061149a565b60405180910390fd5b600015156002600084815260200190815260200160002060060160149054906101000a900460ff16151514610a29576040517f08c379a0000000000000000000000000000000000000000000000000000000008152600401610a2090611b16565b60405180910390fd5b6002600083815260200190815260200160002060020154811015610a82576040517f08c379a0000000000000000000000000000000000000000000000000000000008152600401610a7990611b82565b60405180910390fd5b60016002600084815260200190815260200160002060060160146101000a81548160ff0219169083151502179055506002600083815260200190815260200160002060060160159054906101000a900460ff1615610caf576002600083815260200190815260200160002060060160009054906101000a900473ffffffffffffffffffffffffffffffffffffffff1673ffffffffffffffffffffffffffffffffffffffff166108fc60026000858152602001908152602001600020600501549081150290604051600060405180830381858888f19350505050158015610b6c573d6000803e3d6000fd5b50600260008381526020019081526020016000206004015460026000848152602001908152602001600020600101819055506002600083815260200190815260200160002060060160009054906101000a900473ffffffffffffffffffffffffffffffffffffffff166002600084815260200190815260200160002060000160006101000a81548173ffffffffffffffffffffffffffffffffffffffff021916908373ffffffffffffffffffffffffffffffffffffffff16021790555060006002600084815260200190815260200160002060060160006101000a81548173ffffffffffffffffffffffffffffffffffffffff021916908373ffffffffffffffffffffffffffffffffffffffff16021790555060006002600084815260200190815260200160002060060160156101000a81548160ff0219169083151502179055505b7f511a8cdcb895c5c63d6305412a35827384c2bf56db44a98095734adb6440b3628260026000858152602001908152602001600020600101546002600086815260200190815260200160002060050154604051610d0e93929190611820565b60405180910390a15050565b60026020528060005260406000206000915090508060000160009054906101000a900473ffffffffffffffffffffffffffffffffffffffff16908060010154908060020154908060030154908060040154908060050154908060060160009054906101000a900473ffffffffffffffffffffffffffffffffffffffff16908060060160149054906101000a900460ff16908060060160159054906101000a900460ff16905089565b60005481565b60606000805467ffffffffffffffff811115610de757610de6611ba2565b5b604051908082528060200260200182016040528015610e155781602001602082028036833780820191505090505b5090506000805b600054811015610eb457600060016000838152602001908152602001600020600001549050600015156002600083815260200190815260200160002060060160149054906101000a900460ff1615151415610ea05780848481518110610e8557610e84611bd1565b5b6020026020010181815250508280610e9c90611a3c565b9350505b508080610eac90611a3c565b915050610e1c565b50819250505090565b600080600080600080600080881015610f0b576040517f08c379a0000000000000000000000000000000000000000000000000000000008152600401610f029061149a565b60405180910390fd5b6002600089815260200190815260200160002060000160009054906101000a900473ffffffffffffffffffffffffffffffffffffffff16600260008a815260200190815260200160002060010154600260008b815260200190815260200160002060020154600260008c815260200190815260200160002060030154600260008d815260200190815260200160002060050154600260008e815260200190815260200160002060060160149054906101000a900460ff16600260008f815260200190815260200160002060060160159054906101000a900460ff169650965096509650965096509650919395979092949650565b600080fd5b6000819050919050565b61101781611004565b811461102257600080fd5b50565b6000813590506110348161100e565b92915050565b600073ffffffffffffffffffffffffffffffffffffffff82169050919050565b60006110658261103a565b9050919050565b6110758161105a565b811461108057600080fd5b50565b6000813590506110928161106c565b92915050565b600080600080600060a086880312156110b4576110b3610fff565b5b60006110c288828901611025565b95505060206110d388828901611025565b94505060406110e488828901611025565b93505060606110f588828901611083565b925050608061110688828901611025565b9150509295509295909350565b60006020828403121561112957611128610fff565b5b600061113784828501611025565b91505092915050565b61114981611004565b82525050565b60006020820190506111646000830184611140565b92915050565b60008060008060008060c0878903121561118757611186610fff565b5b600061119589828a01611025565b96505060206111a689828a01611083565b95505060406111b789828a01611025565b94505060606111c889828a01611025565b93505060806111d989828a01611025565b92505060a06111ea89828a01611025565b9150509295509295509295565b6000806040838503121561120e5761120d610fff565b5b600061121c85828601611025565b925050602061122d85828601611025565b9150509250929050565b6112408161105a565b82525050565b60008115159050919050565b61125b81611246565b82525050565b600061012082019050611277600083018c611237565b611284602083018b611140565b611291604083018a611140565b61129e6060830189611140565b6112ab6080830188611140565b6112b860a0830187611140565b6112c560c0830186611237565b6112d260e0830185611252565b6112e0610100830184611252565b9a9950505050505050505050565b600081519050919050565b600082825260208201905092915050565b6000819050602082019050919050565b61132381611004565b82525050565b6000611335838361131a565b60208301905092915050565b6000602082019050919050565b6000611359826112ee565b61136381856112f9565b935061136e8361130a565b8060005b8381101561139f5781516113868882611329565b975061139183611341565b925050600181019050611372565b5085935050505092915050565b600060208201905081810360008301526113c6818461134e565b905092915050565b600060e0820190506113e3600083018a611237565b6113f06020830189611140565b6113fd6040830188611140565b61140a6060830187611140565b6114176080830186611140565b61142460a0830185611252565b61143160c0830184611252565b98975050505050505050565b600082825260208201905092915050565b7f496e76616c6964206e6674496400000000000000000000000000000000000000600082015250565b6000611484600d8361143d565b915061148f8261144e565b602082019050919050565b600060208201905081810360008301526114b381611477565b9050919050565b7f496e76616c69642062696420616d6f756e740000000000000000000000000000600082015250565b60006114f060128361143d565b91506114fb826114ba565b602082019050919050565b6000602082019050818103600083015261151f816114e3565b9050919050565b7f496e76616c696420626964646572206964000000000000000000000000000000600082015250565b600061155c60118361143d565b915061156782611526565b602082019050919050565b6000602082019050818103600083015261158b8161154f565b9050919050565b7f496e76616c6964206269646465722077616c6c65742061646472657373000000600082015250565b60006115c8601d8361143d565b91506115d382611592565b602082019050919050565b600060208201905081810360008301526115f7816115bb565b9050919050565b7f41756374696f6e2068617320656e646564000000000000000000000000000000600082015250565b600061163460118361143d565b915061163f826115fe565b602082019050919050565b6000602082019050818103600083015261166381611627565b9050919050565b7f42696420616d6f756e74206d7573742062652067726561746572207468616e2060008201527f7374617274207072696365000000000000000000000000000000000000000000602082015250565b60006116c6602b8361143d565b91506116d18261166a565b604082019050919050565b600060208201905081810360008301526116f5816116b9565b9050919050565b7f596f752061726520616c7265616479207468652068696768657374206269646460008201527f6572000000000000000000000000000000000000000000000000000000000000602082015250565b600061175860228361143d565b9150611763826116fc565b604082019050919050565b600060208201905081810360008301526117878161174b565b9050919050565b7f596f757220626964206973206c6f776572207468616e2074686520637572726560008201527f6e74206269640000000000000000000000000000000000000000000000000000602082015250565b60006117ea60268361143d565b91506117f58261178e565b604082019050919050565b60006020820190508181036000830152611819816117dd565b9050919050565b60006060820190506118356000830186611140565b6118426020830185611140565b61184f6040830184611140565b949350505050565b7f496e76616c6964204e4654204944000000000000000000000000000000000000600082015250565b600061188d600e8361143d565b915061189882611857565b602082019050919050565b600060208201905081810360008301526118bc81611880565b9050919050565b7f496e76616c69642061756374696f6e20656e6474696d652e20596f757220617560008201527f6374696f6e206d75737420656e6420696e206675747572650000000000000000602082015250565b600061191f60388361143d565b915061192a826118c3565b604082019050919050565b6000602082019050818103600083015261194e81611912565b9050919050565b7f496e76616c69642061756374696f6e2073746172742070726963652e20596f7560008201527f722061756374696f6e206d7573742073746172742077697468206120706f736960208201527f7469766520707269636500000000000000000000000000000000000000000000604082015250565b60006119d7604a8361143d565b91506119e282611955565b606082019050919050565b60006020820190508181036000830152611a06816119ca565b9050919050565b7f4e487b7100000000000000000000000000000000000000000000000000000000600052601160045260246000fd5b6000611a4782611004565b91507fffffffffffffffffffffffffffffffffffffffffffffffffffffffffffffffff821415611a7a57611a79611a0d565b5b600182019050919050565b6000608082019050611a9a6000830187611140565b611aa76020830186611140565b611ab46040830185611140565b611ac16060830184611140565b95945050505050565b7f41756374696f6e2068617320616c726561647920656e64656400000000000000600082015250565b6000611b0060198361143d565b9150611b0b82611aca565b602082019050919050565b60006020820190508181036000830152611b2f81611af3565b9050919050565b7f41756374696f6e20686173206e6f7420656e6465642079657400000000000000600082015250565b6000611b6c60198361143d565b9150611b7782611b36565b602082019050919050565b60006020820190508181036000830152611b9b81611b5f565b9050919050565b7f4e487b7100000000000000000000000000000000000000000000000000000000600052604160045260246000fd5b7f4e487b7100000000000000000000000000000000000000000000000000000000600052603260045260246000fdfea2646970667358221220d75bfd17e97d5e412e19791580112cb4e58f195eca9ace8e9ac79371c0588c7c64736f6c63430008090033",
  "immutableReferences": {},
  "source": "// SPDX-License-Identifier: Apache-2.0\npragma solidity ^0.8.0;\n\ncontract Auctions{\n    // for each nft item uploaded by user, we will create an auction\n    uint public keysCount = 0;\n\n    struct keyManager{\n        uint nft_key_Id;\n    }\n\n    mapping(uint => keyManager) public keyManagerMap;\n\n\n    struct Auction{\n        // auction Owner Details\n        address payable ownerAccount;\n        uint ownerId;\n        \n        // auction details\n        uint256 auctionEndTime;\n        uint auctionStartPrice; // initial price set by user.\n        uint auctionCurrentBidder; // current highest bidder id\n        uint auctionCurrentBid; // current highest bid\n        address payable auctionBuyer; // wallet address of current highest bidder\n        \n        // helper variables\n        bool auctionEnded;\n        bool bidStarted;\n    }\n    // mapping of nft id to auction\n    mapping(uint => Auction) public auctionMap;\n\n    event AuctionDetails(\n        address payable ownerAccount,\n        uint ownerId,\n        uint256 auctionEndTime,\n        uint auctionStartPrice,\n        uint auctionCurrentBid,\n        bool auctionEnded,\n        bool bidStarted\n    );\n\n    event auctionCreated(\n        uint nftId,\n        uint ownerId,\n        uint256 auctionEndTime,\n        uint auctionStartPrice\n    );\n\n    event bidCreated(\n        uint nftId,\n        uint auctionCurrentBidder,\n        uint auctionCurrentBid\n    );\n\n    event auctionEnded(\n        uint nftId,\n        uint auctionCurrentBidder,\n        uint auctionCurrentBid\n    );\n\n    function CreateAuction(uint _nftId, address payable _ownerAccount, uint _ownerId, uint256 _auctionEndTime, uint256 _auctionCreationTime, uint _auctionStartPrice ) public payable{\n        require(_nftId >= 0, \"Invalid NFT ID\");\n        require(_auctionEndTime > _auctionCreationTime, \"Invalid auction endtime. Your auction must end in future\"); //  block.timestamp is a substitute for now/ current time\n        require(_auctionStartPrice > 0, \"Invalid auction start price. Your auction must start with a positive price\");\n        bool isIdPresent = false;\n        for(uint i = 0; i < keysCount; i++){\n            if(keyManagerMap[i].nft_key_Id == _nftId){\n                isIdPresent = true;\n                break;\n            }\n        }\n        if(!isIdPresent){\n            keyManagerMap[keysCount].nft_key_Id = _nftId;\n            keysCount++;\n        }\n\n        auctionMap[_nftId].ownerAccount = _ownerAccount; // owner's account address\n        auctionMap[_nftId].ownerId = _ownerId; // owner's account id\n        auctionMap[_nftId].auctionEndTime = _auctionEndTime;\n        auctionMap[_nftId].auctionStartPrice = _auctionStartPrice;\n        auctionMap[_nftId].auctionCurrentBid = 0;\n        auctionMap[_nftId].bidStarted = false;\n        auctionMap[_nftId].auctionEnded = false;\n        emit auctionCreated(_nftId, _ownerId, _auctionEndTime, _auctionStartPrice);\n    }\n\n    function BidAuction(uint _nftId, uint _auctionCurrentBid, uint _auctionCurrentBidder, address payable _auctionBuyer, uint256 _bidTime) public payable{\n        require(_nftId >= 0, \"Invalid nftId\");\n        require(_auctionCurrentBid > 0, \"Invalid bid amount\");\n        require(_auctionCurrentBidder >= 0, \"Invalid bidder id\");\n        require(_auctionBuyer != address(0), \"Invalid bidder wallet address\"); // address(0) is a substitute for null address\n        require(auctionMap[_nftId].auctionEnded == false, \"Auction has ended\");\n        require(_bidTime<=auctionMap[_nftId].auctionEndTime, \"Auction has ended\");\n        require(_auctionCurrentBid>=auctionMap[_nftId].auctionStartPrice, \"Bid amount must be greater than start price\");\n\n        if(!auctionMap[_nftId].bidStarted){\n            auctionMap[_nftId].auctionCurrentBid = _auctionCurrentBid;\n            auctionMap[_nftId].auctionCurrentBidder = _auctionCurrentBidder;\n            auctionMap[_nftId].auctionBuyer = _auctionBuyer;\n            auctionMap[_nftId].bidStarted = true;\n        }\n        else{\n            require(auctionMap[_nftId].auctionCurrentBidder != _auctionCurrentBidder, \"You are already the highest bidder\");\n            require(auctionMap[_nftId].auctionCurrentBid < _auctionCurrentBid, \"Your bid is lower than the current bid\");\n            auctionMap[_nftId].auctionCurrentBid = _auctionCurrentBid;\n            auctionMap[_nftId].auctionCurrentBidder = _auctionCurrentBidder;\n            auctionMap[_nftId].auctionBuyer = _auctionBuyer;\n        }\n        emit bidCreated(_nftId, _auctionCurrentBidder, _auctionCurrentBid);\n    }\n\n    function EndAuction(uint _nftId, uint256 _endTime) public payable{\n        require(_nftId >= 0, \"Invalid nftId\");\n        require(auctionMap[_nftId].auctionEnded == false, \"Auction has already ended\");\n        require(_endTime>=auctionMap[_nftId].auctionEndTime, \"Auction has not ended yet\");\n        auctionMap[_nftId].auctionEnded = true;\n        if(auctionMap[_nftId].bidStarted){\n            auctionMap[_nftId].auctionBuyer.transfer(auctionMap[_nftId].auctionCurrentBid); // transfer the highest bid amount to the auction buyer\n            auctionMap[_nftId].ownerId = auctionMap[_nftId].auctionCurrentBidder; // update the owner id to the highest bidder id\n            auctionMap[_nftId].ownerAccount = auctionMap[_nftId].auctionBuyer; // update the owner account to the highest bidder wallet address\n            auctionMap[_nftId].auctionBuyer = payable(address(0)); // set the auction buyer to null address\n            auctionMap[_nftId].bidStarted = false;\n        }\n        emit auctionEnded(_nftId, auctionMap[_nftId].ownerId, auctionMap[_nftId].auctionCurrentBid);\n    }\n\n    function GetAuctionDetails(uint _nftId) public view returns(address payable, uint, uint256, uint, uint, bool, bool){\n        require(_nftId >= 0, \"Invalid nftId\");\n        return (auctionMap[_nftId].ownerAccount, auctionMap[_nftId].ownerId, auctionMap[_nftId].auctionEndTime, auctionMap[_nftId].auctionStartPrice, auctionMap[_nftId].auctionCurrentBid, auctionMap[_nftId].auctionEnded, auctionMap[_nftId].bidStarted);\n    }\n\n    function GetAvaliableAuctionsList() public view returns(uint[] memory){\n        uint[] memory avaliableAuctions = new uint[](keysCount);\n        uint index = 0;\n        for(uint i = 0; i < keysCount; i++){\n            uint nft_Id = keyManagerMap[i].nft_key_Id;\n            if(auctionMap[nft_Id].auctionEnded == false){\n                avaliableAuctions[index] = nft_Id;\n                index++;\n            }\n        }\n        return avaliableAuctions;\n    }\n\n}\n",
  "sourcePath": "E:\\Projects\\Github\\Encheres\\Encheres_Frontend\\src\\contracts\\Auctions.sol",
  "compiler": {
    "name": "solc",
    "version": "0.8.9+commit.e5eed63a.Emscripten.clang"
  },
  "schemaVersion": "3.4.3",
  "updatedAt": "2021-10-31T13:13:20.971Z",
  "networkType": "ethereum",
  "devdoc": {
    "kind": "dev",
    "methods": {},
    "version": 1
  },
  "userdoc": {
    "kind": "user",
    "methods": {},
    "version": 1
  }
}